{
  "_format": "hh-sol-artifact-1",
  "contractName": "MockBandOracle",
  "sourceName": "contracts/mocks/MockBandOracle.sol",
  "abi": [
    {
      "inputs": [
        {
          "internalType": "uint256",
          "name": "_initialPrice",
          "type": "uint256"
        }
      ],
      "stateMutability": "nonpayable",
      "type": "constructor"
    },
    {
      "anonymous": false,
      "inputs": [
        {
          "indexed": true,
          "internalType": "string",
          "name": "base",
          "type": "string"
        },
        {
          "indexed": true,
          "internalType": "string",
          "name": "quote",
          "type": "string"
        },
        {
          "indexed": false,
          "internalType": "uint256",
          "name": "rate",
          "type": "uint256"
        },
        {
          "indexed": false,
          "internalType": "uint256",
          "name": "lastUpdatedBase",
          "type": "uint256"
        },
        {
          "indexed": false,
          "internalType": "uint256",
          "name": "lastUpdatedQuote",
          "type": "uint256"
        }
      ],
      "name": "ReferenceDataUpdated",
      "type": "event"
    },
    {
      "inputs": [
        {
          "internalType": "string",
          "name": "base",
          "type": "string"
        },
        {
          "internalType": "string",
          "name": "quote",
          "type": "string"
        }
      ],
      "name": "getReferenceData",
      "outputs": [
        {
          "components": [
            {
              "internalType": "uint256",
              "name": "rate",
              "type": "uint256"
            },
            {
              "internalType": "uint256",
              "name": "lastUpdatedBase",
              "type": "uint256"
            },
            {
              "internalType": "uint256",
              "name": "lastUpdatedQuote",
              "type": "uint256"
            }
          ],
          "internalType": "struct MockBandOracle.ReferenceData",
          "name": "",
          "type": "tuple"
        }
      ],
      "stateMutability": "view",
      "type": "function"
    },
    {
      "inputs": [
        {
          "internalType": "string[]",
          "name": "bases",
          "type": "string[]"
        },
        {
          "internalType": "string[]",
          "name": "quotes",
          "type": "string[]"
        }
      ],
      "name": "getReferenceDataBulk",
      "outputs": [
        {
          "components": [
            {
              "internalType": "uint256",
              "name": "rate",
              "type": "uint256"
            },
            {
              "internalType": "uint256",
              "name": "lastUpdatedBase",
              "type": "uint256"
            },
            {
              "internalType": "uint256",
              "name": "lastUpdatedQuote",
              "type": "uint256"
            }
          ],
          "internalType": "struct MockBandOracle.ReferenceData[]",
          "name": "",
          "type": "tuple[]"
        }
      ],
      "stateMutability": "view",
      "type": "function"
    },
    {
      "inputs": [
        {
          "internalType": "string",
          "name": "base",
          "type": "string"
        },
        {
          "internalType": "string",
          "name": "quote",
          "type": "string"
        },
        {
          "internalType": "uint256",
          "name": "basePrice",
          "type": "uint256"
        },
        {
          "internalType": "uint256",
          "name": "maxVariation",
          "type": "uint256"
        }
      ],
      "name": "simulatePriceMovement",
      "outputs": [],
      "stateMutability": "nonpayable",
      "type": "function"
    },
    {
      "inputs": [
        {
          "internalType": "string",
          "name": "base",
          "type": "string"
        },
        {
          "internalType": "string",
          "name": "quote",
          "type": "string"
        },
        {
          "internalType": "uint256",
          "name": "rate",
          "type": "uint256"
        }
      ],
      "name": "updateReferenceData",
      "outputs": [],
      "stateMutability": "nonpayable",
      "type": "function"
    }
  ],
  "bytecode": "0x6080346100c457601f61085138819003918201601f19168301926001600160401b03929091838511838610176100ae5781602092849260409788528339810103126100c4575182519160608301908111838210176100ae57835281526002602082014281528383019042825260238086516258415560e81b81526000600382015220865190621554d160ea1b825260038201522093518455516001840155519101555161078790816100ca8239f35b634e487b7160e01b600052604160045260246000fd5b600080fdfe6040608081526004908136101561001557600080fd5b6000803560e01c8063100db658146104d457806339375759146102eb57806365555bcc1461022b5763e42a071b1461004c57600080fd5b3461022857816003193601126102285767ffffffffffffffff9280358481116102245761007c903690830161061c565b92602494853590811161022057610096903690840161061c565b9084518251036101e7578451916100ac83610604565b926100b983519485610586565b8084526100c8601f1991610604565b01855b8181106101d0575050845b8651811015610171576100fd60026101196100f1848b610704565b518651938480926106bc565b8a81526020948591030190206101138587610704565b516106e7565b85519261012584610554565b815484526001820154908401520154848201526101428286610704565b5261014d8185610704565b50600019811461015f576001016100d6565b634e487b7160e01b8652601185528786fd5b85838581519160208080850192818652845180945285019301945b8281106101995784840385f35b909192826060826101c16001948a516040809180518452602081015160208501520151910152565b0196019101949291909461018c565b6020906101db61069d565b828288010152016100cb565b5162461bcd60e51b815260208184015260158187015274082e4e4c2f240d8cadccee8d040dad2e6dac2e8c6d605b1b6044820152606490fd5b8380fd5b8280fd5b80fd5b50913461022457816003193601126102245767ffffffffffffffff9080358281116102e75761025d90369083016105a8565b916024359081116102e7579361029960206102e5946102846102a6956060993691016105a8565b9361028d61069d565b508751938480936106bc565b90815203019020906106e7565b9160028151936102b585610554565b80548552600181015460208601520154818401525180926040809180518452602081015160208501520151910152565bf35b8480fd5b5091346102245760803660031901126102245767ffffffffffffffff81358181116102e75761031d90369084016105a8565b906024359081116102e75761033590369084016105a8565b916044359060643585516020810190428252448882015287815261035881610554565b5190208160011b90828204600214831517156104c15781156104ae57068181111561045e57906103879161072e565b820180921161044b57507f447acc8132df16241468fba24ca416db92a1d1fa8b95d36680c6446aec02aaae9161042661041761044593925b87516103ca81610554565b848152600289602083014281526103fe8d6020848701944286525180926103f1828b6106bc565b908152030190208c6106e7565b93518455516001840155519101558751918280926106bc565b039020948651918280926106bc565b0390209451908152426020820181905260408201529081906060820190565b0390a380f35b634e487b7160e01b865260119052602485fd5b7f447acc8132df16241468fba24ca416db92a1d1fa8b95d36680c6446aec02aaae949250610426915061044593610417918082116000146104a8576104a29161072e565b926103bf565b506104a2565b634e487b7160e01b895260128452602489fd5b634e487b7160e01b895260118452602489fd5b5091346102245760603660031901126102245767ffffffffffffffff81358181116102e75761050690369084016105a8565b916024359182116102e757610542610445917f447acc8132df16241468fba24ca416db92a1d1fa8b95d36680c6446aec02aaae933691016105a8565b926104266104176044359287516103ca815b6060810190811067ffffffffffffffff82111761057057604052565b634e487b7160e01b600052604160045260246000fd5b90601f8019910116810190811067ffffffffffffffff82111761057057604052565b81601f820112156105ff5780359067ffffffffffffffff821161057057604051926105dd601f8401601f191660200185610586565b828452602083830101116105ff57816000926020809301838601378301015290565b600080fd5b67ffffffffffffffff81116105705760051b60200190565b9080601f830112156105ff5781359061063482610604565b926106426040519485610586565b828452602092838086019160051b830101928084116105ff57848301915b8483106106705750505050505090565b823567ffffffffffffffff81116105ff578691610692848480948901016105a8565b815201920191610660565b604051906106aa82610554565b60006040838281528260208201520152565b9081519160005b8381106106d4575050016000815290565b80602080928401015181850152016106c3565b6020906106fa92604051938480936106bc565b9081520301902090565b80518210156107185760209160051b010190565b634e487b7160e01b600052603260045260246000fd5b9190820391821161073b57565b634e487b7160e01b600052601160045260246000fdfea2646970667358221220c47a5f69bda162d3bbc49d366d87c1bb2204409227b68913a3625c146753e3ee64736f6c63430008130033",
  "linkReferences": {},
  "deployedLinkReferences": {}
}