{
  "_format": "hh-sol-artifact-1",
  "contractName": "PriceUpdaterBot",
  "sourceName": "contracts/mocks/PriceUpdaterBot.sol",
  "abi": [
    {
      "inputs": [
        {
          "internalType": "address",
          "name": "_oracleAggregator",
          "type": "address"
        },
        {
          "internalType": "address",
          "name": "_chainlinkOracle",
          "type": "address"
        },
        {
          "internalType": "address",
          "name": "_bandOracle",
          "type": "address"
        },
        {
          "internalType": "uint256",
          "name": "_updateInterval",
          "type": "uint256"
        }
      ],
      "stateMutability": "nonpayable",
      "type": "constructor"
    },
    {
      "anonymous": false,
      "inputs": [
        {
          "indexed": false,
          "internalType": "uint256",
          "name": "interval",
          "type": "uint256"
        },
        {
          "indexed": false,
          "internalType": "uint256",
          "name": "basePrice",
          "type": "uint256"
        },
        {
          "indexed": false,
          "internalType": "uint256",
          "name": "variation",
          "type": "uint256"
        }
      ],
      "name": "BotConfigured",
      "type": "event"
    },
    {
      "anonymous": false,
      "inputs": [
        {
          "indexed": false,
          "internalType": "bool",
          "name": "active",
          "type": "bool"
        }
      ],
      "name": "BotStatusChanged",
      "type": "event"
    },
    {
      "anonymous": false,
      "inputs": [
        {
          "indexed": false,
          "internalType": "uint256",
          "name": "newPrice",
          "type": "uint256"
        },
        {
          "indexed": false,
          "internalType": "uint256",
          "name": "timestamp",
          "type": "uint256"
        }
      ],
      "name": "PriceUpdated",
      "type": "event"
    },
    {
      "inputs": [],
      "name": "bandOracle",
      "outputs": [
        {
          "internalType": "contract MockBandOracle",
          "name": "",
          "type": "address"
        }
      ],
      "stateMutability": "view",
      "type": "function"
    },
    {
      "inputs": [],
      "name": "basePrice",
      "outputs": [
        {
          "internalType": "uint256",
          "name": "",
          "type": "uint256"
        }
      ],
      "stateMutability": "view",
      "type": "function"
    },
    {
      "inputs": [],
      "name": "chainlinkOracle",
      "outputs": [
        {
          "internalType": "contract MockChainlinkOracle",
          "name": "",
          "type": "address"
        }
      ],
      "stateMutability": "view",
      "type": "function"
    },
    {
      "inputs": [
        {
          "internalType": "uint256",
          "name": "_updateInterval",
          "type": "uint256"
        },
        {
          "internalType": "uint256",
          "name": "_basePrice",
          "type": "uint256"
        },
        {
          "internalType": "uint256",
          "name": "_maxVariation",
          "type": "uint256"
        }
      ],
      "name": "configure",
      "outputs": [],
      "stateMutability": "nonpayable",
      "type": "function"
    },
    {
      "inputs": [],
      "name": "getStatus",
      "outputs": [
        {
          "internalType": "bool",
          "name": "active",
          "type": "bool"
        },
        {
          "internalType": "uint256",
          "name": "lastUpdate",
          "type": "uint256"
        },
        {
          "internalType": "uint256",
          "name": "nextUpdate",
          "type": "uint256"
        },
        {
          "internalType": "uint256",
          "name": "currentBasePrice",
          "type": "uint256"
        },
        {
          "internalType": "uint256",
          "name": "currentVariation",
          "type": "uint256"
        }
      ],
      "stateMutability": "view",
      "type": "function"
    },
    {
      "inputs": [],
      "name": "isActive",
      "outputs": [
        {
          "internalType": "bool",
          "name": "",
          "type": "bool"
        }
      ],
      "stateMutability": "view",
      "type": "function"
    },
    {
      "inputs": [],
      "name": "lastUpdateTime",
      "outputs": [
        {
          "internalType": "uint256",
          "name": "",
          "type": "uint256"
        }
      ],
      "stateMutability": "view",
      "type": "function"
    },
    {
      "inputs": [],
      "name": "maxVariation",
      "outputs": [
        {
          "internalType": "uint256",
          "name": "",
          "type": "uint256"
        }
      ],
      "stateMutability": "view",
      "type": "function"
    },
    {
      "inputs": [],
      "name": "needsUpdate",
      "outputs": [
        {
          "internalType": "bool",
          "name": "",
          "type": "bool"
        }
      ],
      "stateMutability": "view",
      "type": "function"
    },
    {
      "inputs": [],
      "name": "oracleAggregator",
      "outputs": [
        {
          "internalType": "contract IOracleAggregator",
          "name": "",
          "type": "address"
        }
      ],
      "stateMutability": "view",
      "type": "function"
    },
    {
      "inputs": [],
      "name": "owner",
      "outputs": [
        {
          "internalType": "address",
          "name": "",
          "type": "address"
        }
      ],
      "stateMutability": "view",
      "type": "function"
    },
    {
      "inputs": [
        {
          "internalType": "bool",
          "name": "_active",
          "type": "bool"
        }
      ],
      "name": "setActive",
      "outputs": [],
      "stateMutability": "nonpayable",
      "type": "function"
    },
    {
      "inputs": [
        {
          "internalType": "bool",
          "name": "increase",
          "type": "bool"
        }
      ],
      "name": "simulateExtremeMovement",
      "outputs": [],
      "stateMutability": "nonpayable",
      "type": "function"
    },
    {
      "inputs": [],
      "name": "timeUntilNextUpdate",
      "outputs": [
        {
          "internalType": "uint256",
          "name": "",
          "type": "uint256"
        }
      ],
      "stateMutability": "view",
      "type": "function"
    },
    {
      "inputs": [
        {
          "internalType": "address",
          "name": "newOwner",
          "type": "address"
        }
      ],
      "name": "transferOwnership",
      "outputs": [],
      "stateMutability": "nonpayable",
      "type": "function"
    },
    {
      "inputs": [],
      "name": "updateInterval",
      "outputs": [
        {
          "internalType": "uint256",
          "name": "",
          "type": "uint256"
        }
      ],
      "stateMutability": "view",
      "type": "function"
    },
    {
      "inputs": [],
      "name": "updatePrices",
      "outputs": [],
      "stateMutability": "nonpayable",
      "type": "function"
    }
  ],
  "bytecode": "0x60e03461015757601f610d0538819003918201601f19168301916001600160401b0383118484101761015c578084926080946040528339810103126101575760608161006b7f6f13ac8d92082f6652ad4f1f49f936fca666f21039d684314bd5d932b6c5cd3f93610172565b9061007860208201610172565b908361008660408301610172565b9101516001600160a01b0393841660805291831660a0529190911660c052600081905568b59a96d2f07698000060028190556802b5e3af16b18800006003819055600480546001600160a81b0319163360081b610100600160a81b031617600190811790915542905560408051938452602084019290925290820152a1604051610b7e908161018782396080518181816103da015281816105c601526107b2015260a0518181816101d30152818161031301526106ed015260c0518181816103690152818161058201526107410152f35b600080fd5b634e487b7160e01b600052604160045260246000fd5b51906001600160a01b03821682036101575756fe608060408181526004918236101561001657600080fd5b600092833560e01c91826322f3e2d41461092e57508163346c9409146108ea57816349dd1262146106915781634e69d5601461064557816367e79a9f146106215781638da5cb5b146105f55781638dffe3f4146105b1578163956dcd1f1461056d578163acec338a146104fa578163ad28211e146102b5578163c7876ea414610296578163c8f33c9114610277578163dd8c7d2b14610202578163ef06e72c146101be578163f2fde38b1461011d57508063f9611953146100ff5763fd2c80ae146100e057600080fd5b346100fb57816003193601126100fb57602091549051908152f35b5080fd5b50346100fb57816003193601126100fb576020906003549051908152f35b919050346101ba5760203660031901126101ba576001600160a01b03908235908282168083036101b6576101598554948560081c163314610a61565b156101825750610100600160a81b031990911660089190911b610100600160a81b031617905580f35b5162461bcd60e51b8152602081850152600f60248201526e496e76616c6964206164647265737360881b6044820152606490fd5b8580fd5b8280fd5b5050346100fb57816003193601126100fb57517f00000000000000000000000000000000000000000000000000000000000000006001600160a01b03168152602090f35b9050346101ba5760603660031901126101ba577f6f13ac8d92082f6652ad4f1f49f936fca666f21039d684314bd5d932b6c5cd3f9181606092359160243561025b6044359360018060a01b03905460081c163314610a61565b838755806002558260035581519384526020840152820152a180f35b5050346100fb57816003193601126100fb576020906001549051908152f35b5050346100fb57816003193601126100fb576020906002549051908152f35b839150346100fb5760203660031901126100fb5780359283151584036101ba5760018060a01b03936102ee85845460081c163314610a61565b156104d95760025493606e850294808604606e14901517156104c65760648495045b817f000000000000000000000000000000000000000000000000000000000000000016803b156101b6578580916024865180948193636a60cded60e11b8352878b8401525af180156104bc579086916104a4575b5050817f000000000000000000000000000000000000000000000000000000000000000016803b156101b6576103b286929183928651988980948193630201b6cb60e31b83528b83016109bf565b03925af19485156104985783949561047b575b50508151638e15f47360e01b815293849182907f0000000000000000000000000000000000000000000000000000000000000000165afa91828491859461044a575b50610415575b834260015580f35b7f945c1c4e99aa89f648fbfe3df471b916f719e16d960fcec0737d4d56bd6968389282519182526020820152a181808061040d565b90935061046d9150823d8411610474575b610465818361099d565b8101906109fd565b9285610407565b503d61045b565b61048791929350610973565b61049457819084866103c5565b8380fd5b508251903d90823e3d90fd5b6104ad90610973565b6104b8578487610364565b8480fd5b84513d88823e3d90fd5b634e487b7160e01b845260118352602484fd5b60025493605a850294808604605a14901517156104c6576064849504610310565b9050346101ba5760203660031901126101ba5780358015158091036104945781547fad9826add91532719ed50d282bedc54d9ef260b699d2996fd1ccb635df56f76b93602093909161055a33600883901c6001600160a01b031614610a61565b60ff191660ff841617905551908152a180f35b5050346100fb57816003193601126100fb57517f00000000000000000000000000000000000000000000000000000000000000006001600160a01b03168152602090f35b5050346100fb57816003193601126100fb57517f00000000000000000000000000000000000000000000000000000000000000006001600160a01b03168152602090f35b9050346101ba57826003193601126101ba5754905160089190911c6001600160a01b0316815260209150f35b5050346100fb57816003193601126100fb5760209061063e610a25565b9051908152f35b9050346101ba57826003193601126101ba579160ff60a09354169161066e600154925483610950565b600254916003549381519515158652602086015284015260608301526080820152f35b839150346100fb57816003193601126100fb5760ff815416156108b3576106bc600154835490610950565b421061087a5781926002546106e2600354916106d88382610a99565b9260011c90610a99565b6001600160a01b03917f00000000000000000000000000000000000000000000000000000000000000008316803b1561087657602487928651998a938492636a60cded60e11b84528a8401525af1801561086c57610858575b849550817f000000000000000000000000000000000000000000000000000000000000000016803b156101b65761078a86929183928651988980948193630201b6cb60e31b83528b83016109bf565b03925af19485156104985783949561083f575b50508151638e15f47360e01b815293849182907f0000000000000000000000000000000000000000000000000000000000000000165afa8015610835577f945c1c4e99aa89f648fbfe3df471b916f719e16d960fcec0737d4d56bd696838928491610817575b50426001558151908152426020820152a180f35b61082e9150823d841161047457610465818361099d565b5084610803565b81513d85823e3d90fd5b61084b91929350610973565b610494578190848661079d565b93909461086490610973565b92849061073b565b83513d87823e3d90fd5b8680fd5b606490602084519162461bcd60e51b83528201526013602482015272546f6f206561726c7920746f2075706461746560681b6044820152fd5b606490602084519162461bcd60e51b83528201526011602482015270426f74206973206e6f742061637469766560781b6044820152fd5b8383346100fb57816003193601126100fb5760ff60209354169182610913575b50519015158152f35b610924919250600154905490610950565b421015908361090a565b843461094d578060031936011261094d575060ff602092541615158152f35b80fd5b9190820180921161095d57565b634e487b7160e01b600052601160045260246000fd5b67ffffffffffffffff811161098757604052565b634e487b7160e01b600052604160045260246000fd5b90601f8019910116810190811067ffffffffffffffff82111761098757604052565b919060608352600360608401526258415560e81b608084015260a06020840152600360a0840152621554d160ea1b60c0840152604060e08401930152565b9190826040910312610a13576020825192015190565b600080fd5b9190820391821161095d57565b60ff6004541615610a5b57610a3f60015460005490610950565b80421015610a5557610a52904290610a18565b90565b50600090565b60001990565b15610a6857565b60405162461bcd60e51b81526020600482015260096024820152682737ba1037bbb732b960b91b6044820152606490fd5b9060405160208101904282524460408201524360608201523360601b60808201526074815260a0810181811067ffffffffffffffff821117610987576040525190208160011b908282046002148315171561095d578115610b32570681811115610b1157610a529291610b0b91610a18565b90610950565b610b1a91610a18565b80821115610b2b57610a5291610a18565b5060011c90565b634e487b7160e01b600052601260045260246000fdfea2646970667358221220b3200dafd49d5aed53627831f28e86120c331abc660ee706129f645ce1de82fb64736f6c63430008130033",
  "linkReferences": {},
  "deployedLinkReferences": {}
}