{
  "_format": "hh-sol-artifact-1",
  "contractName": "DCAManager",
  "sourceName": "contracts/DCAManager.sol",
  "abi": [
    {
      "inputs": [],
      "stateMutability": "nonpayable",
      "type": "constructor"
    },
    {
      "inputs": [],
      "name": "EmergencyModeActive",
      "type": "error"
    },
    {
      "inputs": [],
      "name": "ExecutionFailed",
      "type": "error"
    },
    {
      "inputs": [],
      "name": "GasPriceTooHigh",
      "type": "error"
    },
    {
      "inputs": [],
      "name": "InsufficientBalance",
      "type": "error"
    },
    {
      "inputs": [],
      "name": "InvalidAmount",
      "type": "error"
    },
    {
      "inputs": [],
      "name": "InvalidFrequency",
      "type": "error"
    },
    {
      "inputs": [],
      "name": "InvalidTimestamp",
      "type": "error"
    },
    {
      "inputs": [],
      "name": "SlippageTooHigh",
      "type": "error"
    },
    {
      "inputs": [],
      "name": "StrategyNotActive",
      "type": "error"
    },
    {
      "inputs": [],
      "name": "StrategyNotExecutable",
      "type": "error"
    },
    {
      "inputs": [],
      "name": "StrategyNotFound",
      "type": "error"
    },
    {
      "inputs": [],
      "name": "UnauthorizedUser",
      "type": "error"
    },
    {
      "inputs": [],
      "name": "UnsupportedToken",
      "type": "error"
    },
    {
      "anonymous": false,
      "inputs": [
        {
          "indexed": false,
          "internalType": "address",
          "name": "previousAdmin",
          "type": "address"
        },
        {
          "indexed": false,
          "internalType": "address",
          "name": "newAdmin",
          "type": "address"
        }
      ],
      "name": "AdminChanged",
      "type": "event"
    },
    {
      "anonymous": false,
      "inputs": [
        {
          "indexed": true,
          "internalType": "address",
          "name": "beacon",
          "type": "address"
        }
      ],
      "name": "BeaconUpgraded",
      "type": "event"
    },
    {
      "anonymous": false,
      "inputs": [
        {
          "indexed": true,
          "internalType": "uint256",
          "name": "strategyId",
          "type": "uint256"
        },
        {
          "indexed": true,
          "internalType": "address",
          "name": "user",
          "type": "address"
        }
      ],
      "name": "DCAStrategyCancelled",
      "type": "event"
    },
    {
      "anonymous": false,
      "inputs": [
        {
          "indexed": true,
          "internalType": "uint256",
          "name": "strategyId",
          "type": "uint256"
        },
        {
          "indexed": true,
          "internalType": "address",
          "name": "user",
          "type": "address"
        },
        {
          "indexed": false,
          "internalType": "address",
          "name": "paymentToken",
          "type": "address"
        },
        {
          "indexed": false,
          "internalType": "address",
          "name": "targetToken",
          "type": "address"
        },
        {
          "indexed": false,
          "internalType": "uint256",
          "name": "amount",
          "type": "uint256"
        },
        {
          "indexed": false,
          "internalType": "uint256",
          "name": "frequency",
          "type": "uint256"
        },
        {
          "indexed": false,
          "internalType": "uint256",
          "name": "startTime",
          "type": "uint256"
        },
        {
          "indexed": false,
          "internalType": "uint256",
          "name": "endTime",
          "type": "uint256"
        }
      ],
      "name": "DCAStrategyCreated",
      "type": "event"
    },
    {
      "anonymous": false,
      "inputs": [
        {
          "indexed": true,
          "internalType": "uint256",
          "name": "strategyId",
          "type": "uint256"
        },
        {
          "indexed": true,
          "internalType": "address",
          "name": "user",
          "type": "address"
        },
        {
          "indexed": false,
          "internalType": "uint256",
          "name": "amountIn",
          "type": "uint256"
        },
        {
          "indexed": false,
          "internalType": "uint256",
          "name": "amountOut",
          "type": "uint256"
        },
        {
          "indexed": false,
          "internalType": "uint256",
          "name": "price",
          "type": "uint256"
        },
        {
          "indexed": false,
          "internalType": "uint256",
          "name": "timestamp",
          "type": "uint256"
        }
      ],
      "name": "DCAStrategyExecuted",
      "type": "event"
    },
    {
      "anonymous": false,
      "inputs": [
        {
          "indexed": true,
          "internalType": "uint256",
          "name": "strategyId",
          "type": "uint256"
        },
        {
          "indexed": true,
          "internalType": "address",
          "name": "user",
          "type": "address"
        }
      ],
      "name": "DCAStrategyPaused",
      "type": "event"
    },
    {
      "anonymous": false,
      "inputs": [
        {
          "indexed": true,
          "internalType": "uint256",
          "name": "strategyId",
          "type": "uint256"
        },
        {
          "indexed": true,
          "internalType": "address",
          "name": "user",
          "type": "address"
        }
      ],
      "name": "DCAStrategyResumed",
      "type": "event"
    },
    {
      "anonymous": false,
      "inputs": [
        {
          "indexed": true,
          "internalType": "uint256",
          "name": "strategyId",
          "type": "uint256"
        },
        {
          "indexed": true,
          "internalType": "address",
          "name": "user",
          "type": "address"
        }
      ],
      "name": "DCAStrategyUpdated",
      "type": "event"
    },
    {
      "anonymous": false,
      "inputs": [
        {
          "indexed": false,
          "internalType": "uint256",
          "name": "timestamp",
          "type": "uint256"
        }
      ],
      "name": "EmergencyModeActivated",
      "type": "event"
    },
    {
      "anonymous": false,
      "inputs": [
        {
          "indexed": false,
          "internalType": "uint256",
          "name": "timestamp",
          "type": "uint256"
        }
      ],
      "name": "EmergencyModeDeactivated",
      "type": "event"
    },
    {
      "anonymous": false,
      "inputs": [
        {
          "indexed": false,
          "internalType": "uint256",
          "name": "newReward",
          "type": "uint256"
        }
      ],
      "name": "ExecutorRewardUpdated",
      "type": "event"
    },
    {
      "anonymous": false,
      "inputs": [
        {
          "indexed": false,
          "internalType": "uint256",
          "name": "executionFee",
          "type": "uint256"
        },
        {
          "indexed": false,
          "internalType": "uint256",
          "name": "platformFee",
          "type": "uint256"
        }
      ],
      "name": "FeesUpdated",
      "type": "event"
    },
    {
      "anonymous": false,
      "inputs": [
        {
          "indexed": false,
          "internalType": "uint8",
          "name": "version",
          "type": "uint8"
        }
      ],
      "name": "Initialized",
      "type": "event"
    },
    {
      "anonymous": false,
      "inputs": [
        {
          "indexed": false,
          "internalType": "address",
          "name": "account",
          "type": "address"
        }
      ],
      "name": "Paused",
      "type": "event"
    },
    {
      "anonymous": false,
      "inputs": [
        {
          "indexed": true,
          "internalType": "bytes32",
          "name": "role",
          "type": "bytes32"
        },
        {
          "indexed": true,
          "internalType": "bytes32",
          "name": "previousAdminRole",
          "type": "bytes32"
        },
        {
          "indexed": true,
          "internalType": "bytes32",
          "name": "newAdminRole",
          "type": "bytes32"
        }
      ],
      "name": "RoleAdminChanged",
      "type": "event"
    },
    {
      "anonymous": false,
      "inputs": [
        {
          "indexed": true,
          "internalType": "bytes32",
          "name": "role",
          "type": "bytes32"
        },
        {
          "indexed": true,
          "internalType": "address",
          "name": "account",
          "type": "address"
        },
        {
          "indexed": true,
          "internalType": "address",
          "name": "sender",
          "type": "address"
        }
      ],
      "name": "RoleGranted",
      "type": "event"
    },
    {
      "anonymous": false,
      "inputs": [
        {
          "indexed": true,
          "internalType": "bytes32",
          "name": "role",
          "type": "bytes32"
        },
        {
          "indexed": true,
          "internalType": "address",
          "name": "account",
          "type": "address"
        },
        {
          "indexed": true,
          "internalType": "address",
          "name": "sender",
          "type": "address"
        }
      ],
      "name": "RoleRevoked",
      "type": "event"
    },
    {
      "anonymous": false,
      "inputs": [
        {
          "indexed": false,
          "internalType": "address",
          "name": "token",
          "type": "address"
        },
        {
          "indexed": false,
          "internalType": "bool",
          "name": "supported",
          "type": "bool"
        }
      ],
      "name": "TokenSupportUpdated",
      "type": "event"
    },
    {
      "anonymous": false,
      "inputs": [
        {
          "indexed": false,
          "internalType": "address",
          "name": "account",
          "type": "address"
        }
      ],
      "name": "Unpaused",
      "type": "event"
    },
    {
      "anonymous": false,
      "inputs": [
        {
          "indexed": true,
          "internalType": "address",
          "name": "implementation",
          "type": "address"
        }
      ],
      "name": "Upgraded",
      "type": "event"
    },
    {
      "inputs": [],
      "name": "DEFAULT_ADMIN_ROLE",
      "outputs": [
        {
          "internalType": "bytes32",
          "name": "",
          "type": "bytes32"
        }
      ],
      "stateMutability": "view",
      "type": "function"
    },
    {
      "inputs": [],
      "name": "EMERGENCY_ROLE",
      "outputs": [
        {
          "internalType": "bytes32",
          "name": "",
          "type": "bytes32"
        }
      ],
      "stateMutability": "view",
      "type": "function"
    },
    {
      "inputs": [],
      "name": "EXECUTION_WINDOW",
      "outputs": [
        {
          "internalType": "uint256",
          "name": "",
          "type": "uint256"
        }
      ],
      "stateMutability": "view",
      "type": "function"
    },
    {
      "inputs": [],
      "name": "EXECUTOR_ROLE",
      "outputs": [
        {
          "internalType": "bytes32",
          "name": "",
          "type": "bytes32"
        }
      ],
      "stateMutability": "view",
      "type": "function"
    },
    {
      "inputs": [],
      "name": "MANAGER_ROLE",
      "outputs": [
        {
          "internalType": "bytes32",
          "name": "",
          "type": "bytes32"
        }
      ],
      "stateMutability": "view",
      "type": "function"
    },
    {
      "inputs": [],
      "name": "MAX_AMOUNT",
      "outputs": [
        {
          "internalType": "uint256",
          "name": "",
          "type": "uint256"
        }
      ],
      "stateMutability": "view",
      "type": "function"
    },
    {
      "inputs": [],
      "name": "MAX_FREQUENCY",
      "outputs": [
        {
          "internalType": "uint256",
          "name": "",
          "type": "uint256"
        }
      ],
      "stateMutability": "view",
      "type": "function"
    },
    {
      "inputs": [],
      "name": "MAX_SLIPPAGE",
      "outputs": [
        {
          "internalType": "uint256",
          "name": "",
          "type": "uint256"
        }
      ],
      "stateMutability": "view",
      "type": "function"
    },
    {
      "inputs": [],
      "name": "MIN_AMOUNT",
      "outputs": [
        {
          "internalType": "uint256",
          "name": "",
          "type": "uint256"
        }
      ],
      "stateMutability": "view",
      "type": "function"
    },
    {
      "inputs": [],
      "name": "MIN_FREQUENCY",
      "outputs": [
        {
          "internalType": "uint256",
          "name": "",
          "type": "uint256"
        }
      ],
      "stateMutability": "view",
      "type": "function"
    },
    {
      "inputs": [],
      "name": "PRECISION",
      "outputs": [
        {
          "internalType": "uint256",
          "name": "",
          "type": "uint256"
        }
      ],
      "stateMutability": "view",
      "type": "function"
    },
    {
      "inputs": [],
      "name": "UPGRADER_ROLE",
      "outputs": [
        {
          "internalType": "bytes32",
          "name": "",
          "type": "bytes32"
        }
      ],
      "stateMutability": "view",
      "type": "function"
    },
    {
      "inputs": [],
      "name": "activateEmergencyMode",
      "outputs": [],
      "stateMutability": "nonpayable",
      "type": "function"
    },
    {
      "inputs": [
        {
          "internalType": "uint256[]",
          "name": "strategyIds",
          "type": "uint256[]"
        }
      ],
      "name": "batchExecuteDCA",
      "outputs": [],
      "stateMutability": "nonpayable",
      "type": "function"
    },
    {
      "inputs": [
        {
          "internalType": "uint256",
          "name": "strategyId",
          "type": "uint256"
        }
      ],
      "name": "cancelDCAStrategy",
      "outputs": [],
      "stateMutability": "nonpayable",
      "type": "function"
    },
    {
      "inputs": [
        {
          "internalType": "address",
          "name": "paymentToken",
          "type": "address"
        },
        {
          "internalType": "address",
          "name": "targetToken",
          "type": "address"
        },
        {
          "internalType": "uint256",
          "name": "amount",
          "type": "uint256"
        },
        {
          "internalType": "uint256",
          "name": "frequency",
          "type": "uint256"
        },
        {
          "internalType": "uint256",
          "name": "startTime",
          "type": "uint256"
        },
        {
          "internalType": "uint256",
          "name": "endTime",
          "type": "uint256"
        }
      ],
      "name": "createDCAStrategy",
      "outputs": [
        {
          "internalType": "uint256",
          "name": "strategyId",
          "type": "uint256"
        }
      ],
      "stateMutability": "nonpayable",
      "type": "function"
    },
    {
      "inputs": [],
      "name": "deactivateEmergencyMode",
      "outputs": [],
      "stateMutability": "nonpayable",
      "type": "function"
    },
    {
      "inputs": [],
      "name": "emergencyMode",
      "outputs": [
        {
          "internalType": "bool",
          "name": "",
          "type": "bool"
        }
      ],
      "stateMutability": "view",
      "type": "function"
    },
    {
      "inputs": [],
      "name": "emergencyTimestamp",
      "outputs": [
        {
          "internalType": "uint256",
          "name": "",
          "type": "uint256"
        }
      ],
      "stateMutability": "view",
      "type": "function"
    },
    {
      "inputs": [
        {
          "internalType": "uint256",
          "name": "strategyId",
          "type": "uint256"
        }
      ],
      "name": "executeDCA",
      "outputs": [
        {
          "components": [
            {
              "internalType": "uint256",
              "name": "amountIn",
              "type": "uint256"
            },
            {
              "internalType": "uint256",
              "name": "amountOut",
              "type": "uint256"
            },
            {
              "internalType": "uint256",
              "name": "price",
              "type": "uint256"
            },
            {
              "internalType": "uint256",
              "name": "timestamp",
              "type": "uint256"
            },
            {
              "internalType": "uint256",
              "name": "gasUsed",
              "type": "uint256"
            }
          ],
          "internalType": "struct IDCAManager.ExecutionResult",
          "name": "result",
          "type": "tuple"
        }
      ],
      "stateMutability": "nonpayable",
      "type": "function"
    },
    {
      "inputs": [],
      "name": "executionFee",
      "outputs": [
        {
          "internalType": "uint256",
          "name": "",
          "type": "uint256"
        }
      ],
      "stateMutability": "view",
      "type": "function"
    },
    {
      "inputs": [],
      "name": "executorReward",
      "outputs": [
        {
          "internalType": "uint256",
          "name": "",
          "type": "uint256"
        }
      ],
      "stateMutability": "view",
      "type": "function"
    },
    {
      "inputs": [],
      "name": "feeRecipient",
      "outputs": [
        {
          "internalType": "address",
          "name": "",
          "type": "address"
        }
      ],
      "stateMutability": "view",
      "type": "function"
    },
    {
      "inputs": [
        {
          "internalType": "uint256",
          "name": "strategyId",
          "type": "uint256"
        }
      ],
      "name": "getDCAStrategy",
      "outputs": [
        {
          "components": [
            {
              "internalType": "address",
              "name": "user",
              "type": "address"
            },
            {
              "internalType": "address",
              "name": "paymentToken",
              "type": "address"
            },
            {
              "internalType": "address",
              "name": "targetToken",
              "type": "address"
            },
            {
              "internalType": "uint256",
              "name": "amount",
              "type": "uint256"
            },
            {
              "internalType": "uint256",
              "name": "frequency",
              "type": "uint256"
            },
            {
              "internalType": "uint256",
              "name": "startTime",
              "type": "uint256"
            },
            {
              "internalType": "uint256",
              "name": "endTime",
              "type": "uint256"
            },
            {
              "internalType": "uint256",
              "name": "lastExecution",
              "type": "uint256"
            },
            {
              "internalType": "uint256",
              "name": "totalInvested",
              "type": "uint256"
            },
            {
              "internalType": "uint256",
              "name": "totalReceived",
              "type": "uint256"
            },
            {
              "internalType": "uint256",
              "name": "executionCount",
              "type": "uint256"
            },
            {
              "internalType": "bool",
              "name": "isActive",
              "type": "bool"
            },
            {
              "internalType": "bool",
              "name": "isPaused",
              "type": "bool"
            }
          ],
          "internalType": "struct IDCAManager.DCAStrategy",
          "name": "",
          "type": "tuple"
        }
      ],
      "stateMutability": "view",
      "type": "function"
    },
    {
      "inputs": [],
      "name": "getExecutableStrategies",
      "outputs": [
        {
          "internalType": "uint256[]",
          "name": "",
          "type": "uint256[]"
        }
      ],
      "stateMutability": "view",
      "type": "function"
    },
    {
      "inputs": [
        {
          "internalType": "bytes32",
          "name": "role",
          "type": "bytes32"
        }
      ],
      "name": "getRoleAdmin",
      "outputs": [
        {
          "internalType": "bytes32",
          "name": "",
          "type": "bytes32"
        }
      ],
      "stateMutability": "view",
      "type": "function"
    },
    {
      "inputs": [
        {
          "internalType": "uint256",
          "name": "strategyId",
          "type": "uint256"
        }
      ],
      "name": "getStrategyStats",
      "outputs": [
        {
          "internalType": "uint256",
          "name": "totalInvested",
          "type": "uint256"
        },
        {
          "internalType": "uint256",
          "name": "totalReceived",
          "type": "uint256"
        },
        {
          "internalType": "uint256",
          "name": "averagePrice",
          "type": "uint256"
        },
        {
          "internalType": "uint256",
          "name": "executionCount",
          "type": "uint256"
        },
        {
          "internalType": "uint256",
          "name": "nextExecution",
          "type": "uint256"
        }
      ],
      "stateMutability": "view",
      "type": "function"
    },
    {
      "inputs": [
        {
          "internalType": "address",
          "name": "user",
          "type": "address"
        }
      ],
      "name": "getUserStrategies",
      "outputs": [
        {
          "internalType": "uint256[]",
          "name": "",
          "type": "uint256[]"
        }
      ],
      "stateMutability": "view",
      "type": "function"
    },
    {
      "inputs": [
        {
          "internalType": "bytes32",
          "name": "role",
          "type": "bytes32"
        },
        {
          "internalType": "address",
          "name": "account",
          "type": "address"
        }
      ],
      "name": "grantRole",
      "outputs": [],
      "stateMutability": "nonpayable",
      "type": "function"
    },
    {
      "inputs": [
        {
          "internalType": "bytes32",
          "name": "role",
          "type": "bytes32"
        },
        {
          "internalType": "address",
          "name": "account",
          "type": "address"
        }
      ],
      "name": "hasRole",
      "outputs": [
        {
          "internalType": "bool",
          "name": "",
          "type": "bool"
        }
      ],
      "stateMutability": "view",
      "type": "function"
    },
    {
      "inputs": [
        {
          "internalType": "address",
          "name": "_penGxToken",
          "type": "address"
        },
        {
          "internalType": "address",
          "name": "_oracleAggregator",
          "type": "address"
        },
        {
          "internalType": "address",
          "name": "_feeRecipient",
          "type": "address"
        },
        {
          "internalType": "uint256",
          "name": "_executionFee",
          "type": "uint256"
        },
        {
          "internalType": "uint256",
          "name": "_platformFee",
          "type": "uint256"
        }
      ],
      "name": "initialize",
      "outputs": [],
      "stateMutability": "nonpayable",
      "type": "function"
    },
    {
      "inputs": [
        {
          "internalType": "uint256",
          "name": "strategyId",
          "type": "uint256"
        }
      ],
      "name": "isExecutable",
      "outputs": [
        {
          "internalType": "bool",
          "name": "",
          "type": "bool"
        }
      ],
      "stateMutability": "view",
      "type": "function"
    },
    {
      "inputs": [],
      "name": "maxGasPrice",
      "outputs": [
        {
          "internalType": "uint256",
          "name": "",
          "type": "uint256"
        }
      ],
      "stateMutability": "view",
      "type": "function"
    },
    {
      "inputs": [],
      "name": "oracleAggregator",
      "outputs": [
        {
          "internalType": "contract IOracleAggregator",
          "name": "",
          "type": "address"
        }
      ],
      "stateMutability": "view",
      "type": "function"
    },
    {
      "inputs": [
        {
          "internalType": "uint256",
          "name": "strategyId",
          "type": "uint256"
        }
      ],
      "name": "pauseDCAStrategy",
      "outputs": [],
      "stateMutability": "nonpayable",
      "type": "function"
    },
    {
      "inputs": [],
      "name": "paused",
      "outputs": [
        {
          "internalType": "bool",
          "name": "",
          "type": "bool"
        }
      ],
      "stateMutability": "view",
      "type": "function"
    },
    {
      "inputs": [],
      "name": "penGxToken",
      "outputs": [
        {
          "internalType": "address",
          "name": "",
          "type": "address"
        }
      ],
      "stateMutability": "view",
      "type": "function"
    },
    {
      "inputs": [],
      "name": "platformFee",
      "outputs": [
        {
          "internalType": "uint256",
          "name": "",
          "type": "uint256"
        }
      ],
      "stateMutability": "view",
      "type": "function"
    },
    {
      "inputs": [],
      "name": "proxiableUUID",
      "outputs": [
        {
          "internalType": "bytes32",
          "name": "",
          "type": "bytes32"
        }
      ],
      "stateMutability": "view",
      "type": "function"
    },
    {
      "inputs": [
        {
          "internalType": "bytes32",
          "name": "role",
          "type": "bytes32"
        },
        {
          "internalType": "address",
          "name": "account",
          "type": "address"
        }
      ],
      "name": "renounceRole",
      "outputs": [],
      "stateMutability": "nonpayable",
      "type": "function"
    },
    {
      "inputs": [
        {
          "internalType": "uint256",
          "name": "strategyId",
          "type": "uint256"
        }
      ],
      "name": "resumeDCAStrategy",
      "outputs": [],
      "stateMutability": "nonpayable",
      "type": "function"
    },
    {
      "inputs": [
        {
          "internalType": "bytes32",
          "name": "role",
          "type": "bytes32"
        },
        {
          "internalType": "address",
          "name": "account",
          "type": "address"
        }
      ],
      "name": "revokeRole",
      "outputs": [],
      "stateMutability": "nonpayable",
      "type": "function"
    },
    {
      "inputs": [
        {
          "internalType": "uint256",
          "name": "_executorReward",
          "type": "uint256"
        }
      ],
      "name": "setExecutorReward",
      "outputs": [],
      "stateMutability": "nonpayable",
      "type": "function"
    },
    {
      "inputs": [
        {
          "internalType": "uint256",
          "name": "_executionFee",
          "type": "uint256"
        },
        {
          "internalType": "uint256",
          "name": "_platformFee",
          "type": "uint256"
        }
      ],
      "name": "setFees",
      "outputs": [],
      "stateMutability": "nonpayable",
      "type": "function"
    },
    {
      "inputs": [
        {
          "internalType": "address",
          "name": "token",
          "type": "address"
        },
        {
          "internalType": "bool",
          "name": "supported",
          "type": "bool"
        }
      ],
      "name": "setSupportedToken",
      "outputs": [],
      "stateMutability": "nonpayable",
      "type": "function"
    },
    {
      "inputs": [
        {
          "internalType": "uint256",
          "name": "",
          "type": "uint256"
        }
      ],
      "name": "strategies",
      "outputs": [
        {
          "internalType": "address",
          "name": "user",
          "type": "address"
        },
        {
          "internalType": "address",
          "name": "paymentToken",
          "type": "address"
        },
        {
          "internalType": "address",
          "name": "targetToken",
          "type": "address"
        },
        {
          "internalType": "uint256",
          "name": "amount",
          "type": "uint256"
        },
        {
          "internalType": "uint256",
          "name": "frequency",
          "type": "uint256"
        },
        {
          "internalType": "uint256",
          "name": "startTime",
          "type": "uint256"
        },
        {
          "internalType": "uint256",
          "name": "endTime",
          "type": "uint256"
        },
        {
          "internalType": "uint256",
          "name": "lastExecution",
          "type": "uint256"
        },
        {
          "internalType": "uint256",
          "name": "totalInvested",
          "type": "uint256"
        },
        {
          "internalType": "uint256",
          "name": "totalReceived",
          "type": "uint256"
        },
        {
          "internalType": "uint256",
          "name": "executionCount",
          "type": "uint256"
        },
        {
          "internalType": "bool",
          "name": "isActive",
          "type": "bool"
        },
        {
          "internalType": "bool",
          "name": "isPaused",
          "type": "bool"
        }
      ],
      "stateMutability": "view",
      "type": "function"
    },
    {
      "inputs": [],
      "name": "strategyCounter",
      "outputs": [
        {
          "internalType": "uint256",
          "name": "",
          "type": "uint256"
        }
      ],
      "stateMutability": "view",
      "type": "function"
    },
    {
      "inputs": [
        {
          "internalType": "address",
          "name": "",
          "type": "address"
        }
      ],
      "name": "supportedTokens",
      "outputs": [
        {
          "internalType": "bool",
          "name": "",
          "type": "bool"
        }
      ],
      "stateMutability": "view",
      "type": "function"
    },
    {
      "inputs": [
        {
          "internalType": "bytes4",
          "name": "interfaceId",
          "type": "bytes4"
        }
      ],
      "name": "supportsInterface",
      "outputs": [
        {
          "internalType": "bool",
          "name": "",
          "type": "bool"
        }
      ],
      "stateMutability": "view",
      "type": "function"
    },
    {
      "inputs": [],
      "name": "totalValueLocked",
      "outputs": [
        {
          "internalType": "uint256",
          "name": "",
          "type": "uint256"
        }
      ],
      "stateMutability": "view",
      "type": "function"
    },
    {
      "inputs": [
        {
          "internalType": "uint256",
          "name": "strategyId",
          "type": "uint256"
        },
        {
          "internalType": "uint256",
          "name": "newAmount",
          "type": "uint256"
        },
        {
          "internalType": "uint256",
          "name": "newFrequency",
          "type": "uint256"
        },
        {
          "internalType": "uint256",
          "name": "newEndTime",
          "type": "uint256"
        }
      ],
      "name": "updateDCAStrategy",
      "outputs": [],
      "stateMutability": "nonpayable",
      "type": "function"
    },
    {
      "inputs": [
        {
          "internalType": "address",
          "name": "newImplementation",
          "type": "address"
        }
      ],
      "name": "upgradeTo",
      "outputs": [],
      "stateMutability": "nonpayable",
      "type": "function"
    },
    {
      "inputs": [
        {
          "internalType": "address",
          "name": "newImplementation",
          "type": "address"
        },
        {
          "internalType": "bytes",
          "name": "data",
          "type": "bytes"
        }
      ],
      "name": "upgradeToAndCall",
      "outputs": [],
      "stateMutability": "payable",
      "type": "function"
    },
    {
      "inputs": [
        {
          "internalType": "address",
          "name": "",
          "type": "address"
        },
        {
          "internalType": "uint256",
          "name": "",
          "type": "uint256"
        }
      ],
      "name": "userStrategies",
      "outputs": [
        {
          "internalType": "uint256",
          "name": "",
          "type": "uint256"
        }
      ],
      "stateMutability": "view",
      "type": "function"
    }
  ],
  "bytecode": "0x60a08060405234620000e157306080526000549060ff8260081c166200008f575060ff8082160362000053575b6040516137c99081620000e782396080518181816116df0152818161180b0152611b640152f35b60ff90811916176000557f7f26b83ff96e1f2b6a682f133852f6798a09c465da95921460cefb3847402498602060405160ff8152a1386200002c565b62461bcd60e51b815260206004820152602760248201527f496e697469616c697a61626c653a20636f6e747261637420697320696e697469604482015266616c697a696e6760c81b6064820152608490fd5b600080fdfe60808060405260048036101561001457600080fd5b60003560e01c91826301ffc9a7146126495750816307bd02651461260e57816307dfa2f2146124c85781630905f560146124a45781630b78f9c01461244c5781631f7d568914611fde57816320df435914611fa3578163248a9ca314611f7657816326232a2e14611f575781632b0e892a14611eac5781632bddb8ba14611b1b5781632f2ff15d14611e0d57816331372c1a14611dc157816336568abe14611d325781633659cfe614611b3f5781633de39c1114611b205781633e65164a14611b1b5781633e9f9e4914611ac257816340e9903b14611aa35781634690484014611a795781634e395e2a14611a525781634f1ef2861461178f57816352d1902d146116cc5781635c975abb146116a95781635d4e81b21461154f57816368c4ac261461150f57816379f02fd4146114865781637ea96c5e1461140f5781638dffe3f4146113e557816391c532ba14610fdc57816391d1485414610f9057816399b20eaf14610ec75781639a3499a514610e2d5781639e05f81d14610db1578163a217fddf14610d95578163a6b63eb814610942578163aaf5eb681461091f578163ae350b9214610800578163b4b460d0146107e1578163b57c80a4146107c2578163c9633fb914610798578163cd87e5e5146105cf578163d00960101461053b578163d40dc8701461051b578163d547741f146104db578163d574ea3d1461041357508063ddbcb5fa146103f5578063e798646614610368578063ec18154e14610349578063ec87621c1461030e578063f7088bc6146102ef578063f72c0d8b146102b4578063f9759518146102975763ffb9feb31461027357600080fd5b3461029257600036600319011261029257602061016254604051908152f35b600080fd5b346102925760003660031901126102925760206040516101f48152f35b346102925760003660031901126102925760206040517f189ab7a9244df0848122154315af71fe140f3db0fe014031783b0946b8c9d2e38152f35b3461029257600036600319011261029257602061016a54604051908152f35b346102925760003660031901126102925760206040517f241ecf16d79d0f8dbfb92cbc07fe17840425976cf0667f022fe9877caa831b088152f35b3461029257600036600319011261029257602061016554604051908152f35b3461029257604036600319011261029257610381612709565b6024359081151591828103610292577fbbe72b7d9dcb594ee398a4a617885aba53d833e2aad601c813ce9df99fdeb49b926103e86040936103c0612812565b60018060a01b03169283600052610161602052846000209060ff801983541691151516179055565b82519182526020820152a1005b34610292576000366003190112610292576020604051620f42408152f35b3461029257602036600319011261029257806101a0913560005261015f60205260ff604060002060018060a01b039081815416938260018301541692600283015416906003830154908301546005840154600685015490600786015492600887015494600988015496600b600a8a0154990154996040519c8d5260208d015260408c015260608b015260808a015260a089015260c088015260e0870152610100860152610120850152610140840152818116151561016084015260081c161515610180820152f35b346102925760403660031901126102925761051990356104f96126f3565b90806000526065602052610514600160406000200154612dfa565b612f53565b005b3461029257600036600319011261029257602060405164e8d4a510008152f35b3461029257600036600319011261029257610554612cb4565b600160ff1961016b82828254161790554261016c55610571613390565b60c954161760c9557f62e78cea01bee320cd4e420270b5ea74000d11b0c9f74754ebdbfc544b05a2586020604051338152a17f5fa9abb83376468762d4533d9cd0a8f21edf0033fa06b47347578fb235a92edc6020604051428152a1005b34610292576020366003190112610292576101a09060006101806040516105f58161277f565b8281528260208201528260408201528260608201528260808201528260a08201528260c08201528260e0820152826101008201528261012082015282610140820152826101608201520152803560005261015f602052610180604060002060ff600b604051926106648461277f565b60018060a01b038154169586855260018060a01b03600183015416602086015260018060a01b036002830154166040860152600382015460608601528101546080850152600581015460a0850152600681015460c0850152600781015460e085015260088101546101008501526009810154610120850152600a8101546101408501520154818116151561016084015260081c1615158282015260405192835260018060a01b03602082015116602084015260018060a01b036040820151166040840152606081015160608401526080810151608084015260a081015160a084015260c081015160c084015260e081015160e0840152610100810151610100840152610120810151610120840152610140810151610140840152610160810151151561016084015201511515610180820152f35b3461029257600036600319011261029257610167546040516001600160a01b039091168152602090f35b346102925760003660031901126102925760206040516301e133808152f35b3461029257600036600319011261029257602061016c54604051908152f35b3461029257602090816003193601126102925780359067ffffffffffffffff9283831161029257366023840112156102925782820135938411610292576024600592368287861b8701011161029257610857612a28565b61085f6133d4565b610867613390565b60005b868110610878576001609755005b604051631f7d568960e01b815281861b8701840135838201529060a0808386816000305af190816108bd575b506108b392506108b857613381565b61086a565b613381565b83813d8311610918575b6108d181836127d4565b81010312610292576040516108b3936108e98261274d565b8051825287810151888301526040810151604083015260608082015190830152608080910151910152896108a4565b503d6108c7565b34610292576000366003190112610292576020604051670de0b6b3a76400008152f35b346102925760a03660031901126102925761095b612709565b906109646126f3565b6001600160a01b039290919060443584811690819003610292576000549360ff95868660081c161594858096610d89575b8015610d73575b15610d18575060019660ff1996868989831617600055610d06575b50610a018160005460081c166109cc81613321565b6109d581613321565b6109de81613321565b896097556109eb81613321565b6109f481613321565b8860c9541660c955613321565b3360009081527fffdfc1249c027f9191656349feb0761381bb32c9f557e01f419fd08754bf5a1b6020908152604090912054909790606590831615610ccc575b7f241ecf16d79d0f8dbfb92cbc07fe17840425976cf0667f022fe9877caa831b0880600052818a526040600020336000528a52836040600020541615610c90575b507fd8aa0f3194971a2a116679f7c2090f6939c8d4e01a2a8d7e41d55e5351469e6380600052818a526040600020336000528a52836040600020541615610c54575b507f189ab7a9244df0848122154315af71fe140f3db0fe014031783b0946b8c9d2e380600052818a526040600020336000528a52836040600020541615610c18575b507fbf233dd2aafeb4d50879c4aa5c81e96d92f6e6945c906a58f9f2d1c1631b4b269283600052818a526040600020336000528a526040600020541615610bdb575b5050506bffffffffffffffffffffffff60a01b938161016791168582541617905561016891168382541617905561016691825416179055606435610163556084356101645564174876e80061016955620f424061016a55610ba557005b7f7f26b83ff96e1f2b6a682f133852f6798a09c465da95921460cefb38474024989161ff001960005416600055604051908152a1005b82600052885260406000203360005288528860406000209182541617905533903390600080516020613754833981519152600080a4878080610b48565b80600052818a526040600020336000528a5260406000208b8482541617905533903390600080516020613754833981519152600080a48a610b06565b80600052818a526040600020336000528a5260406000208b8482541617905533903390600080516020613754833981519152600080a48a610ac4565b80600052818a526040600020336000528a5260406000208b8482541617905533903390600080516020613754833981519152600080a48a610a82565b60008052808952604060002033600052895260406000208a83825416179055333360006000805160206137548339815191528180a4610a41565b61ffff191661010117600055886109b7565b60849060206040519162461bcd60e51b8352820152602e60248201527f496e697469616c697a61626c653a20636f6e747261637420697320616c72656160448201526d191e481a5b9a5d1a585b1a5e995960921b6064820152fd5b50303b15801561099c575060018888161461099c565b50600188881610610995565b3461029257600036600319011261029257602060405160008152f35b34610292576020366003190112610292578035600081815261015f602052604090208054919290916001600160a01b03163303610e1e5750600b01805461ffff1916905533907f21e684f14db8a9e5f70c281db2f834c92584a08781029daeb5ef69ed23d467fc600080a3005b6040516302a43f8b60e01b8152fd5b34610292576020366003190112610292578035600081815261015f6020526040902080549192916001600160a01b03163303610eb757600b019081549060ff821615610ea8575061ff00191661010017905533907f5ef848bee91bfaea633e66240f6bd53abb7d121e6f6ccef2a22d0906d26bb2e7600080a3005b604051631b92e95360e31b8152fd5b506040516302a43f8b60e01b8152fd5b3461029257600036600319011261029257610ee0612cb4565b60ff199061016b82815416905560c9549060ff821615610f5557501660c9557f5db9ee0a495bf2e6ff9c91a7834c1ba4fdd244a5e8aa4e537bd38aeae4b073aa6020604051338152a17f2ea256b6b50650528fb4b384ca1e851487ce92d001640e4b0d904216488348356020604051428152a1005b60649060206040519162461bcd60e51b8352820152601460248201527314185d5cd8589b194e881b9bdd081c185d5cd95960621b6044820152fd5b3461029257604036600319011261029257610fa96126f3565b9035600052606560205260406000209060018060a01b0316600052602052602060ff604060002054166040519015158152f35b346102925760c036600319011261029257610ff5612709565b610ffd6126f3565b906110066133d4565b61100e613390565b60ff61016b54166113d4576001600160a01b0381166000908152610161602052604090205460ff16156113c357610167546001600160a01b03908116908316036113c357620f42406044351080156113b3575b6113a257610e10606435108015611393575b6113825742608435106113635760a435151580611374575b611363576040516370a0823160e01b815233848201526020816024816001600160a01b0386165afa90811561135757600091611325575b5060443511611314576110d761016254613381565b9182610162556040516110e98161277f565b33815260018060a01b038316602082015260018060a01b03821660408201526044356060820152606435608082015260843560a082015260a43560c0820152600060e0820152600061010082015260006101208201526000610140820152600161016082015260006101808201528360005261015f602052610180600b604060002060018060a01b038451166bffffffffffffffffffffffff60a01b90818354161782556001820160018060a01b0360208701511682825416179055600282019060018060a01b03604087015116908254161790556060840151600382015560808401518882015560a0840151600582015560c0840151600682015560e0840151600782015561010084015160088201556101208401516009820155610140840151600a820155019161122f6101608201511515849060ff801983541691151516179055565b0151151561ff0082549160081b169061ff001916179055336000526101606020526040600020805494680100000000000000008610156112ff57508461127c91600160209701815561271f565b81549060031b9085821b91600019901b19161790556040519160018060a01b0316825260018060a01b03168382015260443560408201526064356060820152608435608082015260a43560a0820152817f10719031ae4da5c07e4543d4d8927fcb840cc951d703d9684738d06bc975ec3560c03393a36001609755604051908152f35b604190634e487b7160e01b6000525260246000fd5b604051631e9acf1760e31b81528390fd5b90506020813d60201161134f575b81611340602093836127d4565b810103126102925751846110c2565b3d9150611333565b6040513d6000823e3d90fd5b60405163b7d0949760e01b81528390fd5b5060843560a435111561108b565b60405163e3c2448f60e01b81528390fd5b506301e1338060643511611073565b60405163162908e360e11b81528390fd5b5064e8d4a5100060443511611061565b60405163350b944160e11b81528390fd5b6040516319e1bef560e01b81528390fd5b3461029257600036600319011261029257610168546040516001600160a01b039091168152602090f35b34610292576020366003190112610292578035600081815261015f6020526040902080549192916001600160a01b03163303610eb757600b019081549060ff821615610ea8575061ff001916905533907fbc11a5c82a871c29dfbb6e50d602b2832c871bb937bff5aa59b61d74d27576d9600080a3005b3461029257602080600319360112610292576001600160a01b036114a8612709565b166000526101608152604060002090604051908181845491828152019360005281600020916000905b8282106114f8576114f4856114e8818903826127d4565b6040519182918261269b565b0390f35b8354865294850194600193840193909101906114d1565b34610292576020366003190112610292576001600160a01b03611530612709565b16600052610161602052602060ff604060002054166040519015158152f35b34610292576020366003190112610292576000813560005261015f60205260406000206040519061157f8261277f565b60018060a01b03808254168352806001830154166020840152600282015416604083015260038101546060830152838101549260808301938452600582015460a08401908152600683015460c085015260078301549460e08501958652600884015495866101008701526009850154958661012082015261018060ff600b600a89015498896101408601520154818116151561016085015260081c16151591015285611665575b5160a0975090811561165c5761163e92505190613205565b925b6040519485526020850152604084015260608301526080820152f35b50505192611640565b9250670de0b6b3a764000096878702978789041487151715611694575061168e8560a09861342a565b92611626565b601190634e487b7160e01b6000525260246000fd5b3461029257600036600319011261029257602060ff60c954166040519015158152f35b34610292576000366003190112610292577f00000000000000000000000000000000000000000000000000000000000000006001600160a01b031630036117255760206040516000805160206137748339815191528152f35b60849060206040519162461bcd60e51b8352820152603860248201527f555550535570677261646561626c653a206d757374206e6f742062652063616c60448201527f6c6564207468726f7567682064656c656761746563616c6c00000000000000006064820152fd5b6040366003190112610292576117a3612709565b6024359167ffffffffffffffff8311610292573660238401121561029257828101356117ce816127f6565b936117dc60405195866127d4565b818552602091828601913660248383010111610292578160009260248693018537870101526001600160a01b037f000000000000000000000000000000000000000000000000000000000000000081169061183930831415612fc9565b61185660008051602061377483398151915292828454161461302a565b61185e612b6e565b7f4910fdfa16fed3260ed0e7147f7cc6da11a60208b5b9406d12a635614ffd91435460ff1615611897575050505050610519915061308b565b8593949516906040516352d1902d60e01b815285818881865afa60009181611a23575b5061191a5760405162461bcd60e51b8152808801879052602e60248201527f45524331393637557067726164653a206e657720696d706c656d656e7461746960448201526d6f6e206973206e6f74205555505360901b6064820152608490fd5b959192939495036119cd575061192f8361308b565b7fbc7cd75a20ee27fd9adebab32041f755214dbc6bffa90cc0225b39da2e5c2d3b600080a28351158015906119c5575b61196557005b60008091610519957f416464726573733a206c6f772d6c6576656c2064656c65676174652063616c6c6040519661199b8861279c565b60278852870152660819985a5b195960ca1b60408701525190845af46119bf61311b565b9161314b565b50600161195f565b60405162461bcd60e51b8152908101859052602960248201527f45524331393637557067726164653a20756e737570706f727465642070726f786044820152681a58589b195555525160ba1b6064820152608490fd5b9091508681813d8311611a4b575b611a3b81836127d4565b81010312610292575190896118ba565b503d611a31565b3461029257602036600319011261029257611a6f602091356135b2565b6040519015158152f35b3461029257600036600319011261029257610166546040516001600160a01b039091168152602090f35b3461029257600036600319011261029257602061016354604051908152f35b3461029257604036600319011261029257611adb612709565b6001600160a01b03166000908152610160602052604090208054602435919082101561029257602091611b0d9161271f565b90546040519160031b1c8152f35b6126d6565b3461029257600036600319011261029257602061016954604051908152f35b34610292576020908160031936011261029257611b5a612709565b6001600160a01b037f000000000000000000000000000000000000000000000000000000000000000081169391929190611b9630861415612fc9565b611bb360008051602061377483398151915295828754161461302a565b611bbb612b6e565b604051948286019186831067ffffffffffffffff841117611d1d57826040526000875260ff7f4910fdfa16fed3260ed0e7147f7cc6da11a60208b5b9406d12a635614ffd91435416600014611c19575050505050610519915061308b565b8593949516906040516352d1902d60e01b815285818881865afa60009181611cee575b50611c9c5760405162461bcd60e51b8152808801879052602e60248201527f45524331393637557067726164653a206e657720696d706c656d656e7461746960448201526d6f6e206973206e6f74205555505360901b6064820152608490fd5b959192939495036119cd5750611cb18361308b565b7fbc7cd75a20ee27fd9adebab32041f755214dbc6bffa90cc0225b39da2e5c2d3b600080a2835115801590611ce65761196557005b50600061195f565b9091508681813d8311611d16575b611d0681836127d4565b8101031261029257519089611c3c565b503d611cfc565b604185634e487b7160e01b6000525260246000fd5b3461029257604036600319011261029257611d4b6126f3565b336001600160a01b03821603611d65576105199135612f53565b60405162461bcd60e51b8152602081840152602f60248201527f416363657373436f6e74726f6c3a2063616e206f6e6c792072656e6f756e636560448201526e103937b632b9903337b91039b2b63360891b6064820152608490fd5b346102925760203660031901126102925760207f5005995b64642bfdf45d8bbd708680d710062ff684718ff5a4422f1083fb7b4a9135611dff612812565b8061016a55604051908152a1005b346102925760403660031901126102925735611e276126f3565b816000526065602052611e41600160406000200154612dfa565b81600052606560205260406000209060018060a01b0316908160005260205260ff6040600020541615611e7057005b8160005260656020526040600020816000526020526040600020600160ff198254161790553391600080516020613754833981519152600080a4005b3461029257600036600319011261029257610162546000611ecc8261370d565b9160015b81811115611f20575050611ee38161370d565b9160005b828110611efc57604051806114f4868261269b565b80611f0a611f1b928461373f565b51611f15828761373f565b52613381565b611ee7565b611f29816135b2565b611f3c575b611f3790613381565b611ed0565b91611f4f8184611f15611f37948861373f565b929050611f2e565b3461029257600036600319011261029257602061016454604051908152f35b34610292576020366003190112610292573560005260656020526020600160406000200154604051908152f35b346102925760003660031901126102925760206040517fbf233dd2aafeb4d50879c4aa5c81e96d92f6e6945c906a58f9f2d1c1631b4b268152f35b346102925760203660031901126102925760006080604051611fff8161274d565b828152826020820152826040820152826060820152015261201e612a28565b6120266133d4565b61202e613390565b60ff61016b541661243d57610169543a1161242e578035600090815261015f6020526040902080546001600160a01b031690811561241d57600b81015460ff81161590811561240f575b506123fe5761208783356135b2565b156123ed57825a6101685460408051638e15f47360e01b815293909184919082906001600160a01b03165afa918215611357576000926123b9575b5060018301546040516370a0823160e01b8152868101869052946001600160a01b0390911690602086602481855afa95861561135757600096612385575b506003850191825480971061237457670de0b6b3a764000080880290888204148815171561235f579261217961223e938796936121456121a99b9a9960a09d9861342a565b99604051926323b872dd60e01b602085015260248401523060448401526064830152606482526121748261274d565b6134a9565b546121ae612710918261218f61016354836131dc565b04998a936121a061016454846131dc565b0493849261344a565b61344a565b976001808b1b0360018801541690426007890155600888016121d18b8254613205565b9055600988016121e28a8254613205565b9055600a88016121f28154613381565b90558061231a575b5050806122f5575b506002850154855461222291889160001960018d1b019081169116613457565b600685015480151590816122ea575b506122d9575b5a9061344a565b936040519561224c8761274d565b8087527f4633a6c90bb82b10abb04dc335198bf7e94ea974b35c347baf4f546a7c3d1b706080602089019484865260408a019680885260608b0198428a52838c019a8b526001808e1b0390541695604051958652602086015260408501524260608501523592a3600160975560405194518552516020850152516040840152516060830152516080820152f35b600b8501805460ff19169055612237565b905042101589612231565b6001868101546101665461231493928c1b600019019081169116613457565b88612202565b6123589161232f61016a918254903390613457565b6123526001808e1b0360018b015416926001808f1b03610166541692549061344a565b91613457565b89806121fa565b601189634e487b7160e01b6000525260246000fd5b604051631e9acf1760e31b81528890fd5b9095506020813d6020116123b1575b816123a1602093836127d4565b8101031261029257519487612100565b3d9150612394565b9091506040813d6040116123e5575b816123d5604093836127d4565b81010312610292575190856120c2565b3d91506123c8565b60405163208afba360e21b81528390fd5b604051631b92e95360e31b81528390fd5b60ff915060081c1684612078565b604051632df15a4160e11b81528390fd5b60405163317ed41360e21b8152fd5b6040516319e1bef560e01b8152fd5b346102925760403660031901126102925760407f5c6323bf1c2d7aaea2c091a4751c1c87af7f2864650c336507a77d0557af37a1913560243561248d612812565b8161016355806101645582519182526020820152a1005b3461029257600036600319011261029257602060ff61016b54166040519015158152f35b34610292576080366003190112610292578035906024359060443591606435928460005261015f60205260406000209160018060a01b0383541633036125fd5760ff600b84015416156125ec57806125b1575b5080612589575b506006019081548303612559575b33847f3b994499e83d5aa77db58cf283e305b325df461a6428c66f7dbe4ba38958f664600080a3005b8215158061257f575b612570575055818080612530565b60405163b7d0949760e01b8152fd5b5042831115612562565b610e10811080156125a4575b61138257828201556006612522565b506301e133808111612595565b620f4240811080156125de575b6125cd5760038301558561251b565b60405163162908e360e11b81528490fd5b5064e8d4a5100081116125be565b604051631b92e95360e31b81528490fd5b6040516302a43f8b60e01b81528490fd5b346102925760003660031901126102925760206040517fd8aa0f3194971a2a116679f7c2090f6939c8d4e01a2a8d7e41d55e5351469e638152f35b903461029257602036600319011261029257359063ffffffff60e01b821680920361029257602091637965db0b60e01b811490811561268a575b5015158152f35b6301ffc9a760e01b14905083612683565b6020908160408183019282815285518094520193019160005b8281106126c2575050505090565b8351855293810193928101926001016126b4565b34610292576000366003190112610292576020604051610e108152f35b602435906001600160a01b038216820361029257565b600435906001600160a01b038216820361029257565b80548210156127375760005260206000200190600090565b634e487b7160e01b600052603260045260246000fd5b60a0810190811067ffffffffffffffff82111761276957604052565b634e487b7160e01b600052604160045260246000fd5b6101a0810190811067ffffffffffffffff82111761276957604052565b6060810190811067ffffffffffffffff82111761276957604052565b6080810190811067ffffffffffffffff82111761276957604052565b90601f8019910116810190811067ffffffffffffffff82111761276957604052565b67ffffffffffffffff811161276957601f01601f191660200190565b3360009081527fcee91eb23e767f0f440dd9fce5554f355614443931e9ac5ce78c67b9e06e6f7060209081526040808320549092907f241ecf16d79d0f8dbfb92cbc07fe17840425976cf0667f022fe9877caa831b089060ff16156128775750505050565b61288033613223565b84519161288c836127b8565b60428352848301936060368637835115612a145760308553835190600191821015612a145790607860218601536041915b8183116129a6575050506129645761291293859361294a9361293b6048946129609951988576020b1b1b2b9b9a1b7b73a3937b61d1030b1b1b7bab73a1604d1b8b978801528251928391603789019101612f04565b8401917001034b99036b4b9b9b4b733903937b6329607d1b603784015251809386840190612f04565b010360288101855201836127d4565b5162461bcd60e51b815291829160048301612f27565b0390fd5b60648486519062461bcd60e51b825280600483015260248201527f537472696e67733a20686578206c656e67746820696e73756666696369656e746044820152fd5b909192600f81166010811015612a00576f181899199a1a9b1b9c1cb0b131b232b360811b901a6129d68588613212565b5360041c9280156129ec576000190191906128bd565b634e487b7160e01b82526011600452602482fd5b634e487b7160e01b83526032600452602483fd5b634e487b7160e01b81526032600452602490fd5b3360009081527f7dc9f88e569f94faad6fa0d44dd44858caf3f34f1bd1c985800aedf5793aad8b60209081526040808320549092907fd8aa0f3194971a2a116679f7c2090f6939c8d4e01a2a8d7e41d55e5351469e639060ff1615612a8d5750505050565b612a9633613223565b845191612aa2836127b8565b60428352848301936060368637835115612a145760308553835190600191821015612a145790607860218601536041915b818311612b28575050506129645761291293859361294a9361293b6048946129609951988576020b1b1b2b9b9a1b7b73a3937b61d1030b1b1b7bab73a1604d1b8b978801528251928391603789019101612f04565b909192600f81166010811015612a00576f181899199a1a9b1b9c1cb0b131b232b360811b901a612b588588613212565b5360041c9280156129ec57600019019190612ad3565b3360009081527f61c6261e6978331c793eee420d743e773864e0ec05cc862750e423d64f73e9f660209081526040808320549092907f189ab7a9244df0848122154315af71fe140f3db0fe014031783b0946b8c9d2e39060ff1615612bd35750505050565b612bdc33613223565b845191612be8836127b8565b60428352848301936060368637835115612a145760308553835190600191821015612a145790607860218601536041915b818311612c6e575050506129645761291293859361294a9361293b6048946129609951988576020b1b1b2b9b9a1b7b73a3937b61d1030b1b1b7bab73a1604d1b8b978801528251928391603789019101612f04565b909192600f81166010811015612a00576f181899199a1a9b1b9c1cb0b131b232b360811b901a612c9e8588613212565b5360041c9280156129ec57600019019190612c19565b3360009081527fc57d9802aee869cbd4c03d3a8034c574f9fbd772a0757a15f0d331d6c16c69d760209081526040808320549092907fbf233dd2aafeb4d50879c4aa5c81e96d92f6e6945c906a58f9f2d1c1631b4b269060ff1615612d195750505050565b612d2233613223565b845191612d2e836127b8565b60428352848301936060368637835115612a145760308553835190600191821015612a145790607860218601536041915b818311612db4575050506129645761291293859361294a9361293b6048946129609951988576020b1b1b2b9b9a1b7b73a3937b61d1030b1b1b7bab73a1604d1b8b978801528251928391603789019101612f04565b909192600f81166010811015612a00576f181899199a1a9b1b9c1cb0b131b232b360811b901a612de48588613212565b5360041c9280156129ec57600019019190612d5f565b600081815260209060658252604092838220338352835260ff848320541615612e235750505050565b612e2c33613223565b845191612e38836127b8565b60428352848301936060368637835115612a145760308553835190600191821015612a145790607860218601536041915b818311612ebe575050506129645761291293859361294a9361293b6048946129609951988576020b1b1b2b9b9a1b7b73a3937b61d1030b1b1b7bab73a1604d1b8b978801528251928391603789019101612f04565b909192600f81166010811015612a00576f181899199a1a9b1b9c1cb0b131b232b360811b901a612eee8588613212565b5360041c9280156129ec57600019019190612e69565b60005b838110612f175750506000910152565b8181015183820152602001612f07565b60409160208252612f478151809281602086015260208686019101612f04565b601f01601f1916010190565b906000918083526065602052604083209160018060a01b03169182845260205260ff604084205416612f8457505050565b8083526065602052604083208284526020526040832060ff1981541690557ff6391f5c32d9c69d2a47ea670b442974b53935d1edc7fd64eb21e047a839171b339380a4565b15612fd057565b60405162461bcd60e51b815260206004820152602c60248201527f46756e6374696f6e206d7573742062652063616c6c6564207468726f7567682060448201526b19195b1959d85d1958d85b1b60a21b6064820152608490fd5b1561303157565b60405162461bcd60e51b815260206004820152602c60248201527f46756e6374696f6e206d7573742062652063616c6c6564207468726f7567682060448201526b6163746976652070726f787960a01b6064820152608490fd5b803b156130c05760008051602061377483398151915280546001600160a01b0319166001600160a01b03909216919091179055565b60405162461bcd60e51b815260206004820152602d60248201527f455243313936373a206e657720696d706c656d656e746174696f6e206973206e60448201526c1bdd08184818dbdb9d1c9858dd609a1b6064820152608490fd5b3d15613146573d9061312c826127f6565b9161313a60405193846127d4565b82523d6000602084013e565b606090565b919290156131ad575081511561315f575090565b3b156131685790565b60405162461bcd60e51b815260206004820152601d60248201527f416464726573733a2063616c6c20746f206e6f6e2d636f6e74726163740000006044820152606490fd5b8251909150156131c05750805190602001fd5b60405162461bcd60e51b81529081906129609060048301612f27565b818102929181159184041417156131ef57565b634e487b7160e01b600052601160045260246000fd5b919082018092116131ef57565b908151811015612737570160200190565b604051906132308261279c565b602a82526020820160403682378251156127375760309053815160019081101561273757607860218401536029905b8082116132b357505061326f5790565b606460405162461bcd60e51b815260206004820152602060248201527f537472696e67733a20686578206c656e67746820696e73756666696369656e746044820152fd5b9091600f8116601081101561330c576f181899199a1a9b1b9c1cb0b131b232b360811b901a6132e28486613212565b5360041c9180156132f757600019019061325f565b60246000634e487b7160e01b81526011600452fd5b60246000634e487b7160e01b81526032600452fd5b1561332857565b60405162461bcd60e51b815260206004820152602b60248201527f496e697469616c697a61626c653a20636f6e7472616374206973206e6f74206960448201526a6e697469616c697a696e6760a81b6064820152608490fd5b60001981146131ef5760010190565b60ff60c9541661339c57565b60405162461bcd60e51b815260206004820152601060248201526f14185d5cd8589b194e881c185d5cd95960821b6044820152606490fd5b6002609754146133e5576002609755565b60405162461bcd60e51b815260206004820152601f60248201527f5265656e7472616e637947756172643a207265656e7472616e742063616c6c006044820152606490fd5b8115613434570490565b634e487b7160e01b600052601260045260246000fd5b919082039182116131ef57565b60405163a9059cbb60e01b60208201526001600160a01b039092166024830152604480830193909352918152608081019167ffffffffffffffff831182841017612769576134a7926040526134a9565b565b60018060a01b031690604051604081019080821067ffffffffffffffff83111761276957613515916040526020938482527f5361666545524332303a206c6f772d6c6576656c2063616c6c206661696c6564858301526000808587829751910182855af16119bf61311b565b805191821591848315613587575b5050509050156135305750565b6084906040519062461bcd60e51b82526004820152602a60248201527f5361666545524332303a204552433230206f7065726174696f6e20646964206e6044820152691bdd081cdd58d8d9595960b21b6064820152fd5b9193818094500103126135ae578201519081151582036135ab575080388084613523565b80fd5b5080fd5b600090815261015f602052604081206040516135cd8161277f565b60018060a01b0380835416825280600184015416602083015260028301541660408201526003820154606082015260048201549081608082015260058301548060a08301526006840154918260c0820152610180600b6007870154968760e085015260088101546101008501526009810154610120850152600a81015461014085015201549160ff8316159060ff8215948561016084015260081c1615159283910152916136ed575b506136e65742106136e05780151590816136d5575b506136d05781156136c85761369f91613205565b610e0f198101919082116136b4575042101590565b634e487b7160e01b81526011600452602490fd5b505050600190565b505090565b90504210153861368b565b50505090565b5050505090565b905038613676565b67ffffffffffffffff81116127695760051b60200190565b90613717826136f5565b61372460405191826127d4565b8281528092613735601f19916136f5565b0190602036910137565b80518210156127375760209160051b01019056fe2f8788117e7eff1d82e926ec794901d17c78024a50270940304540a733656f0d360894a13ba1a3210667c828492db98dca3e2076cc3735a920a3ca505d382bbca26469706673582212209716776e327e35c0cc24cda962a9f1e452311497ba9e1715f4b097b42ce6173e64736f6c63430008130033",
  "linkReferences": {},
  "deployedLinkReferences": {}
}