{
  "_format": "hh-sol-artifact-1",
  "contractName": "MockChainlinkOracle",
  "sourceName": "contracts/mocks/MockChainlinkOracle.sol",
  "abi": [
    {
      "inputs": [
        {
          "internalType": "int256",
          "name": "_initialPrice",
          "type": "int256"
        },
        {
          "internalType": "uint8",
          "name": "_decimals",
          "type": "uint8"
        },
        {
          "internalType": "string",
          "name": "_description",
          "type": "string"
        }
      ],
      "stateMutability": "nonpayable",
      "type": "constructor"
    },
    {
      "anonymous": false,
      "inputs": [
        {
          "indexed": true,
          "internalType": "int256",
          "name": "current",
          "type": "int256"
        },
        {
          "indexed": true,
          "internalType": "uint256",
          "name": "roundId",
          "type": "uint256"
        },
        {
          "indexed": false,
          "internalType": "uint256",
          "name": "updatedAt",
          "type": "uint256"
        }
      ],
      "name": "AnswerUpdated",
      "type": "event"
    },
    {
      "inputs": [],
      "name": "decimals",
      "outputs": [
        {
          "internalType": "uint8",
          "name": "",
          "type": "uint8"
        }
      ],
      "stateMutability": "view",
      "type": "function"
    },
    {
      "inputs": [],
      "name": "description",
      "outputs": [
        {
          "internalType": "string",
          "name": "",
          "type": "string"
        }
      ],
      "stateMutability": "view",
      "type": "function"
    },
    {
      "inputs": [
        {
          "internalType": "uint80",
          "name": "_roundId",
          "type": "uint80"
        }
      ],
      "name": "getRoundData",
      "outputs": [
        {
          "internalType": "uint80",
          "name": "roundId",
          "type": "uint80"
        },
        {
          "internalType": "int256",
          "name": "price",
          "type": "int256"
        },
        {
          "internalType": "uint256",
          "name": "startedAt",
          "type": "uint256"
        },
        {
          "internalType": "uint256",
          "name": "updatedAt",
          "type": "uint256"
        },
        {
          "internalType": "uint80",
          "name": "answeredInRound",
          "type": "uint80"
        }
      ],
      "stateMutability": "view",
      "type": "function"
    },
    {
      "inputs": [],
      "name": "latestRoundData",
      "outputs": [
        {
          "internalType": "uint80",
          "name": "roundId",
          "type": "uint80"
        },
        {
          "internalType": "int256",
          "name": "price",
          "type": "int256"
        },
        {
          "internalType": "uint256",
          "name": "startedAt",
          "type": "uint256"
        },
        {
          "internalType": "uint256",
          "name": "updatedAt",
          "type": "uint256"
        },
        {
          "internalType": "uint80",
          "name": "answeredInRound",
          "type": "uint80"
        }
      ],
      "stateMutability": "view",
      "type": "function"
    },
    {
      "inputs": [
        {
          "internalType": "int256",
          "name": "_basePrice",
          "type": "int256"
        },
        {
          "internalType": "int256",
          "name": "_maxVariation",
          "type": "int256"
        }
      ],
      "name": "simulatePriceMovement",
      "outputs": [],
      "stateMutability": "nonpayable",
      "type": "function"
    },
    {
      "inputs": [
        {
          "internalType": "int256",
          "name": "_newPrice",
          "type": "int256"
        }
      ],
      "name": "updatePrice",
      "outputs": [],
      "stateMutability": "nonpayable",
      "type": "function"
    },
    {
      "inputs": [],
      "name": "version",
      "outputs": [
        {
          "internalType": "uint256",
          "name": "",
          "type": "uint256"
        }
      ],
      "stateMutability": "view",
      "type": "function"
    }
  ],
  "bytecode": "0x604060808152346102c3576108ea8038038061001a816102c8565b92833981016060828203126102c3578151916020808201519260ff84168094036102c357828601516001600160401b03938482116102c35701601f8281830112156102c35781518581116101b957601f199261007b828401851687016102c8565b948286528683830101116102c357859060005b8381106102af575050600091850101526001958660025560ff1960005416176000558251928584116101b9578654928784811c941680156102a5575b8685101461028f57838386951161023a575b50859284116001146101da57506000926101cf575b5050600019600383901b1c191690841b1783555b845160a08101928311818410176101b95760808491600894885282815286848201524288820152426060820152015260018060501b031993838560035416176003556004554260055542600655828460075416176007558260005252826000206003810361017c575b83516105fc90816102ee8239f35b816004928483541617825582549082015560055460028201556006546003820155019060018060501b03600754169082541617905538808061016e565b634e487b7160e01b600052604160045260246000fd5b0151905038806100f1565b8794929192169184600052856000209260005b87828210610224575050841161020b575b505050811b018355610105565b015160001960f88460031b161c191690553880806101fe565b8385015186558a979095019493840193016101ed565b909192935087600052856000208480870160051c820192888810610286575b9187968b92969594930160051c01915b8281106102775750506100dc565b600081558796508a9101610269565b92508192610259565b634e487b7160e01b600052602260045260246000fd5b93607f16936100ca565b81810183015187820184015287920161008e565b600080fd5b6040519190601f01601f191682016001600160401b038111838210176101b95760405256fe60806040908082526004908136101561001757600080fd5b600090813560e01c908163313ce5671461054957508063407e70161461042257806354fd4d50146104035780637284e416146102a65780639a6fc8f5146101f2578063d4c19bda146100c85763feaf968c1461007257600080fd5b346100c557806003193601126100c55750600354905460055460065460075494516001600160501b0394851681526020810193909352604083019190915260608201529116608082015260a090f35b0390f35b80fd5b509190346101ee5760203660031901126101ee577f0559884fd3a460db3073b7fc896cc77986f16e378210ded43186175bf646fc5f60206080938335936001600160501b039061011b8260035416610598565b8284519161012883610566565b16978189809352888782015242868201524260608201520152610161876001600160501b03166001600160501b03196003541617600355565b858155426005554260065561018c876001600160501b03166001600160501b03196007541617600755565b8688526008845282882090600382036101ab575b50505051428152a380f35b8260035416916001600160501b031992838254161781558154600182015560055460028201556006546003820155019160075416908254161790553880806101a0565b8280fd5b509190346101ee5760203660031901126101ee578035926001600160501b03938481168091036102a2579183826100c194608094526008602052209084519461023a86610566565b868354169586815260018401549788602083015260028501549384848401526003860154958660608501520154169485910152519586958693608093969591929660a08601976001600160501b03809516875260208701526040860152606085015216910152565b5080fd5b5091346101ee57826003193601126101ee5780518360019485549081871c8783169788156103f9575b6020938483108a146103e657848798999a84895291826000146103ca575050600114610377575b5050601f801995869203011683019583871067ffffffffffffffff881117610364575085929391838652818452845191828186015281955b83871061034c5750508394508582601f949501015201168101030190f35b8681018201518988018901529581019588955061032e565b634e487b7160e01b835260419052602482fd5b8085528492507fb10e2d527612073b26eecdfd717e6a320cf44b4afac2b0732d9fcbe2b7fa0cf65b8284106103b4575050508301810138806102f6565b805488850186015287965092840192810161039f565b925093505060ff191682860152151560051b84010138806102f6565b634e487b7160e01b865260228952602486fd5b90607f16906102cf565b5082346102a257816003193601126102a2576020906002549051908152f35b5090346102a257826003193601126102a25780359060248035928551602081019042825244888201528781526060810181811067ffffffffffffffff821117610537578852519020938060011b86821295828205600214831517156105255781156105135706908103948015828713169186121617610501578484820194851291129080158216911516176104f057506020608093947f0559884fd3a460db3073b7fc896cc77986f16e378210ded43186175bf646fc5f926001600160501b039061011b8260035416610598565b634e487b7160e01b84526011825283fd5b50634e487b7160e01b84526011825283fd5b634e487b7160e01b8852601286528488fd5b634e487b7160e01b8852601186528488fd5b634e487b7160e01b8852604186528488fd5b9050346102a257816003193601126102a25760ff60209254168152f35b60a0810190811067ffffffffffffffff82111761058257604052565b634e487b7160e01b600052604160045260246000fd5b9060016001600160501b03809316019182116105b057565b634e487b7160e01b600052601160045260246000fdfea264697066735822122027963a86f8de030a0a37a428553470d8ff1b6f55c9783daa3759bc37a07ba05c64736f6c63430008130033",
  "linkReferences": {},
  "deployedLinkReferences": {}
}