{
  "_format": "hh-sol-artifact-1",
  "contractName": "OracleAggregator",
  "sourceName": "contracts/OracleAggregator.sol",
  "abi": [
    {
      "inputs": [],
      "stateMutability": "nonpayable",
      "type": "constructor"
    },
    {
      "inputs": [],
      "name": "InsufficientOracles",
      "type": "error"
    },
    {
      "inputs": [],
      "name": "InvalidDeviation",
      "type": "error"
    },
    {
      "inputs": [],
      "name": "InvalidWeight",
      "type": "error"
    },
    {
      "inputs": [],
      "name": "LowConfidence",
      "type": "error"
    },
    {
      "inputs": [],
      "name": "OracleNotFound",
      "type": "error"
    },
    {
      "inputs": [],
      "name": "StalePrice",
      "type": "error"
    },
    {
      "inputs": [],
      "name": "TooManyOracles",
      "type": "error"
    },
    {
      "anonymous": false,
      "inputs": [
        {
          "indexed": false,
          "internalType": "uint256",
          "name": "newThreshold",
          "type": "uint256"
        }
      ],
      "name": "DeviationThresholdUpdated",
      "type": "event"
    },
    {
      "anonymous": false,
      "inputs": [
        {
          "indexed": true,
          "internalType": "address",
          "name": "oracle",
          "type": "address"
        },
        {
          "indexed": false,
          "internalType": "uint256",
          "name": "weight",
          "type": "uint256"
        }
      ],
      "name": "OracleAdded",
      "type": "event"
    },
    {
      "anonymous": false,
      "inputs": [
        {
          "indexed": true,
          "internalType": "address",
          "name": "oracle",
          "type": "address"
        }
      ],
      "name": "OracleRemoved",
      "type": "event"
    },
    {
      "anonymous": false,
      "inputs": [
        {
          "indexed": true,
          "internalType": "address",
          "name": "oracle",
          "type": "address"
        },
        {
          "indexed": false,
          "internalType": "uint256",
          "name": "newWeight",
          "type": "uint256"
        }
      ],
      "name": "OracleWeightUpdated",
      "type": "event"
    },
    {
      "anonymous": false,
      "inputs": [
        {
          "indexed": true,
          "internalType": "uint256",
          "name": "price",
          "type": "uint256"
        },
        {
          "indexed": false,
          "internalType": "uint256",
          "name": "timestamp",
          "type": "uint256"
        },
        {
          "indexed": false,
          "internalType": "uint256",
          "name": "confidence",
          "type": "uint256"
        },
        {
          "indexed": false,
          "internalType": "uint256",
          "name": "oracleCount",
          "type": "uint256"
        }
      ],
      "name": "PriceAggregated",
      "type": "event"
    },
    {
      "anonymous": false,
      "inputs": [
        {
          "indexed": true,
          "internalType": "uint256",
          "name": "price",
          "type": "uint256"
        },
        {
          "indexed": false,
          "internalType": "uint256",
          "name": "timestamp",
          "type": "uint256"
        },
        {
          "indexed": false,
          "internalType": "uint256",
          "name": "confidence",
          "type": "uint256"
        }
      ],
      "name": "PriceUpdated",
      "type": "event"
    },
    {
      "anonymous": false,
      "inputs": [
        {
          "indexed": true,
          "internalType": "bytes32",
          "name": "role",
          "type": "bytes32"
        },
        {
          "indexed": true,
          "internalType": "bytes32",
          "name": "previousAdminRole",
          "type": "bytes32"
        },
        {
          "indexed": true,
          "internalType": "bytes32",
          "name": "newAdminRole",
          "type": "bytes32"
        }
      ],
      "name": "RoleAdminChanged",
      "type": "event"
    },
    {
      "anonymous": false,
      "inputs": [
        {
          "indexed": true,
          "internalType": "bytes32",
          "name": "role",
          "type": "bytes32"
        },
        {
          "indexed": true,
          "internalType": "address",
          "name": "account",
          "type": "address"
        },
        {
          "indexed": true,
          "internalType": "address",
          "name": "sender",
          "type": "address"
        }
      ],
      "name": "RoleGranted",
      "type": "event"
    },
    {
      "anonymous": false,
      "inputs": [
        {
          "indexed": true,
          "internalType": "bytes32",
          "name": "role",
          "type": "bytes32"
        },
        {
          "indexed": true,
          "internalType": "address",
          "name": "account",
          "type": "address"
        },
        {
          "indexed": true,
          "internalType": "address",
          "name": "sender",
          "type": "address"
        }
      ],
      "name": "RoleRevoked",
      "type": "event"
    },
    {
      "inputs": [],
      "name": "DEFAULT_ADMIN_ROLE",
      "outputs": [
        {
          "internalType": "bytes32",
          "name": "",
          "type": "bytes32"
        }
      ],
      "stateMutability": "view",
      "type": "function"
    },
    {
      "inputs": [],
      "name": "MAX_DEVIATION",
      "outputs": [
        {
          "internalType": "uint256",
          "name": "",
          "type": "uint256"
        }
      ],
      "stateMutability": "view",
      "type": "function"
    },
    {
      "inputs": [],
      "name": "MAX_ORACLES",
      "outputs": [
        {
          "internalType": "uint256",
          "name": "",
          "type": "uint256"
        }
      ],
      "stateMutability": "view",
      "type": "function"
    },
    {
      "inputs": [],
      "name": "MIN_CONFIDENCE",
      "outputs": [
        {
          "internalType": "uint256",
          "name": "",
          "type": "uint256"
        }
      ],
      "stateMutability": "view",
      "type": "function"
    },
    {
      "inputs": [],
      "name": "MIN_ORACLES",
      "outputs": [
        {
          "internalType": "uint256",
          "name": "",
          "type": "uint256"
        }
      ],
      "stateMutability": "view",
      "type": "function"
    },
    {
      "inputs": [],
      "name": "ORACLE_MANAGER_ROLE",
      "outputs": [
        {
          "internalType": "bytes32",
          "name": "",
          "type": "bytes32"
        }
      ],
      "stateMutability": "view",
      "type": "function"
    },
    {
      "inputs": [],
      "name": "PRICE_UPDATER_ROLE",
      "outputs": [
        {
          "internalType": "bytes32",
          "name": "",
          "type": "bytes32"
        }
      ],
      "stateMutability": "view",
      "type": "function"
    },
    {
      "inputs": [],
      "name": "TOTAL_WEIGHT",
      "outputs": [
        {
          "internalType": "uint256",
          "name": "",
          "type": "uint256"
        }
      ],
      "stateMutability": "view",
      "type": "function"
    },
    {
      "inputs": [
        {
          "internalType": "address",
          "name": "oracleAddr",
          "type": "address"
        },
        {
          "internalType": "uint256",
          "name": "maxStaleness",
          "type": "uint256"
        }
      ],
      "name": "_getPriceFromOracle",
      "outputs": [
        {
          "internalType": "uint256",
          "name": "price",
          "type": "uint256"
        },
        {
          "internalType": "uint256",
          "name": "timestamp",
          "type": "uint256"
        },
        {
          "internalType": "uint256",
          "name": "confidence",
          "type": "uint256"
        }
      ],
      "stateMutability": "view",
      "type": "function"
    },
    {
      "inputs": [
        {
          "internalType": "address",
          "name": "oracle",
          "type": "address"
        },
        {
          "internalType": "uint256",
          "name": "weight",
          "type": "uint256"
        },
        {
          "internalType": "uint256",
          "name": "maxStaleness",
          "type": "uint256"
        }
      ],
      "name": "addOracle",
      "outputs": [],
      "stateMutability": "nonpayable",
      "type": "function"
    },
    {
      "inputs": [],
      "name": "aggregatedConfidence",
      "outputs": [
        {
          "internalType": "uint256",
          "name": "",
          "type": "uint256"
        }
      ],
      "stateMutability": "view",
      "type": "function"
    },
    {
      "inputs": [
        {
          "internalType": "uint256",
          "name": "newPrice",
          "type": "uint256"
        }
      ],
      "name": "checkDeviation",
      "outputs": [
        {
          "internalType": "bool",
          "name": "exceeded",
          "type": "bool"
        },
        {
          "internalType": "uint256",
          "name": "deviation",
          "type": "uint256"
        }
      ],
      "stateMutability": "view",
      "type": "function"
    },
    {
      "inputs": [],
      "name": "deviationThreshold",
      "outputs": [
        {
          "internalType": "uint256",
          "name": "",
          "type": "uint256"
        }
      ],
      "stateMutability": "view",
      "type": "function"
    },
    {
      "inputs": [],
      "name": "getActiveOracleCount",
      "outputs": [
        {
          "internalType": "uint256",
          "name": "count",
          "type": "uint256"
        }
      ],
      "stateMutability": "view",
      "type": "function"
    },
    {
      "inputs": [],
      "name": "getAllPrices",
      "outputs": [
        {
          "components": [
            {
              "internalType": "uint256",
              "name": "price",
              "type": "uint256"
            },
            {
              "internalType": "uint256",
              "name": "timestamp",
              "type": "uint256"
            },
            {
              "internalType": "uint256",
              "name": "confidence",
              "type": "uint256"
            },
            {
              "internalType": "address",
              "name": "source",
              "type": "address"
            }
          ],
          "internalType": "struct IOracleAggregator.PriceData[]",
          "name": "priceData",
          "type": "tuple[]"
        }
      ],
      "stateMutability": "view",
      "type": "function"
    },
    {
      "inputs": [],
      "name": "getLatestPrice",
      "outputs": [
        {
          "internalType": "uint256",
          "name": "price",
          "type": "uint256"
        },
        {
          "internalType": "uint256",
          "name": "timestamp",
          "type": "uint256"
        }
      ],
      "stateMutability": "view",
      "type": "function"
    },
    {
      "inputs": [
        {
          "internalType": "address",
          "name": "oracle",
          "type": "address"
        }
      ],
      "name": "getOracleConfig",
      "outputs": [
        {
          "components": [
            {
              "internalType": "address",
              "name": "oracle",
              "type": "address"
            },
            {
              "internalType": "uint256",
              "name": "weight",
              "type": "uint256"
            },
            {
              "internalType": "uint256",
              "name": "maxStaleness",
              "type": "uint256"
            },
            {
              "internalType": "bool",
              "name": "isActive",
              "type": "bool"
            }
          ],
          "internalType": "struct IOracleAggregator.OracleConfig",
          "name": "config",
          "type": "tuple"
        }
      ],
      "stateMutability": "view",
      "type": "function"
    },
    {
      "inputs": [
        {
          "internalType": "bytes32",
          "name": "role",
          "type": "bytes32"
        }
      ],
      "name": "getRoleAdmin",
      "outputs": [
        {
          "internalType": "bytes32",
          "name": "",
          "type": "bytes32"
        }
      ],
      "stateMutability": "view",
      "type": "function"
    },
    {
      "inputs": [
        {
          "internalType": "bytes32",
          "name": "role",
          "type": "bytes32"
        },
        {
          "internalType": "address",
          "name": "account",
          "type": "address"
        }
      ],
      "name": "grantRole",
      "outputs": [],
      "stateMutability": "nonpayable",
      "type": "function"
    },
    {
      "inputs": [
        {
          "internalType": "bytes32",
          "name": "role",
          "type": "bytes32"
        },
        {
          "internalType": "address",
          "name": "account",
          "type": "address"
        }
      ],
      "name": "hasRole",
      "outputs": [
        {
          "internalType": "bool",
          "name": "",
          "type": "bool"
        }
      ],
      "stateMutability": "view",
      "type": "function"
    },
    {
      "inputs": [],
      "name": "lastAggregatedPrice",
      "outputs": [
        {
          "internalType": "uint256",
          "name": "",
          "type": "uint256"
        }
      ],
      "stateMutability": "view",
      "type": "function"
    },
    {
      "inputs": [],
      "name": "lastUpdateTimestamp",
      "outputs": [
        {
          "internalType": "uint256",
          "name": "",
          "type": "uint256"
        }
      ],
      "stateMutability": "view",
      "type": "function"
    },
    {
      "inputs": [
        {
          "internalType": "uint256",
          "name": "",
          "type": "uint256"
        }
      ],
      "name": "oracleList",
      "outputs": [
        {
          "internalType": "address",
          "name": "",
          "type": "address"
        }
      ],
      "stateMutability": "view",
      "type": "function"
    },
    {
      "inputs": [
        {
          "internalType": "address",
          "name": "",
          "type": "address"
        }
      ],
      "name": "oracles",
      "outputs": [
        {
          "internalType": "address",
          "name": "oracle",
          "type": "address"
        },
        {
          "internalType": "uint256",
          "name": "weight",
          "type": "uint256"
        },
        {
          "internalType": "uint256",
          "name": "maxStaleness",
          "type": "uint256"
        },
        {
          "internalType": "bool",
          "name": "isActive",
          "type": "bool"
        }
      ],
      "stateMutability": "view",
      "type": "function"
    },
    {
      "inputs": [
        {
          "internalType": "address",
          "name": "oracle",
          "type": "address"
        }
      ],
      "name": "removeOracle",
      "outputs": [],
      "stateMutability": "nonpayable",
      "type": "function"
    },
    {
      "inputs": [
        {
          "internalType": "bytes32",
          "name": "role",
          "type": "bytes32"
        },
        {
          "internalType": "address",
          "name": "account",
          "type": "address"
        }
      ],
      "name": "renounceRole",
      "outputs": [],
      "stateMutability": "nonpayable",
      "type": "function"
    },
    {
      "inputs": [
        {
          "internalType": "bytes32",
          "name": "role",
          "type": "bytes32"
        },
        {
          "internalType": "address",
          "name": "account",
          "type": "address"
        }
      ],
      "name": "revokeRole",
      "outputs": [],
      "stateMutability": "nonpayable",
      "type": "function"
    },
    {
      "inputs": [
        {
          "internalType": "bytes4",
          "name": "interfaceId",
          "type": "bytes4"
        }
      ],
      "name": "supportsInterface",
      "outputs": [
        {
          "internalType": "bool",
          "name": "",
          "type": "bool"
        }
      ],
      "stateMutability": "view",
      "type": "function"
    },
    {
      "inputs": [],
      "name": "updateAggregatedPrice",
      "outputs": [],
      "stateMutability": "nonpayable",
      "type": "function"
    },
    {
      "inputs": [
        {
          "internalType": "uint256",
          "name": "newThreshold",
          "type": "uint256"
        }
      ],
      "name": "updateDeviationThreshold",
      "outputs": [],
      "stateMutability": "nonpayable",
      "type": "function"
    },
    {
      "inputs": [
        {
          "internalType": "address",
          "name": "oracle",
          "type": "address"
        },
        {
          "internalType": "uint256",
          "name": "newWeight",
          "type": "uint256"
        }
      ],
      "name": "updateOracleWeight",
      "outputs": [],
      "stateMutability": "nonpayable",
      "type": "function"
    }
  ],
  "bytecode": "0x60806040818152346200016d57600180556000808052602091818352808220338352835260ff81832054161562000135575b7fced6982f480260bdd8ad5cb18ff2854f0306d78d904ad6cc107e8f3a0f526c18808352828452818320338452845260ff828420541615620000fb575b507fd96ba01d6560c2ab35f2940dd8d70c5f5fe06236c72674237120515918198fb092838352828152818320338452815260ff828420541615620000c0575b61012c60045561199e8581620001738239f35b83835282815281832090338452528120600160ff19825416179055339160008051602062001b11833981519152339280a438808080620000ad565b8083528284528183203384528452818320600160ff198254161790553390339060008051602062001b118339815191528580a4386200006e565b8180528183528082203383528352808220600160ff1982541617905533338360008051602062001b118339815191528180a462000031565b600080fdfe608060408181526004908136101561001657600080fd5b600092833560e01c90816301ffc9a714610fef5750806314bcec9f14610fd0578063239aad0d14610f8f578063248a9ca314610f655780632f2ff15d14610ebc57806336568abe14610e2a5780634136cf6314610e0b57806341f9375714610dee578063445df9d614610d735780636481d33b14610bb65780637d7c326614610b975780637ed19bfa14610b7857806389b2c56c14610b4c5780638e15f47314610b2757806391d1485414610ae1578063a217fddf14610ac6578063a75879f5146109df578063addd50991461097c578063b05f233a1461095f578063bfc69e1c14610924578063bfedbfa014610908578063c354710914610874578063ca9cfb5014610482578063cc7b548414610447578063d547741f1461040b578063d94ad837146103ed578063ed2a2f9d146103d0578063f52a3603146103b4578063fb8d810114610375578063fdc85fc4146101e05763ffb24ae81461017957600080fd5b346101dc5760203660031901126101dc578135916101956110c1565b6101f483116101ce5791602091817ffc6a7902b31c6ecdb0c5861232c559ad5a0836a4afdfd978472718132e487781945551908152a180f35b9051633e179ee560e11b8152fd5b8280fd5b508234610372576020366003190112610372576101fb6110ab565b916102046110c1565b6001600160a01b039283168083526002602052818320549091908416156103635760039060028254111561035457835b82548082101561034657848761024984611043565b905490871b1c1614610264575061025f906115f5565b610234565b906000969293949596199182810190811161033357906102978461028a6102b694611043565b905490891b1c1691611043565b90919082549060031b9160018060a01b03809116831b921b1916179055565b835480156103205786975095949501906102cf82611043565b9091825491861b1b1916905582555b8383526002602052822082815582600182015582600282015501557f9c8e7d83025bef8a04c664b2f753f64b8814bdb7e27291d7e50935f18cc3c7128280a280f35b634e487b7160e01b875260318852602487fd5b634e487b7160e01b885260118952602488fd5b5050909193508294506102de565b5163d0c0a93b60e01b81528590fd5b51630b0a0e0d60e21b81528490fd5b80fd5b8382346103b057816003193601126103b057602090517fd96ba01d6560c2ab35f2940dd8d70c5f5fe06236c72674237120515918198fb08152f35b5080fd5b8382346103b057816003193601126103b0576020905160028152f35b8382346103b057816003193601126103b057602090516127108152f35b5090346101dc57826003193601126101dc5760209250549051908152f35b50346101dc57806003193601126101dc57610444913561043f600161042e611090565b9383875286602052862001546112bc565b61143e565b80f35b8382346103b057806003193601126103b0576060906104646110ab565b5061251c81519168b59a96d2f0769800008352426020840152820152f35b5090346101dc57826003193601126101dc577fd96ba01d6560c2ab35f2940dd8d70c5f5fe06236c72674237120515918198fb0808452602090848252838520338652825260ff848620541615610695575060029160019383855414610654578385556104ec61172f565b84815110610646578687908789978a915b61059f575b505061051a9161051191611611565b95825190611611565b92611f40841061059157600554610574575b50917f2ce533425095d06292e65c708e4dbd78ba0e82d03aa7affbbd3453d9439d4cb093916060938660055542600655826007555191815193428552840152820152a2805580f35b61057d86611631565b501561052c578251633e179ee560e11b8152fd5b82516375ed61bf60e01b8152fd5b90979291845189101561063e576001600160a01b0360606105c08b8861171b565b510151168b5281885289868c200154906105da8a8761171b565b5151908282029180830484149015171561062b5761060a8c94936106046106259461061f946114b2565b966114b2565b95886106168d8a61171b565b510151906114b2565b996115f5565b916104fd565b634e487b7160e01b8d526011895260248dfd5b919297610502565b505163d0c0a93b60e01b8152fd5b91606492519162461bcd60e51b8352820152601f60248201527f5265656e7472616e637947756172643a207265656e7472616e742063616c6c006044820152fd5b846106a2949294336114e6565b918351906106af826113ea565b60428252868201926060368537825115610861576030845382519060019182101561084e5790607860218501536041915b8183116107e3575050506107a2578361077260488895610794956107639560449a995196879361073a8b86019b76020b1b1b2b9b9a1b7b73a3937b61d1030b1b1b7bab73a1604d1b8d5282519283916037890191016113c7565b8401917001034b99036b4b9b9b4b733903937b6329607d1b6037840152518093868401906113c7565b0103602881018552018361141c565b5195869462461bcd60e51b8652850152518092816024860152858501906113c7565b601f01601f19168101030190fd5b606485878087519262461bcd60e51b845283015260248201527f537472696e67733a20686578206c656e67746820696e73756666696369656e746044820152fd5b909192600f8116601081101561083b576f181899199a1a9b1b9c1cb0b131b232b360811b901a61081385876114d5565b53881c928015610828576000190191906106e0565b634e487b7160e01b825260118952602482fd5b634e487b7160e01b835260328a52602483fd5b634e487b7160e01b815260328852602490fd5b634e487b7160e01b815260328752602490fd5b8382346103b05760203660031901126103b057608091816108936110ab565b9161089c61168e565b506001600160a01b0392831681526002602052208251909290916108bf836113ea565b83541692838352600181015460208401908152606060ff600360028501549486880195865201541694019315158452825194855251602085015251908301525115156060820152f35b8382346103b057816003193601126103b05760209051600a8152f35b8382346103b057816003193601126103b057602090517fced6982f480260bdd8ad5cb18ff2854f0306d78d904ad6cc107e8f3a0f526c188152f35b8382346103b057816003193601126103b057602090516101f48152f35b8382346103b05760203660031901126103b0576080916001600160a01b0391908190836109a76110ab565b168152600260205220918254169160018101549160ff6003600284015493015416928151948552602085015283015215156060820152f35b5090346101dc57816003193601126101dc576109f96110ab565b9160243591610a066110c1565b6001600160a01b0393841680865260026020528286205490941615610ab85782158015610aad575b610a9f578385526002602052612710610a5d84610a586001868a200154610a536118d3565b611604565b6114b2565b11610a9f57507f52601ef1baef2034a3af7b882829825d80c159df7dfb513cc753c40f85d7407c9160209184865260028352816001828820015551908152a280f35b905163585b926360e01b8152fd5b506127108311610a2e565b9051630b0a0e0d60e21b8152fd5b8382346103b057816003193601126103b05751908152602090f35b5090346101dc57816003193601126101dc578160209360ff92610b02611090565b903582528186528282206001600160a01b039091168252855220549151911615158152f35b5082346103725780600319360112610372575060055460065482519182526020820152f35b5091346103725760203660031901126103725750610b6a9035611631565b825191151582526020820152f35b8382346103b057816003193601126103b0576020906003549051908152f35b8382346103b057816003193601126103b0576020906005549051908152f35b50346101dc5760603660031901126101dc57610bd06110ab565b9060243591610bdd6110c1565b600a6003541015610d635782158015610d58575b610d48576001600160a01b03818116808752600260205283872054909591908116610d0d57612710610c2586610a586118d3565b11610cfe5760038451610c37816113ea565b878152602081018781528682019060443582526060830194600186528a8c526002602052888c209351166bffffffffffffffffffffffff60a01b845416178355516001830155516002820155019051151560ff801983541691161790556003549068010000000000000000821015610ceb575091610ce37f27e42c8c186bae4ba00900be68f86e7115c0845941300729a6bf8e65f4eddbaf949261029785600160209701600355611043565b51908152a280f35b634e487b7160e01b875260419052602486fd5b50825163585b926360e01b8152fd5b835162461bcd60e51b815260208184015260156024820152744f7261636c6520616c72656164792065786973747360581b6044820152606490fd5b815163585b926360e01b81528490fd5b506127108311610bf1565b8151630974082760e21b81528490fd5b508234610372578060031936011261037257610d8d61172f565b8251916020808401908085528351809252808686019401925b828110610db35785850386f35b835180518652808301518684015287810151888701526060908101516001600160a01b03169086015260809094019392810192600101610da6565b8382346103b057816003193601126103b05760209051611f408152f35b8382346103b057816003193601126103b0576020906007549051908152f35b509190346103b057826003193601126103b057610e45611090565b90336001600160a01b03831603610e615790610444913561143e565b608490602085519162461bcd60e51b8352820152602f60248201527f416363657373436f6e74726f6c3a2063616e206f6e6c792072656e6f756e636560448201526e103937b632b9903337b91039b2b63360891b6064820152fd5b5090346101dc57816003193601126101dc573590610ed8611090565b9082845283602052610eef600182862001546112bc565b82845260208481528185206001600160a01b039093168086529290528084205460ff1615610f1b578380f35b828452836020528084208285526020528320600160ff1982541617905533917f2f8788117e7eff1d82e926ec794901d17c78024a50270940304540a733656f0d8480a43880808380f35b5090346101dc5760203660031901126101dc57816020936001923581528085522001549051908152f35b5090346101dc5760203660031901126101dc5735916003548310156103725750610fba602092611043565b60018060a01b0391549060031b1c169051908152f35b8382346103b057816003193601126103b0576020906006549051908152f35b849084346101dc5760203660031901126101dc573563ffffffff60e01b81168091036101dc5760209250637965db0b60e01b8114908115611032575b5015158152f35b6301ffc9a760e01b1490508361102b565b60035481101561107a5760036000527fc2575a0e9e593c00f959f8c92f12db2869c3395a3b0502d05e2516446f71f85b0190600090565b634e487b7160e01b600052603260045260246000fd5b602435906001600160a01b03821682036110a657565b600080fd5b600435906001600160a01b03821682036110a657565b3360009081527ffb8036e0bab3828a1a1cce97396031bc7ea8a361699e1bc9c4844f3aeee78d6e6020908152604080832054909291907fced6982f480260bdd8ad5cb18ff2854f0306d78d904ad6cc107e8f3a0f526c189060ff16156111275750505050565b611130336114e6565b9084519061113d826113ea565b604282528382019460603687378251156112a857603086538251906001918210156112a85790607860218501536041915b81831161123a575050506111f857846111d460486107949360449798519889916111c58984019876020b1b1b2b9b9a1b7b73a3937b61d1030b1b1b7bab73a1604d1b8a5261073a815180928d6037890191016113c7565b0103602881018952018761141c565b5194859362461bcd60e51b85526004850152518092816024860152858501906113c7565b60648386519062461bcd60e51b825280600483015260248201527f537472696e67733a20686578206c656e67746820696e73756666696369656e746044820152fd5b909192600f81166010811015611294576f181899199a1a9b1b9c1cb0b131b232b360811b901a61126a85876114d5565b5360041c9280156112805760001901919061116e565b634e487b7160e01b82526011600452602482fd5b634e487b7160e01b83526032600452602483fd5b634e487b7160e01b81526032600452602490fd5b60008181526020818152604092838320338452825260ff8484205416156112e35750505050565b6112ec336114e6565b908451906112f9826113ea565b604282528382019460603687378251156112a857603086538251906001918210156112a85790607860218501536041915b818311611381575050506111f857846111d460486107949360449798519889916111c58984019876020b1b1b2b9b9a1b7b73a3937b61d1030b1b1b7bab73a1604d1b8a5261073a815180928d6037890191016113c7565b909192600f81166010811015611294576f181899199a1a9b1b9c1cb0b131b232b360811b901a6113b185876114d5565b5360041c9280156112805760001901919061132a565b60005b8381106113da5750506000910152565b81810151838201526020016113ca565b6080810190811067ffffffffffffffff82111761140657604052565b634e487b7160e01b600052604160045260246000fd5b90601f8019910116810190811067ffffffffffffffff82111761140657604052565b9060009180835282602052604083209160018060a01b03169182845260205260ff60408420541661146e57505050565b80835282602052604083208284526020526040832060ff1981541690557ff6391f5c32d9c69d2a47ea670b442974b53935d1edc7fd64eb21e047a839171b339380a4565b919082018092116114bf57565b634e487b7160e01b600052601160045260246000fd5b90815181101561107a570160200190565b604051906060820182811067ffffffffffffffff82111761140657604052602a825260208201604036823782511561107a5760309053815160019081101561107a57607860218401536029905b8082116115875750506115435790565b606460405162461bcd60e51b815260206004820152602060248201527f537472696e67733a20686578206c656e67746820696e73756666696369656e746044820152fd5b9091600f811660108110156115e0576f181899199a1a9b1b9c1cb0b131b232b360811b901a6115b684866114d5565b5360041c9180156115cb576000190190611533565b60246000634e487b7160e01b81526011600452fd5b60246000634e487b7160e01b81526032600452fd5b60001981146114bf5760010190565b919082039182116114bf57565b811561161b570490565b634e487b7160e01b600052601260045260246000fd5b6005549081156116845781808211156116745761164d91611604565b905b612710918281029281840414901517156114bf5761166c91611611565b600454811191565b9061167e91611604565b9061164f565b5050600090600090565b6040519061169b826113ea565b60006060838281528260208201528260408201520152565b67ffffffffffffffff81116114065760051b60200190565b906116d5826116b3565b6116e2604051918261141c565b82815280926116f3601f19916116b3565b019060005b82811061170457505050565b60209061170f61168e565b828285010152016116f8565b805182101561107a5760209160051b010190565b600380549061173d826116cb565b91600091825b82811061179657505050611756816116cb565b9160005b8281106117675750505090565b80611775611791928461171b565b51611780828761171b565b5261178b818661171b565b506115f5565b61175a565b61179f81611043565b9060018060a01b039182915490851b1c1680600052600291602092808452604060ff8782600020938351956117d3876113ea565b8554168652600185015488870152840154938484870152015416156060938482159101526118c55780519163331ed52160e21b835284600484015260248301528282604481305afa916000958387928895611884575b50611843575050505050505061183e906115f5565b611743565b9161183e979a95939161187e97959382519661185e886113ea565b8752860152840152820152611873828961171b565b5261178b818861171b565b936115f5565b868092965081999394503d83116118be575b6118a0818361141c565b81010312610372575085519082818801519701519196919338611829565b503d611896565b505050505061183e906115f5565b60009060008060038054925b8381106118ec5750505050565b6118f581611043565b90546001600160a01b0391841b1c8116845260026020818152604080872086015490939060ff16611933575b5050505061192e906115f5565b6118df565b9284999260019261195e9561194a61192e98611043565b9054908a1b1c1689525286200154906114b2565b959038808061192156fea2646970667358221220157414b814bed8d0b365b79201f5584ea9bbe0d20eaac9037d624840e7f2d56b64736f6c634300081300332f8788117e7eff1d82e926ec794901d17c78024a50270940304540a733656f0d",
  "linkReferences": {},
  "deployedLinkReferences": {}
}