{
  "_format": "hh-sol-artifact-1",
  "contractName": "CircuitBreaker",
  "sourceName": "contracts/CircuitBreaker.sol",
  "abi": [
    {
      "inputs": [
        {
          "internalType": "uint256",
          "name": "_priceDeviationThreshold",
          "type": "uint256"
        },
        {
          "internalType": "uint256",
          "name": "_timeWindow",
          "type": "uint256"
        },
        {
          "internalType": "uint256",
          "name": "_cooldownPeriod",
          "type": "uint256"
        }
      ],
      "stateMutability": "nonpayable",
      "type": "constructor"
    },
    {
      "anonymous": false,
      "inputs": [
        {
          "indexed": false,
          "internalType": "uint256",
          "name": "timestamp",
          "type": "uint256"
        }
      ],
      "name": "CircuitBreakerReset",
      "type": "event"
    },
    {
      "anonymous": false,
      "inputs": [
        {
          "indexed": true,
          "internalType": "uint256",
          "name": "oldPrice",
          "type": "uint256"
        },
        {
          "indexed": true,
          "internalType": "uint256",
          "name": "newPrice",
          "type": "uint256"
        },
        {
          "indexed": false,
          "internalType": "uint256",
          "name": "deviation",
          "type": "uint256"
        },
        {
          "indexed": false,
          "internalType": "uint256",
          "name": "timestamp",
          "type": "uint256"
        }
      ],
      "name": "CircuitBreakerTriggered",
      "type": "event"
    },
    {
      "anonymous": false,
      "inputs": [
        {
          "indexed": false,
          "internalType": "uint256",
          "name": "priceDeviationThreshold",
          "type": "uint256"
        },
        {
          "indexed": false,
          "internalType": "uint256",
          "name": "timeWindow",
          "type": "uint256"
        },
        {
          "indexed": false,
          "internalType": "uint256",
          "name": "cooldownPeriod",
          "type": "uint256"
        }
      ],
      "name": "ConfigUpdated",
      "type": "event"
    },
    {
      "anonymous": false,
      "inputs": [
        {
          "indexed": true,
          "internalType": "bytes32",
          "name": "role",
          "type": "bytes32"
        },
        {
          "indexed": true,
          "internalType": "bytes32",
          "name": "previousAdminRole",
          "type": "bytes32"
        },
        {
          "indexed": true,
          "internalType": "bytes32",
          "name": "newAdminRole",
          "type": "bytes32"
        }
      ],
      "name": "RoleAdminChanged",
      "type": "event"
    },
    {
      "anonymous": false,
      "inputs": [
        {
          "indexed": true,
          "internalType": "bytes32",
          "name": "role",
          "type": "bytes32"
        },
        {
          "indexed": true,
          "internalType": "address",
          "name": "account",
          "type": "address"
        },
        {
          "indexed": true,
          "internalType": "address",
          "name": "sender",
          "type": "address"
        }
      ],
      "name": "RoleGranted",
      "type": "event"
    },
    {
      "anonymous": false,
      "inputs": [
        {
          "indexed": true,
          "internalType": "bytes32",
          "name": "role",
          "type": "bytes32"
        },
        {
          "indexed": true,
          "internalType": "address",
          "name": "account",
          "type": "address"
        },
        {
          "indexed": true,
          "internalType": "address",
          "name": "sender",
          "type": "address"
        }
      ],
      "name": "RoleRevoked",
      "type": "event"
    },
    {
      "inputs": [],
      "name": "CIRCUIT_MANAGER_ROLE",
      "outputs": [
        {
          "internalType": "bytes32",
          "name": "",
          "type": "bytes32"
        }
      ],
      "stateMutability": "view",
      "type": "function"
    },
    {
      "inputs": [],
      "name": "DEFAULT_ADMIN_ROLE",
      "outputs": [
        {
          "internalType": "bytes32",
          "name": "",
          "type": "bytes32"
        }
      ],
      "stateMutability": "view",
      "type": "function"
    },
    {
      "inputs": [],
      "name": "EMERGENCY_ROLE",
      "outputs": [
        {
          "internalType": "bytes32",
          "name": "",
          "type": "bytes32"
        }
      ],
      "stateMutability": "view",
      "type": "function"
    },
    {
      "inputs": [],
      "name": "MAX_HISTORY_LENGTH",
      "outputs": [
        {
          "internalType": "uint256",
          "name": "",
          "type": "uint256"
        }
      ],
      "stateMutability": "view",
      "type": "function"
    },
    {
      "inputs": [
        {
          "internalType": "uint256",
          "name": "newPrice",
          "type": "uint256"
        }
      ],
      "name": "checkPrice",
      "outputs": [
        {
          "internalType": "bool",
          "name": "allowed",
          "type": "bool"
        },
        {
          "internalType": "uint256",
          "name": "deviation",
          "type": "uint256"
        }
      ],
      "stateMutability": "nonpayable",
      "type": "function"
    },
    {
      "inputs": [],
      "name": "config",
      "outputs": [
        {
          "internalType": "uint256",
          "name": "priceDeviationThreshold",
          "type": "uint256"
        },
        {
          "internalType": "uint256",
          "name": "timeWindow",
          "type": "uint256"
        },
        {
          "internalType": "uint256",
          "name": "cooldownPeriod",
          "type": "uint256"
        },
        {
          "internalType": "bool",
          "name": "isActive",
          "type": "bool"
        }
      ],
      "stateMutability": "view",
      "type": "function"
    },
    {
      "inputs": [],
      "name": "emergencyReset",
      "outputs": [],
      "stateMutability": "nonpayable",
      "type": "function"
    },
    {
      "inputs": [],
      "name": "getConfig",
      "outputs": [
        {
          "components": [
            {
              "internalType": "uint256",
              "name": "priceDeviationThreshold",
              "type": "uint256"
            },
            {
              "internalType": "uint256",
              "name": "timeWindow",
              "type": "uint256"
            },
            {
              "internalType": "uint256",
              "name": "cooldownPeriod",
              "type": "uint256"
            },
            {
              "internalType": "bool",
              "name": "isActive",
              "type": "bool"
            }
          ],
          "internalType": "struct ICircuitBreaker.CircuitBreakerConfig",
          "name": "",
          "type": "tuple"
        }
      ],
      "stateMutability": "view",
      "type": "function"
    },
    {
      "inputs": [],
      "name": "getLastPrice",
      "outputs": [
        {
          "internalType": "uint256",
          "name": "price",
          "type": "uint256"
        },
        {
          "internalType": "uint256",
          "name": "timestamp",
          "type": "uint256"
        }
      ],
      "stateMutability": "view",
      "type": "function"
    },
    {
      "inputs": [
        {
          "internalType": "uint256",
          "name": "index",
          "type": "uint256"
        }
      ],
      "name": "getPriceHistoryEntry",
      "outputs": [
        {
          "internalType": "uint256",
          "name": "price",
          "type": "uint256"
        },
        {
          "internalType": "uint256",
          "name": "timestamp",
          "type": "uint256"
        }
      ],
      "stateMutability": "view",
      "type": "function"
    },
    {
      "inputs": [],
      "name": "getPriceHistoryLength",
      "outputs": [
        {
          "internalType": "uint256",
          "name": "",
          "type": "uint256"
        }
      ],
      "stateMutability": "view",
      "type": "function"
    },
    {
      "inputs": [
        {
          "internalType": "bytes32",
          "name": "role",
          "type": "bytes32"
        }
      ],
      "name": "getRoleAdmin",
      "outputs": [
        {
          "internalType": "bytes32",
          "name": "",
          "type": "bytes32"
        }
      ],
      "stateMutability": "view",
      "type": "function"
    },
    {
      "inputs": [],
      "name": "getTimeUntilReset",
      "outputs": [
        {
          "internalType": "uint256",
          "name": "timeRemaining",
          "type": "uint256"
        }
      ],
      "stateMutability": "view",
      "type": "function"
    },
    {
      "inputs": [
        {
          "internalType": "bytes32",
          "name": "role",
          "type": "bytes32"
        },
        {
          "internalType": "address",
          "name": "account",
          "type": "address"
        }
      ],
      "name": "grantRole",
      "outputs": [],
      "stateMutability": "nonpayable",
      "type": "function"
    },
    {
      "inputs": [
        {
          "internalType": "bytes32",
          "name": "role",
          "type": "bytes32"
        },
        {
          "internalType": "address",
          "name": "account",
          "type": "address"
        }
      ],
      "name": "hasRole",
      "outputs": [
        {
          "internalType": "bool",
          "name": "",
          "type": "bool"
        }
      ],
      "stateMutability": "view",
      "type": "function"
    },
    {
      "inputs": [],
      "name": "isCurrentlyTriggered",
      "outputs": [
        {
          "internalType": "bool",
          "name": "",
          "type": "bool"
        }
      ],
      "stateMutability": "view",
      "type": "function"
    },
    {
      "inputs": [],
      "name": "isTriggered",
      "outputs": [
        {
          "internalType": "bool",
          "name": "triggered",
          "type": "bool"
        }
      ],
      "stateMutability": "view",
      "type": "function"
    },
    {
      "inputs": [],
      "name": "lastPrice",
      "outputs": [
        {
          "internalType": "uint256",
          "name": "",
          "type": "uint256"
        }
      ],
      "stateMutability": "view",
      "type": "function"
    },
    {
      "inputs": [],
      "name": "lastPriceTimestamp",
      "outputs": [
        {
          "internalType": "uint256",
          "name": "",
          "type": "uint256"
        }
      ],
      "stateMutability": "view",
      "type": "function"
    },
    {
      "inputs": [
        {
          "internalType": "uint256",
          "name": "",
          "type": "uint256"
        }
      ],
      "name": "priceHistory",
      "outputs": [
        {
          "internalType": "uint256",
          "name": "price",
          "type": "uint256"
        },
        {
          "internalType": "uint256",
          "name": "timestamp",
          "type": "uint256"
        }
      ],
      "stateMutability": "view",
      "type": "function"
    },
    {
      "inputs": [
        {
          "internalType": "bytes32",
          "name": "role",
          "type": "bytes32"
        },
        {
          "internalType": "address",
          "name": "account",
          "type": "address"
        }
      ],
      "name": "renounceRole",
      "outputs": [],
      "stateMutability": "nonpayable",
      "type": "function"
    },
    {
      "inputs": [
        {
          "internalType": "bytes32",
          "name": "role",
          "type": "bytes32"
        },
        {
          "internalType": "address",
          "name": "account",
          "type": "address"
        }
      ],
      "name": "revokeRole",
      "outputs": [],
      "stateMutability": "nonpayable",
      "type": "function"
    },
    {
      "inputs": [
        {
          "internalType": "bool",
          "name": "active",
          "type": "bool"
        }
      ],
      "name": "setActive",
      "outputs": [],
      "stateMutability": "nonpayable",
      "type": "function"
    },
    {
      "inputs": [
        {
          "internalType": "bytes4",
          "name": "interfaceId",
          "type": "bytes4"
        }
      ],
      "name": "supportsInterface",
      "outputs": [
        {
          "internalType": "bool",
          "name": "",
          "type": "bool"
        }
      ],
      "stateMutability": "view",
      "type": "function"
    },
    {
      "inputs": [],
      "name": "triggerTimestamp",
      "outputs": [
        {
          "internalType": "uint256",
          "name": "",
          "type": "uint256"
        }
      ],
      "stateMutability": "view",
      "type": "function"
    },
    {
      "inputs": [
        {
          "internalType": "uint256",
          "name": "priceDeviationThreshold",
          "type": "uint256"
        },
        {
          "internalType": "uint256",
          "name": "timeWindow",
          "type": "uint256"
        },
        {
          "internalType": "uint256",
          "name": "cooldownPeriod",
          "type": "uint256"
        }
      ],
      "name": "updateConfig",
      "outputs": [],
      "stateMutability": "nonpayable",
      "type": "function"
    }
  ],
  "bytecode": "0x6080346200020057601f620016ef38819003918201601f19168301926001600160401b03929091838511838610176200020557816060928492604097885283398101031262000200578051602092848484015193015193600091828052828252868320338452825260ff878420541615620001c8575b7f989ba6b16cc6d6383d1f04b2c67f311e853dd18b04e2a41b2e901e2ae6fe3380808452838352878420338552835260ff8885205416156200018e575b507fbf233dd2aafeb4d50879c4aa5c81e96d92f6e6945c906a58f9f2d1c1631b4b26808452838352878420338552835260ff88852054161562000154575b5086519260808401918211848310176200014057509184606092600194895285835282015285878201520152600155600255600355600160ff196004541617600455516114b390816200021c8239f35b634e487b7160e01b81526041600452602490fd5b8084528383528784203385528352878420600160ff1982541617905533903390600080516020620016cf8339815191528680a438620000f0565b8084528383528784203385528352878420600160ff1982541617905533903390600080516020620016cf8339815191528680a438620000b2565b8280528282528683203384528252868320600160ff19825416179055333384600080516020620016cf8339815191528180a462000075565b600080fd5b634e487b7160e01b600052604160045260246000fdfe608060408181526004918236101561001657600080fd5b600092833560e01c91826301ffc9a714610a4057508163053f14da14610a2157816316388836146107cb5781631d719699146107ac5781631de7463a1461077757816320df43591461073c578163248a9ca3146107125781632f2ff15d1461067457816336568abe146105ec5781633ccc9022146105b1578163513a39b71461058d578163614e8a78146104ff57816373ad4946146103d057816379502c55146103925781637d90c55b1461036c5781637de93f931461034d57816381360e7a1461033157816391d14854146102f7578163a217fddf146102dc578163a524c7ea146102bd578163acec338a14610287578163b27a048414610249578163c3f909d4146101c457508063d547741f14610191578063d8cf24fd146101695763edf166901461014357600080fd5b3461016557816003193601126101655760209060ff6008541690519015158152f35b5080fd5b50903461018e578060031936011261018e575060055460065482519182526020820152f35b80fd5b50346101655760016101c1916101bc6101a936610a93565b9390928387528660205286200154610d08565b610e9b565b80f35b91905034610245578260031936011261024557608092606082516101e781610e5d565b8281528260208201528284820152015280519061020382610e5d565b6001549283835260025460208401908152606060ff60035493858701948552541694019315158452825194855251602085015251908301525115156060820152f35b8280fd5b8391503461016557602036600319011261016557359060095482101561018e575061027390610abe565b506001815491015482519182526020820152f35b839034610165576020366003190112610165578035801515809103610245576102ae610b0e565b60ff8019835416911617905580f35b5050346101655781600319360112610165576020906009549051908152f35b50503461016557816003193601126101655751908152602090f35b5050346101655760ff8160209361030d36610a93565b9082528186528282206001600160a01b039091168252855220549151911615158152f35b5050346101655781600319360112610165576020905160648152f35b5050346101655781600319360112610165576020906006549051908152f35b50503461016557816003193601126101655760209061038961104a565b90519015158152f35b9190503461024557826003193601126102455760809250600154916002549160ff600354925416928151948552602085015283015215156060820152f35b90503461024557606036600319011261024557803591602435604435926103f5610b0e565b6107d085116104c757603c821061048c5761012c841061045457509183916060937f6d05db271e19f930af71c4765de54ef86294762644c20f4d6fd2609d057d3c7b95600155806002558260035581519384526020840152820152a180f35b606490602084519162461bcd60e51b8352820152601260248201527110dbdbdb191bdddb881d1bdbc81cda1bdc9d60721b6044820152fd5b606490602084519162461bcd60e51b83528201526015602482015274151a5b59481dda5b991bddc81d1bdbc81cda1bdc9d605a1b6044820152fd5b606490602084519162461bcd60e51b835282015260126024820152710a8d0e4cae6d0ded8c840e8dede40d0d2ced60731b6044820152fd5b9050823461018e57602036600319011261018e5750803590600954821015610554575061052b90610abe565b506020825161053981610e2b565b60018354938483520154918291015282519182526020820152f35b606490602084519162461bcd60e51b83528201526013602482015272496e646578206f7574206f6620626f756e647360681b6044820152fd5b5050346101655781600319360112610165576020906105aa61135d565b9051908152f35b505034610165578160031936011261016557602090517f989ba6b16cc6d6383d1f04b2c67f311e853dd18b04e2a41b2e901e2ae6fe33808152f35b83915034610165576105fd36610a93565b91336001600160a01b038416036106195750906101c191610e9b565b608490602086519162461bcd60e51b8352820152602f60248201527f416363657373436f6e74726f6c3a2063616e206f6e6c792072656e6f756e636560448201526e103937b632b9903337b91039b2b63360891b6064820152fd5b5050346101655761068436610a93565b90918284528360205261069c60018286200154610d08565b82845260208481528185206001600160a01b039093168086529290528084205460ff16156106c8578380f35b828452836020528084208285526020528320600160ff1982541617905533917f2f8788117e7eff1d82e926ec794901d17c78024a50270940304540a733656f0d8480a43880808380f35b90503461024557602036600319011261024557816020936001923581528085522001549051908152f35b505034610165578160031936011261016557602090517fbf233dd2aafeb4d50879c4aa5c81e96d92f6e6945c906a58f9f2d1c1631b4b268152f35b9050823461018e57602036600319011261018e575061079e90610798610b0e565b3561106e565b825191151582526020820152f35b5050346101655781600319360112610165576020906007549051908152f35b919050346102455782600319360112610245577fbf233dd2aafeb4d50879c4aa5c81e96d92f6e6945c906a58f9f2d1c1631b4b2691828452602092848452828520338652845260ff83862054161561085757847fcdce3dd4437cfe68002ed06c2f62be3eae06c268cb56d71b3c98825f4f9d7d34858560ff19600854166008558360075551428152a180f35b90929361086333610f50565b9183519061087082610e5d565b60428252868201926060368537825115610a0e576030845382516001908110156109fb5790607860218501536041915b8083116109a357505050610962578361093260488895610954956109239560449a99519687936108fa8b86019b76020b1b1b2b9b9a1b7b73a3937b61d1030b1b1b7bab73a1604d1b8d528251928391603789019101610e08565b8401917001034b99036b4b9b9b4b733903937b6329607d1b603784015251809386840190610e08565b01036028810185520183610e79565b5195869462461bcd60e51b865285015251809281602486015285850190610e08565b601f01601f19168101030190fd5b606485878087519262461bcd60e51b845283015260248201527f537472696e67733a20686578206c656e67746820696e73756666696369656e746044820152fd5b909192600f811660108110156109e8576109e191906f181899199a1a9b1b9c1cb0b131b232b360811b901a6109d88688610f32565b53891c93610f43565b91906108a0565b634e487b7160e01b845260328a52602484fd5b634e487b7160e01b825260328852602482fd5b634e487b7160e01b815260328752602490fd5b5050346101655781600319360112610165576020906005549051908152f35b849134610245576020366003190112610245573563ffffffff60e01b81168091036102455760209250637965db0b60e01b8114908115610a82575b5015158152f35b6301ffc9a760e01b14905083610a7b565b6040906003190112610ab957600435906024356001600160a01b0381168103610ab95790565b600080fd5b600954811015610af857600960005260011b7f6e1540171b6c0c960b71a7020d9f60077f6af931a8bbf590da0223dacf75c7af0190600090565b634e487b7160e01b600052603260045260246000fd5b3360009081527f6a112c2d81bdd237e93d567819c31ae1d3f46752b23ad7c5dbb3951914f4011a6020908152604080832054909291907f989ba6b16cc6d6383d1f04b2c67f311e853dd18b04e2a41b2e901e2ae6fe33809060ff1615610b745750505050565b610b7d33610f50565b90845190610b8a82610e5d565b60428252838201946060368737825115610cf457603086538251600190811015610ce05790607860218501536041915b808311610c8657505050610c445784610c206048610954936044979851988991610c118984019876020b1b1b2b9b9a1b7b73a3937b61d1030b1b1b7bab73a1604d1b8a526108fa815180928d603789019101610e08565b01036028810189520187610e79565b5194859362461bcd60e51b8552600485015251809281602486015285850190610e08565b60648386519062461bcd60e51b825280600483015260248201527f537472696e67733a20686578206c656e67746820696e73756666696369656e746044820152fd5b909192600f81166010811015610ccc57610cc591906f181899199a1a9b1b9c1cb0b131b232b360811b901a610cbb8688610f32565b5360041c93610f43565b9190610bba565b634e487b7160e01b84526032600452602484fd5b634e487b7160e01b82526032600452602482fd5b634e487b7160e01b81526032600452602490fd5b60008181526020818152604092838320338452825260ff848420541615610d2f5750505050565b610d3833610f50565b90845190610d4582610e5d565b60428252838201946060368737825115610cf457603086538251600190811015610ce05790607860218501536041915b808311610dcc57505050610c445784610c206048610954936044979851988991610c118984019876020b1b1b2b9b9a1b7b73a3937b61d1030b1b1b7bab73a1604d1b8a526108fa815180928d603789019101610e08565b909192600f81166010811015610ccc57610e0191906f181899199a1a9b1b9c1cb0b131b232b360811b901a610cbb8688610f32565b9190610d75565b60005b838110610e1b5750506000910152565b8181015183820152602001610e0b565b6040810190811067ffffffffffffffff821117610e4757604052565b634e487b7160e01b600052604160045260246000fd5b6080810190811067ffffffffffffffff821117610e4757604052565b90601f8019910116810190811067ffffffffffffffff821117610e4757604052565b9060009180835282602052604083209160018060a01b03169182845260205260ff604084205416610ecb57505050565b80835282602052604083208284526020526040832060ff1981541690557ff6391f5c32d9c69d2a47ea670b442974b53935d1edc7fd64eb21e047a839171b339380a4565b91908201809211610f1c57565b634e487b7160e01b600052601160045260246000fd5b908151811015610af8570160200190565b8015610f1c576000190190565b604051906060820182811067ffffffffffffffff821117610e4757604052602a8252602082016040368237825115610af857603090538151600190811015610af857607860218401536029905b808211610ff1575050610fad5790565b606460405162461bcd60e51b815260206004820152602060248201527f537472696e67733a20686578206c656e67746820696e73756666696369656e746044820152fd5b9091600f81169060108210156110355761102f916f181899199a1a9b1b9c1cb0b131b232b360811b901a6110258587610f32565b5360041c92610f43565b90610f9d565b60246000634e487b7160e01b81526032600452fd5b60ff60085416156110695761106460075460035490610f0f565b421090565b600090565b90600091600090600460ff815416156113465760408051637d90c55b60e01b81526020919082818581305afa90811561133c578691611302575b506112f75760085460ff8116806112df575b6112aa575b5060055480611240575b5051906110d582610e2b565b8382528101934285526009918254956801000000000000000087101561122d576111056001978881018655610abe565b929092611203575182555190860155815460641061112c575b505050600555426006559190565b80855b611187575b508154801561117457600019019261114b84610abe565b91909161116257508181558501555538808061111e565b634e487b7160e01b8352829052602482fd5b634e487b7160e01b825260318452602482fd5b825460631981019081116112155781101561122857858101808211611215576111af90610abe565b506111b982610abe565b9190916112035780889183036111f1575b50505060001981146111de5785018561112f565b634e487b7160e01b825260118452602482fd5b805483558101549101553886816111ca565b634e487b7160e01b8452838652602484fd5b634e487b7160e01b835260118552602483fd5b611134565b634e487b7160e01b835260418552602483fd5b965061124c8488611393565b966001548811156110c957611260856113e9565b156110c95792507f666c591e952a2a959442667b42f969d270acb593ac1d3f2c0b11bda6f63fa97b91600160ff196008541617600855426007558151908882524290820152a39190565b60ff19166008557fcdce3dd4437cfe68002ed06c2f62be3eae06c268cb56d71b3c98825f4f9d7d34828251428152a1386110bf565b506112ef60075460035490610f0f565b4210156110ba565b505050508092509190565b90508281813d8311611335575b6113198183610e79565b810103126113315751801515810361133157386110a8565b8580fd5b503d61130f565b82513d88823e3d90fd5b5050915060019190565b91908203918211610f1c57565b60ff60085416156110695761137760075460035490610f0f565b8042101561138d5761138a904290611350565b90565b50600090565b9081808211156113da576113a691611350565b61271090818102918183041490151715610f1c5781156113c4570490565b634e487b7160e01b600052601260045260246000fd5b906113e491611350565b6113a6565b906009549182156114765761140060025442611350565b928190805b61141d575b50611416929350611393565b6001541090565b906000198201908282116114615785600161143784610abe565b5001541061145a575061144c61145491610abe565b505491610f43565b80611405565b915061140a565b60246000634e487b7160e01b81526011600452fd5b506000915056fea2646970667358221220e43815ecda6408dc7e67e5c732bca9e85e7904983f04bb936bb56aed23ce837564736f6c634300081300332f8788117e7eff1d82e926ec794901d17c78024a50270940304540a733656f0d",
  "linkReferences": {},
  "deployedLinkReferences": {}
}