{
  "_format": "hh-sol-artifact-1",
  "contractName": "PentaGoldTimelock",
  "sourceName": "contracts/governance/TimelockController.sol",
  "abi": [
    {
      "inputs": [
        {
          "internalType": "address[]",
          "name": "proposers",
          "type": "address[]"
        },
        {
          "internalType": "address[]",
          "name": "executors",
          "type": "address[]"
        },
        {
          "internalType": "address",
          "name": "admin",
          "type": "address"
        }
      ],
      "stateMutability": "nonpayable",
      "type": "constructor"
    },
    {
      "anonymous": false,
      "inputs": [
        {
          "indexed": true,
          "internalType": "bytes32",
          "name": "id",
          "type": "bytes32"
        },
        {
          "indexed": true,
          "internalType": "uint256",
          "name": "index",
          "type": "uint256"
        },
        {
          "indexed": false,
          "internalType": "address",
          "name": "target",
          "type": "address"
        },
        {
          "indexed": false,
          "internalType": "uint256",
          "name": "value",
          "type": "uint256"
        },
        {
          "indexed": false,
          "internalType": "bytes",
          "name": "data",
          "type": "bytes"
        }
      ],
      "name": "CallExecuted",
      "type": "event"
    },
    {
      "anonymous": false,
      "inputs": [
        {
          "indexed": true,
          "internalType": "bytes32",
          "name": "id",
          "type": "bytes32"
        },
        {
          "indexed": false,
          "internalType": "bytes32",
          "name": "salt",
          "type": "bytes32"
        }
      ],
      "name": "CallSalt",
      "type": "event"
    },
    {
      "anonymous": false,
      "inputs": [
        {
          "indexed": true,
          "internalType": "bytes32",
          "name": "id",
          "type": "bytes32"
        },
        {
          "indexed": true,
          "internalType": "uint256",
          "name": "index",
          "type": "uint256"
        },
        {
          "indexed": false,
          "internalType": "address",
          "name": "target",
          "type": "address"
        },
        {
          "indexed": false,
          "internalType": "uint256",
          "name": "value",
          "type": "uint256"
        },
        {
          "indexed": false,
          "internalType": "bytes",
          "name": "data",
          "type": "bytes"
        },
        {
          "indexed": false,
          "internalType": "bytes32",
          "name": "predecessor",
          "type": "bytes32"
        },
        {
          "indexed": false,
          "internalType": "uint256",
          "name": "delay",
          "type": "uint256"
        }
      ],
      "name": "CallScheduled",
      "type": "event"
    },
    {
      "anonymous": false,
      "inputs": [
        {
          "indexed": true,
          "internalType": "bytes32",
          "name": "id",
          "type": "bytes32"
        }
      ],
      "name": "Cancelled",
      "type": "event"
    },
    {
      "anonymous": false,
      "inputs": [
        {
          "indexed": false,
          "internalType": "uint256",
          "name": "oldDuration",
          "type": "uint256"
        },
        {
          "indexed": false,
          "internalType": "uint256",
          "name": "newDuration",
          "type": "uint256"
        }
      ],
      "name": "MinDelayChange",
      "type": "event"
    },
    {
      "anonymous": false,
      "inputs": [
        {
          "indexed": true,
          "internalType": "bytes32",
          "name": "role",
          "type": "bytes32"
        },
        {
          "indexed": true,
          "internalType": "bytes32",
          "name": "previousAdminRole",
          "type": "bytes32"
        },
        {
          "indexed": true,
          "internalType": "bytes32",
          "name": "newAdminRole",
          "type": "bytes32"
        }
      ],
      "name": "RoleAdminChanged",
      "type": "event"
    },
    {
      "anonymous": false,
      "inputs": [
        {
          "indexed": true,
          "internalType": "bytes32",
          "name": "role",
          "type": "bytes32"
        },
        {
          "indexed": true,
          "internalType": "address",
          "name": "account",
          "type": "address"
        },
        {
          "indexed": true,
          "internalType": "address",
          "name": "sender",
          "type": "address"
        }
      ],
      "name": "RoleGranted",
      "type": "event"
    },
    {
      "anonymous": false,
      "inputs": [
        {
          "indexed": true,
          "internalType": "bytes32",
          "name": "role",
          "type": "bytes32"
        },
        {
          "indexed": true,
          "internalType": "address",
          "name": "account",
          "type": "address"
        },
        {
          "indexed": true,
          "internalType": "address",
          "name": "sender",
          "type": "address"
        }
      ],
      "name": "RoleRevoked",
      "type": "event"
    },
    {
      "inputs": [],
      "name": "CANCELLER_ROLE",
      "outputs": [
        {
          "internalType": "bytes32",
          "name": "",
          "type": "bytes32"
        }
      ],
      "stateMutability": "view",
      "type": "function"
    },
    {
      "inputs": [],
      "name": "DEFAULT_ADMIN_ROLE",
      "outputs": [
        {
          "internalType": "bytes32",
          "name": "",
          "type": "bytes32"
        }
      ],
      "stateMutability": "view",
      "type": "function"
    },
    {
      "inputs": [],
      "name": "EXECUTOR_ROLE",
      "outputs": [
        {
          "internalType": "bytes32",
          "name": "",
          "type": "bytes32"
        }
      ],
      "stateMutability": "view",
      "type": "function"
    },
    {
      "inputs": [],
      "name": "MAX_DELAY",
      "outputs": [
        {
          "internalType": "uint256",
          "name": "",
          "type": "uint256"
        }
      ],
      "stateMutability": "view",
      "type": "function"
    },
    {
      "inputs": [],
      "name": "MIN_DELAY",
      "outputs": [
        {
          "internalType": "uint256",
          "name": "",
          "type": "uint256"
        }
      ],
      "stateMutability": "view",
      "type": "function"
    },
    {
      "inputs": [],
      "name": "PROPOSER_ROLE",
      "outputs": [
        {
          "internalType": "bytes32",
          "name": "",
          "type": "bytes32"
        }
      ],
      "stateMutability": "view",
      "type": "function"
    },
    {
      "inputs": [],
      "name": "TIMELOCK_ADMIN_ROLE",
      "outputs": [
        {
          "internalType": "bytes32",
          "name": "",
          "type": "bytes32"
        }
      ],
      "stateMutability": "view",
      "type": "function"
    },
    {
      "inputs": [
        {
          "internalType": "bytes32",
          "name": "id",
          "type": "bytes32"
        }
      ],
      "name": "cancel",
      "outputs": [],
      "stateMutability": "nonpayable",
      "type": "function"
    },
    {
      "inputs": [
        {
          "internalType": "address",
          "name": "target",
          "type": "address"
        },
        {
          "internalType": "uint256",
          "name": "value",
          "type": "uint256"
        },
        {
          "internalType": "bytes",
          "name": "payload",
          "type": "bytes"
        },
        {
          "internalType": "bytes32",
          "name": "predecessor",
          "type": "bytes32"
        },
        {
          "internalType": "bytes32",
          "name": "salt",
          "type": "bytes32"
        }
      ],
      "name": "execute",
      "outputs": [],
      "stateMutability": "payable",
      "type": "function"
    },
    {
      "inputs": [
        {
          "internalType": "address[]",
          "name": "targets",
          "type": "address[]"
        },
        {
          "internalType": "uint256[]",
          "name": "values",
          "type": "uint256[]"
        },
        {
          "internalType": "bytes[]",
          "name": "payloads",
          "type": "bytes[]"
        },
        {
          "internalType": "bytes32",
          "name": "predecessor",
          "type": "bytes32"
        },
        {
          "internalType": "bytes32",
          "name": "salt",
          "type": "bytes32"
        }
      ],
      "name": "executeBatch",
      "outputs": [],
      "stateMutability": "payable",
      "type": "function"
    },
    {
      "inputs": [],
      "name": "getMaxDelay",
      "outputs": [
        {
          "internalType": "uint256",
          "name": "",
          "type": "uint256"
        }
      ],
      "stateMutability": "pure",
      "type": "function"
    },
    {
      "inputs": [],
      "name": "getMinDelay",
      "outputs": [
        {
          "internalType": "uint256",
          "name": "",
          "type": "uint256"
        }
      ],
      "stateMutability": "view",
      "type": "function"
    },
    {
      "inputs": [
        {
          "internalType": "bytes32",
          "name": "role",
          "type": "bytes32"
        }
      ],
      "name": "getRoleAdmin",
      "outputs": [
        {
          "internalType": "bytes32",
          "name": "",
          "type": "bytes32"
        }
      ],
      "stateMutability": "view",
      "type": "function"
    },
    {
      "inputs": [
        {
          "internalType": "bytes32",
          "name": "id",
          "type": "bytes32"
        }
      ],
      "name": "getTimestamp",
      "outputs": [
        {
          "internalType": "uint256",
          "name": "",
          "type": "uint256"
        }
      ],
      "stateMutability": "view",
      "type": "function"
    },
    {
      "inputs": [
        {
          "internalType": "bytes32",
          "name": "role",
          "type": "bytes32"
        },
        {
          "internalType": "address",
          "name": "account",
          "type": "address"
        }
      ],
      "name": "grantRole",
      "outputs": [],
      "stateMutability": "nonpayable",
      "type": "function"
    },
    {
      "inputs": [
        {
          "internalType": "bytes32",
          "name": "role",
          "type": "bytes32"
        },
        {
          "internalType": "address",
          "name": "account",
          "type": "address"
        }
      ],
      "name": "hasRole",
      "outputs": [
        {
          "internalType": "bool",
          "name": "",
          "type": "bool"
        }
      ],
      "stateMutability": "view",
      "type": "function"
    },
    {
      "inputs": [
        {
          "internalType": "address",
          "name": "target",
          "type": "address"
        },
        {
          "internalType": "uint256",
          "name": "value",
          "type": "uint256"
        },
        {
          "internalType": "bytes",
          "name": "data",
          "type": "bytes"
        },
        {
          "internalType": "bytes32",
          "name": "predecessor",
          "type": "bytes32"
        },
        {
          "internalType": "bytes32",
          "name": "salt",
          "type": "bytes32"
        }
      ],
      "name": "hashOperation",
      "outputs": [
        {
          "internalType": "bytes32",
          "name": "",
          "type": "bytes32"
        }
      ],
      "stateMutability": "pure",
      "type": "function"
    },
    {
      "inputs": [
        {
          "internalType": "address[]",
          "name": "targets",
          "type": "address[]"
        },
        {
          "internalType": "uint256[]",
          "name": "values",
          "type": "uint256[]"
        },
        {
          "internalType": "bytes[]",
          "name": "payloads",
          "type": "bytes[]"
        },
        {
          "internalType": "bytes32",
          "name": "predecessor",
          "type": "bytes32"
        },
        {
          "internalType": "bytes32",
          "name": "salt",
          "type": "bytes32"
        }
      ],
      "name": "hashOperationBatch",
      "outputs": [
        {
          "internalType": "bytes32",
          "name": "",
          "type": "bytes32"
        }
      ],
      "stateMutability": "pure",
      "type": "function"
    },
    {
      "inputs": [
        {
          "internalType": "bytes32",
          "name": "id",
          "type": "bytes32"
        }
      ],
      "name": "isOperation",
      "outputs": [
        {
          "internalType": "bool",
          "name": "",
          "type": "bool"
        }
      ],
      "stateMutability": "view",
      "type": "function"
    },
    {
      "inputs": [
        {
          "internalType": "bytes32",
          "name": "id",
          "type": "bytes32"
        }
      ],
      "name": "isOperationDone",
      "outputs": [
        {
          "internalType": "bool",
          "name": "",
          "type": "bool"
        }
      ],
      "stateMutability": "view",
      "type": "function"
    },
    {
      "inputs": [
        {
          "internalType": "bytes32",
          "name": "id",
          "type": "bytes32"
        }
      ],
      "name": "isOperationPending",
      "outputs": [
        {
          "internalType": "bool",
          "name": "",
          "type": "bool"
        }
      ],
      "stateMutability": "view",
      "type": "function"
    },
    {
      "inputs": [
        {
          "internalType": "bytes32",
          "name": "id",
          "type": "bytes32"
        }
      ],
      "name": "isOperationReady",
      "outputs": [
        {
          "internalType": "bool",
          "name": "",
          "type": "bool"
        }
      ],
      "stateMutability": "view",
      "type": "function"
    },
    {
      "inputs": [
        {
          "internalType": "address",
          "name": "",
          "type": "address"
        },
        {
          "internalType": "address",
          "name": "",
          "type": "address"
        },
        {
          "internalType": "uint256[]",
          "name": "",
          "type": "uint256[]"
        },
        {
          "internalType": "uint256[]",
          "name": "",
          "type": "uint256[]"
        },
        {
          "internalType": "bytes",
          "name": "",
          "type": "bytes"
        }
      ],
      "name": "onERC1155BatchReceived",
      "outputs": [
        {
          "internalType": "bytes4",
          "name": "",
          "type": "bytes4"
        }
      ],
      "stateMutability": "nonpayable",
      "type": "function"
    },
    {
      "inputs": [
        {
          "internalType": "address",
          "name": "",
          "type": "address"
        },
        {
          "internalType": "address",
          "name": "",
          "type": "address"
        },
        {
          "internalType": "uint256",
          "name": "",
          "type": "uint256"
        },
        {
          "internalType": "uint256",
          "name": "",
          "type": "uint256"
        },
        {
          "internalType": "bytes",
          "name": "",
          "type": "bytes"
        }
      ],
      "name": "onERC1155Received",
      "outputs": [
        {
          "internalType": "bytes4",
          "name": "",
          "type": "bytes4"
        }
      ],
      "stateMutability": "nonpayable",
      "type": "function"
    },
    {
      "inputs": [
        {
          "internalType": "address",
          "name": "",
          "type": "address"
        },
        {
          "internalType": "address",
          "name": "",
          "type": "address"
        },
        {
          "internalType": "uint256",
          "name": "",
          "type": "uint256"
        },
        {
          "internalType": "bytes",
          "name": "",
          "type": "bytes"
        }
      ],
      "name": "onERC721Received",
      "outputs": [
        {
          "internalType": "bytes4",
          "name": "",
          "type": "bytes4"
        }
      ],
      "stateMutability": "nonpayable",
      "type": "function"
    },
    {
      "inputs": [
        {
          "internalType": "bytes32",
          "name": "role",
          "type": "bytes32"
        },
        {
          "internalType": "address",
          "name": "account",
          "type": "address"
        }
      ],
      "name": "renounceRole",
      "outputs": [],
      "stateMutability": "nonpayable",
      "type": "function"
    },
    {
      "inputs": [
        {
          "internalType": "bytes32",
          "name": "role",
          "type": "bytes32"
        },
        {
          "internalType": "address",
          "name": "account",
          "type": "address"
        }
      ],
      "name": "revokeRole",
      "outputs": [],
      "stateMutability": "nonpayable",
      "type": "function"
    },
    {
      "inputs": [
        {
          "internalType": "address",
          "name": "target",
          "type": "address"
        },
        {
          "internalType": "uint256",
          "name": "value",
          "type": "uint256"
        },
        {
          "internalType": "bytes",
          "name": "data",
          "type": "bytes"
        },
        {
          "internalType": "bytes32",
          "name": "predecessor",
          "type": "bytes32"
        },
        {
          "internalType": "bytes32",
          "name": "salt",
          "type": "bytes32"
        },
        {
          "internalType": "uint256",
          "name": "delay",
          "type": "uint256"
        }
      ],
      "name": "schedule",
      "outputs": [],
      "stateMutability": "nonpayable",
      "type": "function"
    },
    {
      "inputs": [
        {
          "internalType": "address[]",
          "name": "targets",
          "type": "address[]"
        },
        {
          "internalType": "uint256[]",
          "name": "values",
          "type": "uint256[]"
        },
        {
          "internalType": "bytes[]",
          "name": "payloads",
          "type": "bytes[]"
        },
        {
          "internalType": "bytes32",
          "name": "predecessor",
          "type": "bytes32"
        },
        {
          "internalType": "bytes32",
          "name": "salt",
          "type": "bytes32"
        },
        {
          "internalType": "uint256",
          "name": "delay",
          "type": "uint256"
        }
      ],
      "name": "scheduleBatch",
      "outputs": [],
      "stateMutability": "nonpayable",
      "type": "function"
    },
    {
      "inputs": [
        {
          "internalType": "bytes4",
          "name": "interfaceId",
          "type": "bytes4"
        }
      ],
      "name": "supportsInterface",
      "outputs": [
        {
          "internalType": "bool",
          "name": "",
          "type": "bool"
        }
      ],
      "stateMutability": "view",
      "type": "function"
    },
    {
      "inputs": [
        {
          "internalType": "uint256",
          "name": "newDelay",
          "type": "uint256"
        }
      ],
      "name": "updateDelay",
      "outputs": [],
      "stateMutability": "nonpayable",
      "type": "function"
    },
    {
      "stateMutability": "payable",
      "type": "receive"
    }
  ],
  "bytecode": "0x60406080815234620004465762002325803803806200001e816200044b565b9283398101606082820312620004465781516001600160401b039290838111620004465782620000509183016200049c565b926020928383015191821162000446576200007386916200007b9385016200049c565b920162000487565b7f5f58e3a2316349923ce3780f8d587db2d72378aed66a8261c916544fa6846ca56000948186528585526001928388882001918383549355837fbd79b86ffe0ab8e8776151514217cd7cacd52c909f66475c3af44e129f0b00ff9381858b80a4848080868b8d887fb09aa5aeb3702cfd50b6b62bc4532604938f21248a27a1d5ca736082b6819cc194859283855284200192848454945580a4868b8d7fd8aa0f3194971a2a116679f7c2090f6939c8d4e01a2a8d7e41d55e5351469e639889835283868385200181815491558b838680a47ffd643c72710c63c0180259aba6b2d05451e3591a24e58b62239378085726f78395869283855284200192848454945580a4868b528b8b20308c528a528a8c60ff98898284205416156200040f575b6001600160a01b03978816918d83620003ba575b509c9b9a999897969583925090505b620002ae575b935087925050505b62000217575b877f11c24f4ead16507c69ac467fbd5e4eed5fb5c699626d2cc6d66421df253886d5818b8a6202a30090816002558351928352820152a151611da59081620005608239f35b909192939495968651821015620002a65750906200026182826200023d88958a62000534565b5116858b528a8a528b8b20818c528a52868c8c205416156200026e575b506200050e565b89979695949392620001cc565b858b528a8a528b8b20818c528a528b8b20805460ff191686179055339086600080516020620023058339815191528d80a4386200025a565b9695620001d2565b8a899a9b9c869798999a9651841015620003ab579083929189620002d76200032a968b62000534565b511686845283835281842081855283528c82852054161562000373575b508962000302858b62000534565b51169187845283815281842083855281528c8285205416156200033a575b505050506200050e565b8b8d9b9a999897969594620001be565b878452838152818420908385525282208760ff198254161790558560008051602062002305833981519152339380a48c388f8e62000320565b8684528383528184208185528352818420805460ff19168a179055339087600080516020620023058339815191528680a438620002f4565b9c509a999897969550620001c4565b8490838252528d81852090848652528d8b8286205416620001af578285528490528084208385528e528320805460ff1916871790553392600080516020620023058339815191529080a48a38808e8d620001af565b808352828d528183203084528d528183208660ff19825416179055333082600080516020620023058339815191528680a46200019b565b600080fd5b6040519190601f01601f191682016001600160401b038111838210176200047157604052565b634e487b7160e01b600052604160045260246000fd5b51906001600160a01b03821682036200044657565b81601f8201121562000446578051916001600160401b03831162000471578260051b6020928380620004d08185016200044b565b80978152019282010192831162000446578301905b828210620004f4575050505090565b838091620005028462000487565b815201910190620004e5565b60001981146200051e5760010190565b634e487b7160e01b600052601160045260246000fd5b8051821015620005495760209160051b010190565b634e487b7160e01b600052603260045260246000fdfe608060405260048036101561001d575b50361561001b57600080fd5b005b600090813560e01c90816301d5062a14610e2a57816301ffc9a714610dba57816307bd026514610d915781630d359e9014610a5d5781630d3cf6fc14610d56578163134008d314610cb457816313bc9f2014610c96578163150b7a0214610c40578163248a9ca314610c145781632ab0f52914610be75781632f2ff15d14610b3857816331d5075014610b0c57816336568abe14610a7b5781634125ff9014610a5d578163584b153e14610a2657816364d62353146109785781638065657f146109585781638f2a0bb01461080b5781638f61f4f5146107d057816391d14854146107875781639f81aed714610769578163a217fddf1461074d578163b08e51c014610712578163b1c5f427146106e7578163bc197c811461065c578163c4d252f514610379578163d45c44351461034f578163d547741f14610310578163e38335e5146101f9578163f23a6e611461019b575063f27a0c920361000f573461019857806003193601126101985760206040516202a3008152f35b80fd5b9050346101f55760a03660031901126101f5576101b6610f07565b506101bf610f22565b506084356001600160401b0381116101f1576101de9250369101611020565b5060405163f23a6e6160e01b8152602090f35b8280fd5b5080fd5b8261026c60ff60406102658461020e36611097565b92848688849f989c979a9e8f90859f8e899f600080516020611d50833981519152909a999a528060205281812081805260205220541615610302575b61025584831461185e565b61026086831461185e565b6116e8565b9788611b7c565b875b818110610282578861027f89611c12565b80f35b8080897fc2617efa69bab66782fa219543714338489c4e9e178271560a91b82c3f612b5889896102f56102dc868f6102d5828f928f908f6102fd9f6102ca916102cf936118db565b611901565b976118db565b3595611915565b906102e982828787611a6e565b60405194859485611a47565b0390a36118b6565b61026e565b61030b33611383565b61024a565b9050346101f55760403660031901126101f55761027f9035610330610f22565b908084528360205261034a600160408620015433906114c2565b6115da565b9050346101f55760203660031901126101f557602091604091358152600183522054604051908152f35b9050346101f5576020806003193601126101f1578135917ffd643c72710c63c0180259aba6b2d05451e3591a24e58b62239378085726f78380855284835260408520338652835260ff6040862054161561047c57506103e683600052600160205260016040600020541190565b156104205750600190828452528160408120557fbaa1eb22f2a492ba1a5fea61b8df4d27c6c8b5f3971e63bb58fa14ff72eedb708280a280f35b6084916040519162461bcd60e51b8352820152603160248201527f54696d656c6f636b436f6e74726f6c6c65723a206f7065726174696f6e2063616044820152701b9b9bdd0818994818d85b98d95b1b1959607a1b6064820152fd5b8461048633611c41565b916040519061049482610fb3565b6042825285820192606036853782511561064957603084538251906001918210156106365790607860218501536041915b8183116105cb57505050610589576044939291610557604861057b936040519384916105488b84019876020b1b1b2b9b9a1b7b73a3937b61d1030b1b1b7bab73a1604d1b8a5261051f8d825192839160378901910161115e565b8401917001034b99036b4b9b9b4b733903937b6329607d1b60378401525180938684019061115e565b01036028810184520182610fe4565b60405195869462461bcd60e51b86528501525180928160248601528585019061115e565b601f01601f19168101030190fd5b60648486806040519262461bcd60e51b845283015260248201527f537472696e67733a20686578206c656e67746820696e73756666696369656e746044820152fd5b909192600f81166010811015610623576f181899199a1a9b1b9c1cb0b131b232b360811b901a6105fb8587611c30565b53871c928015610610576000190191906104c5565b634e487b7160e01b825260118852602482fd5b634e487b7160e01b835260328952602483fd5b634e487b7160e01b815260328752602490fd5b634e487b7160e01b815260328652602490fd5b9050346101f55760a03660031901126101f557610677610f07565b50610680610f22565b506001600160401b036044358181116106e3576106a090369084016110f8565b506064358181116106e3576106b890369084016110f8565b506084359081116101f1576106d09250369101611020565b5060405163bc197c8160e01b8152602090f35b8380fd5b823461019857602061070a6106fb36611097565b969590959491949392936116e8565b604051908152f35b823461019857806003193601126101985760206040517ffd643c72710c63c0180259aba6b2d05451e3591a24e58b62239378085726f7838152f35b8234610198578060031936011261019857602090604051908152f35b823461019857806003193601126101985760206040516202a3008152f35b9050346101f55760403660031901126101f557604060209260ff926107aa610f22565b903582528185528282206001600160a01b03909116825284522054604051911615158152f35b823461019857806003193601126101985760206040517fb09aa5aeb3702cfd50b6b62bc4532604938f21248a27a1d5ca736082b6819cc18152f35b9050346101f55760c03660031901126101f5576001600160401b039080358281116106e35761083d9036908301611067565b92602435818111610954576108559036908501611067565b9190936044359182116109505761087184918693369101611067565b6064949194359161089389848489856084359d8e9560a4359b61024a33611181565b9861089e858b611956565b898b5b8281106108e5578c828c806108b4578280f35b60207f20fda5fd27a1ea7bf5b9567f143ac5470bb059374a27e8f67cb44f946f6d038791604051908152a281808280f35b80610949927f4cf4410cc57040e44862ef0f45f3dd5a5e02db8eb8add648d4b0e236f1d07dca8b8b6102f58f8c61093c8f928e6109358f8f9061092f6102ca8f80979481956118db565b996118db565b3597611915565b9060405196879687611826565b8a906108a1565b8680fd5b8580fd5b823461019857602061070a61096c36610f65565b94939093929192611693565b9050346101f55760203660031901126101f5578035903033036109ce57507f11c24f4ead16507c69ac467fbd5e4eed5fb5c699626d2cc6d66421df253886d560406002548151908152836020820152a160025580f35b60849060206040519162461bcd60e51b8352820152602b60248201527f54696d656c6f636b436f6e74726f6c6c65723a2063616c6c6572206d7573742060448201526a62652074696d656c6f636b60a81b6064820152fd5b8234610198576020366003190112610198576020610a538335600052600160205260016040600020541190565b6040519015158152f35b8234610198578060031936011261019857602060405162278d008152f35b823461019857604036600319011261019857610a95610f22565b336001600160a01b03821603610ab05761027f9192356115da565b60405162461bcd60e51b8152602081850152602f60248201527f416363657373436f6e74726f6c3a2063616e206f6e6c792072656e6f756e636560448201526e103937b632b9903337b91039b2b63360891b6064820152608490fd5b8234610198576020366003190112610198576020610a5383356000526001602052604060002054151590565b9050346101f55760403660031901126101f55735610b54610f22565b81835282602052610b6d600160408520015433906114c2565b818352602083815260408085206001600160a01b039093168086529290915283205460ff1615610b9b578280f35b818352826020526040832081845260205260408320600160ff1982541617905533917f2f8788117e7eff1d82e926ec794901d17c78024a50270940304540a733656f0d8480a438808280f35b8234610198576020366003190112610198576020610a538335600052600160205260016040600020541490565b9050346101f55760203660031901126101f5576040602092600192358152808452200154604051908152f35b9050346101f55760803660031901126101f557610c5b610f07565b50610c64610f22565b506064356001600160401b0381116101f157610c839250369101611020565b50604051630a85bd0160e11b8152602090f35b8234610198576020366003190112610198576020610a53833561164e565b8261027f610d3482610d407fc2617efa69bab66782fa219543714338489c4e9e178271560a91b82c3f612b58610d2b610cec36610f65565b600080516020611d508339815191528a9995979299949394528960205260408a208a805260205260ff60408b20541615610d48575b8884848989611693565b98899788611b7c565b6102e982828787611a6e565b0390a3611c12565b610d5133611383565b610d21565b823461019857806003193601126101985760206040517f5f58e3a2316349923ce3780f8d587db2d72378aed66a8261c916544fa6846ca58152f35b82346101985780600319360112610198576020604051600080516020611d508339815191528152f35b9050346101f55760203660031901126101f5573563ffffffff60e01b81168091036101f557602090630271189760e51b8114908115610dff575b506040519015158152f35b637965db0b60e01b811491508115610e19575b5082610df4565b6301ffc9a760e01b14905082610e12565b9050346101f55760c03660031901126101f557610e45610f07565b826024356044356001600160401b0381116101f1577f4cf4410cc57040e44862ef0f45f3dd5a5e02db8eb8add648d4b0e236f1d07dca94610e8891369101610f38565b94909160643594610eca6084359660a43590610ea333611181565b610eb189828c8a8989611693565b998a97610ebe848a611956565b60405196879687611826565b0390a380610ed6578280f35b60207f20fda5fd27a1ea7bf5b9567f143ac5470bb059374a27e8f67cb44f946f6d038791604051908152a238808280f35b600435906001600160a01b0382168203610f1d57565b600080fd5b602435906001600160a01b0382168203610f1d57565b9181601f84011215610f1d578235916001600160401b038311610f1d5760208381860195010111610f1d57565b60a0600319820112610f1d576004356001600160a01b0381168103610f1d579160243591604435906001600160401b038211610f1d57610fa791600401610f38565b90916064359060843590565b608081019081106001600160401b03821117610fce57604052565b634e487b7160e01b600052604160045260246000fd5b90601f801991011681019081106001600160401b03821117610fce57604052565b6001600160401b038111610fce57601f01601f191660200190565b81601f82011215610f1d5780359061103782611005565b926110456040519485610fe4565b82845260208383010111610f1d57816000926020809301838601378301015290565b9181601f84011215610f1d578235916001600160401b038311610f1d576020808501948460051b010111610f1d57565b9060a0600319830112610f1d576001600160401b03600435818111610f1d57836110c391600401611067565b93909392602435838111610f1d57826110de91600401611067565b93909392604435918211610f1d57610fa791600401611067565b9080601f83011215610f1d578135906001600160401b038211610fce578160051b6040519360209361112c85840187610fe4565b85528380860192820101928311610f1d578301905b82821061114f575050505090565b81358152908301908301611141565b60005b8381106111715750506000910152565b8181015183820152602001611161565b6001600160a01b031660008181527f3412d5605ac6cd444957cedb533e5dacad6378b4bc819ebe3652188a665066d5602090815260408083205490937fb09aa5aeb3702cfd50b6b62bc4532604938f21248a27a1d5ca736082b6819cc19160ff16156111ee575050505050565b6111f790611c41565b9084519061120482610fb3565b6042825283820194606036873782511561136f576030865382519060019182101561136f5790607860218501536041915b818311611301575050506112bf578461129b604861057b93604497985198899161128c8984019876020b1b1b2b9b9a1b7b73a3937b61d1030b1b1b7bab73a1604d1b8a5261051f815180928d60378901910161115e565b01036028810189520187610fe4565b5194859362461bcd60e51b855260048501525180928160248601528585019061115e565b60648386519062461bcd60e51b825280600483015260248201527f537472696e67733a20686578206c656e67746820696e73756666696369656e746044820152fd5b909192600f8116601081101561135b576f181899199a1a9b1b9c1cb0b131b232b360811b901a6113318587611c30565b5360041c92801561134757600019019190611235565b634e487b7160e01b82526011600452602482fd5b634e487b7160e01b83526032600452602483fd5b634e487b7160e01b81526032600452602490fd5b6001600160a01b031660008181527fdae2aa361dfd1ca020a396615627d436107c35eff9fe7738a3512819782d706960209081526040808320549093600080516020611d508339815191529160ff16156113de575050505050565b6113e790611c41565b908451906113f482610fb3565b6042825283820194606036873782511561136f576030865382519060019182101561136f5790607860218501536041915b81831161147c575050506112bf578461129b604861057b93604497985198899161128c8984019876020b1b1b2b9b9a1b7b73a3937b61d1030b1b1b7bab73a1604d1b8a5261051f815180928d60378901910161115e565b909192600f8116601081101561135b576f181899199a1a9b1b9c1cb0b131b232b360811b901a6114ac8587611c30565b5360041c92801561134757600019019190611425565b6000908082526020908282526040938484209060018060a01b031690818552835260ff8585205416156114f6575050505050565b6114ff90611c41565b9084519061150c82610fb3565b6042825283820194606036873782511561136f576030865382519060019182101561136f5790607860218501536041915b818311611594575050506112bf578461129b604861057b93604497985198899161128c8984019876020b1b1b2b9b9a1b7b73a3937b61d1030b1b1b7bab73a1604d1b8a5261051f815180928d60378901910161115e565b909192600f8116601081101561135b576f181899199a1a9b1b9c1cb0b131b232b360811b901a6115c48587611c30565b5360041c9280156113475760001901919061153d565b9060009180835282602052604083209160018060a01b03169182845260205260ff60408420541661160a57505050565b80835282602052604083208284526020526040832060ff1981541690557ff6391f5c32d9c69d2a47ea670b442974b53935d1edc7fd64eb21e047a839171b339380a4565b600052600160205260406000205460018111908161166a575090565b905042101590565b908060209392818452848401376000828201840152601f01601f1916010190565b946116c96116e294959293604051968795602087019960018060a01b03168a52604087015260a0606087015260c0860191611672565b91608084015260a083015203601f198101835282610fe4565b51902090565b969294909695919560405196602091828901998060c08b0160a08d525260e08a01919060005b8181106117fe57505050601f19898203810160408b0152888252976001600160fb1b038111610f1d579089969495939897929160051b80928a830137019380888601878703606089015252604085019460408260051b82010195836000925b848410611795575050505050506116e29550608084015260a083015203908101835282610fe4565b9193969850919398999496603f198282030184528935601e1984360301811215610f1d5783018681019190356001600160401b038111610f1d578036038313610f1d576117e788928392600195611672565b9b0194019401918b98969394919a9997959a61176d565b90919283359060018060a01b038216809203610f1d579081528501928501919060010161170e565b929093611854926080959897969860018060a01b03168552602085015260a0604085015260a0840191611672565b9460608201520152565b1561186557565b60405162461bcd60e51b815260206004820152602360248201527f54696d656c6f636b436f6e74726f6c6c65723a206c656e677468206d69736d616044820152620e8c6d60eb1b6064820152608490fd5b60001981146118c55760010190565b634e487b7160e01b600052601160045260246000fd5b91908110156118eb5760051b0190565b634e487b7160e01b600052603260045260246000fd5b356001600160a01b0381168103610f1d5790565b91908110156118eb5760051b81013590601e1981360301821215610f1d5701908135916001600160401b038311610f1d576020018236038113610f1d579190565b9061196e826000526001602052604060002054151590565b6119ea576202a3008110611996574201908142116118c5576000526001602052604060002055565b60405162461bcd60e51b815260206004820152602660248201527f54696d656c6f636b436f6e74726f6c6c65723a20696e73756666696369656e746044820152652064656c617960d01b6064820152608490fd5b60405162461bcd60e51b815260206004820152602f60248201527f54696d656c6f636b436f6e74726f6c6c65723a206f7065726174696f6e20616c60448201526e1c9958591e481cd8da19591d5b1959608a1b6064820152608490fd5b611a6b949260609260018060a01b0316825260208201528160408201520191611672565b90565b90926000938493826040519384928337810185815203925af13d15611b18573d611a9781611005565b90611aa56040519283610fe4565b8152600060203d92013e5b15611ab757565b60405162461bcd60e51b815260206004820152603360248201527f54696d656c6f636b436f6e74726f6c6c65723a20756e6465726c79696e6720746044820152721c985b9cd858dd1a5bdb881c995d995c9d1959606a1b6064820152608490fd5b611ab0565b15611b2457565b60405162461bcd60e51b815260206004820152602a60248201527f54696d656c6f636b436f6e74726f6c6c65723a206f7065726174696f6e206973604482015269206e6f7420726561647960b01b6064820152608490fd5b611b88611b8d9161164e565b611b1d565b8015908115611bf3575b5015611b9f57565b60405162461bcd60e51b815260206004820152602660248201527f54696d656c6f636b436f6e74726f6c6c65723a206d697373696e6720646570656044820152656e64656e637960d01b6064820152608490fd5b611c0c9150600052600160205260016040600020541490565b38611b97565b611c1e611b888261164e565b60005260016020526001604060002055565b9081518110156118eb570160200190565b60405190606082018281106001600160401b03821117610fce57604052602a82526020820160403682378251156118eb576030905381516001908110156118eb57607860218401536029905b808211611ce1575050611c9d5790565b606460405162461bcd60e51b815260206004820152602060248201527f537472696e67733a20686578206c656e67746820696e73756666696369656e746044820152fd5b9091600f81166010811015611d3a576f181899199a1a9b1b9c1cb0b131b232b360811b901a611d108486611c30565b5360041c918015611d25576000190190611c8d565b60246000634e487b7160e01b81526011600452fd5b60246000634e487b7160e01b81526032600452fdfed8aa0f3194971a2a116679f7c2090f6939c8d4e01a2a8d7e41d55e5351469e63a2646970667358221220ea70d94c3f01cef06975e3e9a25727d7fc8823148ed17d8dbde719d3e064ba8664736f6c634300081300332f8788117e7eff1d82e926ec794901d17c78024a50270940304540a733656f0d",
  "linkReferences": {},
  "deployedLinkReferences": {}
}