{
  "_format": "hh-sol-artifact-1",
  "contractName": "DCAAutomationBot",
  "sourceName": "contracts/DCAAutomationBot.sol",
  "abi": [
    {
      "inputs": [
        {
          "internalType": "address",
          "name": "_dcaManager",
          "type": "address"
        },
        {
          "internalType": "uint256",
          "name": "_executionReward",
          "type": "uint256"
        },
        {
          "internalType": "uint256",
          "name": "_maxGasLimit",
          "type": "uint256"
        },
        {
          "internalType": "uint256",
          "name": "_batchSize",
          "type": "uint256"
        }
      ],
      "stateMutability": "nonpayable",
      "type": "constructor"
    },
    {
      "inputs": [],
      "name": "BotNotActive",
      "type": "error"
    },
    {
      "inputs": [],
      "name": "InvalidGasLimit",
      "type": "error"
    },
    {
      "inputs": [],
      "name": "NoStrategiesToExecute",
      "type": "error"
    },
    {
      "inputs": [],
      "name": "TooSoon",
      "type": "error"
    },
    {
      "inputs": [],
      "name": "UnauthorizedExecutor",
      "type": "error"
    },
    {
      "anonymous": false,
      "inputs": [
        {
          "indexed": false,
          "internalType": "uint256",
          "name": "strategiesExecuted",
          "type": "uint256"
        },
        {
          "indexed": false,
          "internalType": "uint256",
          "name": "gasUsed",
          "type": "uint256"
        }
      ],
      "name": "BatchExecutionCompleted",
      "type": "event"
    },
    {
      "anonymous": false,
      "inputs": [
        {
          "indexed": false,
          "internalType": "uint256",
          "name": "timestamp",
          "type": "uint256"
        }
      ],
      "name": "BotActivated",
      "type": "event"
    },
    {
      "anonymous": false,
      "inputs": [
        {
          "indexed": false,
          "internalType": "uint256",
          "name": "timestamp",
          "type": "uint256"
        }
      ],
      "name": "BotDeactivated",
      "type": "event"
    },
    {
      "anonymous": false,
      "inputs": [
        {
          "indexed": false,
          "internalType": "uint256",
          "name": "newReward",
          "type": "uint256"
        }
      ],
      "name": "ExecutionRewardUpdated",
      "type": "event"
    },
    {
      "anonymous": false,
      "inputs": [
        {
          "indexed": false,
          "internalType": "address",
          "name": "executor",
          "type": "address"
        }
      ],
      "name": "ExecutorAuthorized",
      "type": "event"
    },
    {
      "anonymous": false,
      "inputs": [
        {
          "indexed": false,
          "internalType": "address",
          "name": "executor",
          "type": "address"
        }
      ],
      "name": "ExecutorDeauthorized",
      "type": "event"
    },
    {
      "anonymous": false,
      "inputs": [
        {
          "indexed": true,
          "internalType": "bytes32",
          "name": "role",
          "type": "bytes32"
        },
        {
          "indexed": true,
          "internalType": "bytes32",
          "name": "previousAdminRole",
          "type": "bytes32"
        },
        {
          "indexed": true,
          "internalType": "bytes32",
          "name": "newAdminRole",
          "type": "bytes32"
        }
      ],
      "name": "RoleAdminChanged",
      "type": "event"
    },
    {
      "anonymous": false,
      "inputs": [
        {
          "indexed": true,
          "internalType": "bytes32",
          "name": "role",
          "type": "bytes32"
        },
        {
          "indexed": true,
          "internalType": "address",
          "name": "account",
          "type": "address"
        },
        {
          "indexed": true,
          "internalType": "address",
          "name": "sender",
          "type": "address"
        }
      ],
      "name": "RoleGranted",
      "type": "event"
    },
    {
      "anonymous": false,
      "inputs": [
        {
          "indexed": true,
          "internalType": "bytes32",
          "name": "role",
          "type": "bytes32"
        },
        {
          "indexed": true,
          "internalType": "address",
          "name": "account",
          "type": "address"
        },
        {
          "indexed": true,
          "internalType": "address",
          "name": "sender",
          "type": "address"
        }
      ],
      "name": "RoleRevoked",
      "type": "event"
    },
    {
      "inputs": [],
      "name": "DEFAULT_ADMIN_ROLE",
      "outputs": [
        {
          "internalType": "bytes32",
          "name": "",
          "type": "bytes32"
        }
      ],
      "stateMutability": "view",
      "type": "function"
    },
    {
      "inputs": [],
      "name": "MANAGER_ROLE",
      "outputs": [
        {
          "internalType": "bytes32",
          "name": "",
          "type": "bytes32"
        }
      ],
      "stateMutability": "view",
      "type": "function"
    },
    {
      "inputs": [],
      "name": "OPERATOR_ROLE",
      "outputs": [
        {
          "internalType": "bytes32",
          "name": "",
          "type": "bytes32"
        }
      ],
      "stateMutability": "view",
      "type": "function"
    },
    {
      "inputs": [],
      "name": "activateBot",
      "outputs": [],
      "stateMutability": "nonpayable",
      "type": "function"
    },
    {
      "inputs": [
        {
          "internalType": "address",
          "name": "executor",
          "type": "address"
        }
      ],
      "name": "authorizeExecutor",
      "outputs": [],
      "stateMutability": "nonpayable",
      "type": "function"
    },
    {
      "inputs": [
        {
          "internalType": "address",
          "name": "",
          "type": "address"
        }
      ],
      "name": "authorizedExecutors",
      "outputs": [
        {
          "internalType": "bool",
          "name": "",
          "type": "bool"
        }
      ],
      "stateMutability": "view",
      "type": "function"
    },
    {
      "inputs": [],
      "name": "batchSize",
      "outputs": [
        {
          "internalType": "uint256",
          "name": "",
          "type": "uint256"
        }
      ],
      "stateMutability": "view",
      "type": "function"
    },
    {
      "inputs": [],
      "name": "dcaManager",
      "outputs": [
        {
          "internalType": "contract IDCAManager",
          "name": "",
          "type": "address"
        }
      ],
      "stateMutability": "view",
      "type": "function"
    },
    {
      "inputs": [],
      "name": "deactivateBot",
      "outputs": [],
      "stateMutability": "nonpayable",
      "type": "function"
    },
    {
      "inputs": [
        {
          "internalType": "address",
          "name": "executor",
          "type": "address"
        }
      ],
      "name": "deauthorizeExecutor",
      "outputs": [],
      "stateMutability": "nonpayable",
      "type": "function"
    },
    {
      "inputs": [
        {
          "internalType": "address",
          "name": "target",
          "type": "address"
        },
        {
          "internalType": "bytes",
          "name": "data",
          "type": "bytes"
        }
      ],
      "name": "emergencyCall",
      "outputs": [],
      "stateMutability": "nonpayable",
      "type": "function"
    },
    {
      "inputs": [
        {
          "internalType": "address",
          "name": "token",
          "type": "address"
        },
        {
          "internalType": "uint256",
          "name": "amount",
          "type": "uint256"
        }
      ],
      "name": "emergencyWithdraw",
      "outputs": [],
      "stateMutability": "nonpayable",
      "type": "function"
    },
    {
      "inputs": [
        {
          "internalType": "uint256",
          "name": "batchSize_",
          "type": "uint256"
        }
      ],
      "name": "estimateGasForBatch",
      "outputs": [
        {
          "internalType": "uint256",
          "name": "",
          "type": "uint256"
        }
      ],
      "stateMutability": "view",
      "type": "function"
    },
    {
      "inputs": [],
      "name": "executeBatch",
      "outputs": [],
      "stateMutability": "nonpayable",
      "type": "function"
    },
    {
      "inputs": [
        {
          "internalType": "uint256",
          "name": "strategyId",
          "type": "uint256"
        }
      ],
      "name": "executeSingleStrategy",
      "outputs": [],
      "stateMutability": "nonpayable",
      "type": "function"
    },
    {
      "inputs": [],
      "name": "executionReward",
      "outputs": [
        {
          "internalType": "uint256",
          "name": "",
          "type": "uint256"
        }
      ],
      "stateMutability": "view",
      "type": "function"
    },
    {
      "inputs": [],
      "name": "getExecutableStrategies",
      "outputs": [
        {
          "internalType": "uint256[]",
          "name": "",
          "type": "uint256[]"
        }
      ],
      "stateMutability": "view",
      "type": "function"
    },
    {
      "inputs": [
        {
          "internalType": "bytes32",
          "name": "role",
          "type": "bytes32"
        }
      ],
      "name": "getRoleAdmin",
      "outputs": [
        {
          "internalType": "bytes32",
          "name": "",
          "type": "bytes32"
        }
      ],
      "stateMutability": "view",
      "type": "function"
    },
    {
      "inputs": [
        {
          "internalType": "bytes32",
          "name": "role",
          "type": "bytes32"
        },
        {
          "internalType": "address",
          "name": "account",
          "type": "address"
        }
      ],
      "name": "grantRole",
      "outputs": [],
      "stateMutability": "nonpayable",
      "type": "function"
    },
    {
      "inputs": [
        {
          "internalType": "bytes32",
          "name": "role",
          "type": "bytes32"
        },
        {
          "internalType": "address",
          "name": "account",
          "type": "address"
        }
      ],
      "name": "hasRole",
      "outputs": [
        {
          "internalType": "bool",
          "name": "",
          "type": "bool"
        }
      ],
      "stateMutability": "view",
      "type": "function"
    },
    {
      "inputs": [],
      "name": "isActive",
      "outputs": [
        {
          "internalType": "bool",
          "name": "",
          "type": "bool"
        }
      ],
      "stateMutability": "view",
      "type": "function"
    },
    {
      "inputs": [],
      "name": "lastExecutionTime",
      "outputs": [
        {
          "internalType": "uint256",
          "name": "",
          "type": "uint256"
        }
      ],
      "stateMutability": "view",
      "type": "function"
    },
    {
      "inputs": [],
      "name": "maxExecutionsPerBatch",
      "outputs": [
        {
          "internalType": "uint256",
          "name": "",
          "type": "uint256"
        }
      ],
      "stateMutability": "view",
      "type": "function"
    },
    {
      "inputs": [],
      "name": "maxGasLimit",
      "outputs": [
        {
          "internalType": "uint256",
          "name": "",
          "type": "uint256"
        }
      ],
      "stateMutability": "view",
      "type": "function"
    },
    {
      "inputs": [],
      "name": "minExecutionInterval",
      "outputs": [
        {
          "internalType": "uint256",
          "name": "",
          "type": "uint256"
        }
      ],
      "stateMutability": "view",
      "type": "function"
    },
    {
      "inputs": [],
      "name": "needsExecution",
      "outputs": [
        {
          "internalType": "bool",
          "name": "",
          "type": "bool"
        },
        {
          "internalType": "uint256",
          "name": "",
          "type": "uint256"
        }
      ],
      "stateMutability": "view",
      "type": "function"
    },
    {
      "inputs": [
        {
          "internalType": "bytes32",
          "name": "role",
          "type": "bytes32"
        },
        {
          "internalType": "address",
          "name": "account",
          "type": "address"
        }
      ],
      "name": "renounceRole",
      "outputs": [],
      "stateMutability": "nonpayable",
      "type": "function"
    },
    {
      "inputs": [
        {
          "internalType": "bytes32",
          "name": "role",
          "type": "bytes32"
        },
        {
          "internalType": "address",
          "name": "account",
          "type": "address"
        }
      ],
      "name": "revokeRole",
      "outputs": [],
      "stateMutability": "nonpayable",
      "type": "function"
    },
    {
      "inputs": [
        {
          "internalType": "uint256",
          "name": "_batchSize",
          "type": "uint256"
        }
      ],
      "name": "setBatchSize",
      "outputs": [],
      "stateMutability": "nonpayable",
      "type": "function"
    },
    {
      "inputs": [
        {
          "internalType": "uint256",
          "name": "_executionReward",
          "type": "uint256"
        }
      ],
      "name": "setExecutionReward",
      "outputs": [],
      "stateMutability": "nonpayable",
      "type": "function"
    },
    {
      "inputs": [
        {
          "internalType": "uint256",
          "name": "_maxGasLimit",
          "type": "uint256"
        }
      ],
      "name": "setMaxGasLimit",
      "outputs": [],
      "stateMutability": "nonpayable",
      "type": "function"
    },
    {
      "inputs": [
        {
          "internalType": "uint256",
          "name": "_interval",
          "type": "uint256"
        }
      ],
      "name": "setMinExecutionInterval",
      "outputs": [],
      "stateMutability": "nonpayable",
      "type": "function"
    },
    {
      "inputs": [
        {
          "internalType": "bytes4",
          "name": "interfaceId",
          "type": "bytes4"
        }
      ],
      "name": "supportsInterface",
      "outputs": [
        {
          "internalType": "bool",
          "name": "",
          "type": "bool"
        }
      ],
      "stateMutability": "view",
      "type": "function"
    },
    {
      "inputs": [
        {
          "internalType": "address",
          "name": "_dcaManager",
          "type": "address"
        }
      ],
      "name": "updateDCAManager",
      "outputs": [],
      "stateMutability": "nonpayable",
      "type": "function"
    }
  ],
  "bytecode": "0x6080346200020457601f620018f238819003918201601f191683019291906001600160401b0384118385101762000209578160809284926040968752833981010312620002045780516001600160a01b0381169190829003620002045782602092838301519260608382015191015190600194858055600093848052848852858520338652885260ff868620541615620001cd575b7f241ecf16d79d0f8dbfb92cbc07fe17840425976cf0667f022fe9877caa831b08808652858952868620338752895260ff87872054161562000194575b507f97667070c54ef182b0f5858b034beac1b6f3089aa2d3188bb1e8929f4fa9b929808652858952868620338752895260ff8787205416156200015b575b5060018060a01b03196002541617600255600355600455600855603260095561012c600555600a60ff199484866007541617600755522091825416179055516116b29081620002208239f35b80865285895286862033875289528686208860ff1982541617905533903390600080516020620018d28339815191528880a4386200010f565b80865285895286862033875289528686208860ff1982541617905533903390600080516020620018d28339815191528880a438620000d1565b84805284885285852033865288528585208760ff19825416179055333386600080516020620018d28339815191528180a462000094565b600080fd5b634e487b7160e01b600052604160045260246000fdfe60806040908082526004918236101561001757600080fd5b600092833560e01c92836301ffc9a714610e3d5750826304790bbb14610dc35782631776834a14610da15782631c2c754614610d8257826322f3e2d414610d5e578263248a9ca314610d335782632a88b34c14610ce45782632b0e892a14610c675782632f2ff15d14610bbd578263303d851114610b9b57826336568abe14610b0a5782633c10026a14610a9f57826355db4660146109aa578263576f35e3146109885782635e45da2314610969578263643590f9146108fb578263679d86a7146108bd5782636a82763c1461089457826373b379bd1461087557826382b3302114610826578263875043a4146107d657826391d148541461078f57826395bf76251461073c5783836395ccea67146106965750826395f9187714610677578263a217fddf1461065c578263c4bf022014610559578263d547741f14610518578263ec87621c146104dd578263f4daaba1146104be578263f5b541a614610483578263f85d107c1461020957508163fbc3dbb5146101e6575063feee80601461019f57600080fd5b346101e35760203660031901126101e3576101b8610ee6565b6101c0610efc565b60018060a01b03166bffffffffffffffffffffffff60a01b600254161760025580f35b80fd5b9050346102055781600319360112610205576020906005549051908152f35b5080fd5b838234610205578160031936011261020557610223611626565b60ff600754161561047457338252600a60205260ff818320541615610465576006546005548101809111610452574210610443575a835411610434575a6002548251631587449560e11b815291906001600160a01b031684838781845afa9283156103a8578593610410575b5082511561040057825160085490818111156103f85750925b6009548085116103f0575b506102bd84611580565b906102ca865192836113b4565b848252601f196102d986611580565b01366020840137865b8581106103b6575050813b156103b25761031386928392875194858094819363571a85c960e11b83528d8301610e90565b03925af180156103a85761037a575b50426006555a8103908111610367577fde781b57579de0538a6e6181c8be502cede35db52d09af8ba0d337ceb073991693945082519182526020820152a16001805580f35b634e487b7160e01b845260118552602484fd5b67ffffffffffffffff81959295116103955783529285610322565b634e487b7160e01b825260418652602482fd5b84513d87823e3d90fd5b8580fd5b6103c08183611612565b516103cb8285611612565b5260001981146103dd576001016102e2565b634e487b7160e01b885260118952602488fd5b9350876102b3565b9050926102a8565b8351634c18becb60e01b81528690fd5b61042d9193503d8087833e61042581836113b4565b810190611598565b918661028f565b516304c5ed9760e51b81529050fd5b51636fed7d8560e01b81529050fd5b634e487b7160e01b835260118452602483fd5b516341c8302160e11b81529050fd5b5163e57ed83560e01b81529050fd5b838234610205578160031936011261020557602090517f97667070c54ef182b0f5858b034beac1b6f3089aa2d3188bb1e8929f4fa9b9298152f35b8382346102055781600319360112610205576020906008549051908152f35b838234610205578160031936011261020557602090517f241ecf16d79d0f8dbfb92cbc07fe17840425976cf0667f022fe9877caa831b088152f35b915034610555578060031936011261055557610552913561054d600161053c610ecb565b938387528660205286200154611254565b6113d6565b80f35b8280fd5b915034610555578060031936011261055557610573610ee6565b8360243567ffffffffffffffff928382116105555736602383011215610555578186013591848311610658573660248483010111610658578360249181946105b961112e565b808951948593018337810182815203925af1903d15610652573d90811161063f578251906105f1601f8201601f1916602001836113b4565b81528460203d92013e5b15610604578280f35b906020606492519162461bcd60e51b83528201526015602482015274115b595c99d95b98de4818d85b1b0819985a5b1959605a1b6044820152fd5b634e487b7160e01b855260418452602485fd5b506105fb565b8380fd5b83823461020557816003193601126102055751908152602090f35b8382346102055781600319360112610205576020906009549051908152f35b92503461073857816003193601126107385760209060446106b5610ee6565b916106be61112e565b845163a9059cbb60e01b8152339181019190915260248035908201529485928391906001600160a01b03165af190811561072f57506106fb575080f35b6020813d8211610727575b81610713602093836113b4565b810103126102055751801515036101e35780f35b3d9150610706565b513d84823e3d90fd5b5050fd5b83823461020557816003193601126102055760207feaeee3cdc729f18a1de2f3a2b09b0842c29829725a84d91654a85808147556059161077a610efc565b600160ff19600754161760075551428152a180f35b909150346105555781600319360112610555578160209360ff926107b1610ecb565b903582528186528282206001600160a01b039091168252855220549151911615158152f35b83823461020557816003193601126102055760207fe44bdfa26b034aa005128b97a175350b04c733c4cb0343dd46d6cd10558311d491610814610efc565b60ff196007541660075551428152a180f35b90915034610555576020366003190112610555577f21a854ba1a00c824754509306498068055d6f19ed152a81bc182115fbf250010916020913590610869610efc565b8160035551908152a180f35b8382346102055781600319360112610205576020906006549051908152f35b83823461020557816003193601126102055760025490516001600160a01b039091168152602090f35b8382346102055760203660031901126102055760209160ff9082906001600160a01b036108e8610ee6565b168152600a855220541690519015158152f35b8382346102055760203660031901126102055760207f52762435f58790076157ea2a4914a5a4d0aa0eb421588891377692f7fd3bc0829161093a610ee6565b610942610efc565b6001600160a01b0316808552600a8352818520805460ff191660011790559051908152a180f35b9091503461055557826003193601126105555760209250549051908152f35b839034610205576020366003190112610205576109a3610efc565b3560085580f35b915034610555576020366003190112610555576109c5611626565b60ff6007541615610a9257338352600a60205260ff818420541615610a85576002548151631f7d568960e01b81528335848201529060a0908290602490829088906001600160a01b03165af18015610a7b57610a24575b836001805580f35b60a090813d8111610a74575b610a3a81836113b4565b81010312610555575167ffffffffffffffff60a08201918210911117610a61578080610a1c565b634e487b7160e01b825260419052602490fd5b503d610a30565b82513d86823e3d90fd5b516341c8302160e11b8152fd5b5163e57ed83560e01b8152fd5b8382346102055760203660031901126102055760207f43bcb3d0a6047f88c657b6a8d618849d6e05aa5db84bdd9d87005a7cabdb4dda91610ade610ee6565b610ae6610efc565b6001600160a01b0316808552600a8352818520805460ff191690559051908152a180f35b839034610205578260031936011261020557610b24610ecb565b90336001600160a01b03831603610b40579061055291356113d6565b608490602085519162461bcd60e51b8352820152602f60248201527f416363657373436f6e74726f6c3a2063616e206f6e6c792072656e6f756e636560448201526e103937b632b9903337b91039b2b63360891b6064820152fd5b83903461020557602036600319011261020557610bb6610efc565b3560055580f35b909150346105555781600319360112610555573590610bda610ecb565b9082845283602052610bf160018286200154611254565b82845260208481528185206001600160a01b039093168086529290528084205460ff1615610c1d578380f35b828452836020528084208285526020528320600160ff1982541617905533917f2f8788117e7eff1d82e926ec794901d17c78024a50270940304540a733656f0d8480a43880808380f35b9150346105555782600319360112610555576002548151631587449560e11b815292849184919082906001600160a01b03165afa918215610cda5783610cb99493610cbd575b50505191829182610e90565b0390f35b610cd29293503d8091833e61042581836113b4565b903880610cad565b81513d85823e3d90fd5b8382346102055760203660031901126102055762030d4083358181029391840403610d205761c350928301809311610d20576020838351908152f35b634e487b7160e01b815260118452602490fd5b9091503461055557602036600319011261055557816020936001923581528085522001549051908152f35b83823461020557816003193601126102055760209060ff6007541690519015158152f35b8382346102055781600319360112610205576020906003549051908152f35b83903461020557602036600319011261020557610dbc610efc565b8035905580f35b8390346102055781600319360112610205576002548351631587449560e11b815291839183919082906001600160a01b03165afa918215610e32578092610e17575b50505181519080151582526020820152f35b610e2b92503d8091833e61042581836113b4565b8280610e05565b8351903d90823e3d90fd5b849134610555576020366003190112610555573563ffffffff60e01b81168091036105555760209250637965db0b60e01b8114908115610e7f575b5015158152f35b6301ffc9a760e01b14905083610e78565b6020908160408183019282815285518094520193019160005b828110610eb7575050505090565b835185529381019392810192600101610ea9565b602435906001600160a01b0382168203610ee157565b600080fd5b600435906001600160a01b0382168203610ee157565b3360009081527fe84508f2c7fa9c351146748b3025cb78b45df37d868e48c6a75102fecdeee6456020908152604080832054909291907f241ecf16d79d0f8dbfb92cbc07fe17840425976cf0667f022fe9877caa831b089060ff1615610f625750505050565b610f6b33611471565b90845190610f7882611382565b6042825283820194606036873782511561111a576030865382519060019182101561111a5790607860218501536041915b8183116110ac5750505061106a5784611038604861105c9360449798519889916110298984019876020b1b1b2b9b9a1b7b73a3937b61d1030b1b1b7bab73a1604d1b8a52611000815180928d60378901910161135f565b8401917001034b99036b4b9b9b4b733903937b6329607d1b60378401525180938684019061135f565b010360288101895201876113b4565b5194859362461bcd60e51b855260048501525180928160248601528585019061135f565b601f01601f19168101030190fd5b60648386519062461bcd60e51b825280600483015260248201527f537472696e67733a20686578206c656e67746820696e73756666696369656e746044820152fd5b909192600f81166010811015611106576f181899199a1a9b1b9c1cb0b131b232b360811b901a6110dc858761144a565b5360041c9280156110f257600019019190610fa9565b634e487b7160e01b82526011600452602482fd5b634e487b7160e01b83526032600452602483fd5b634e487b7160e01b81526032600452602490fd5b3360009081527fad3228b676f7d3cd4284a5443f17f1962b36e491b30a40b2405849e597ba5fb560209081526040808320549092919060ff161561117157505050565b61117a33611471565b83518361118682611382565b6042825283820194606036873782511561111a576030865382519060019182101561111a5790607860218501536041915b81831161120e5750505061106a5784611038604861105c9360449798519889916110298984019876020b1b1b2b9b9a1b7b73a3937b61d1030b1b1b7bab73a1604d1b8a52611000815180928d60378901910161135f565b909192600f81166010811015611106576f181899199a1a9b1b9c1cb0b131b232b360811b901a61123e858761144a565b5360041c9280156110f2576000190191906111b7565b60008181526020818152604092838320338452825260ff84842054161561127b5750505050565b61128433611471565b9084519061129182611382565b6042825283820194606036873782511561111a576030865382519060019182101561111a5790607860218501536041915b8183116113195750505061106a5784611038604861105c9360449798519889916110298984019876020b1b1b2b9b9a1b7b73a3937b61d1030b1b1b7bab73a1604d1b8a52611000815180928d60378901910161135f565b909192600f81166010811015611106576f181899199a1a9b1b9c1cb0b131b232b360811b901a611349858761144a565b5360041c9280156110f2576000190191906112c2565b60005b8381106113725750506000910152565b8181015183820152602001611362565b6080810190811067ffffffffffffffff82111761139e57604052565b634e487b7160e01b600052604160045260246000fd5b90601f8019910116810190811067ffffffffffffffff82111761139e57604052565b9060009180835282602052604083209160018060a01b03169182845260205260ff60408420541661140657505050565b80835282602052604083208284526020526040832060ff1981541690557ff6391f5c32d9c69d2a47ea670b442974b53935d1edc7fd64eb21e047a839171b339380a4565b90815181101561145b570160200190565b634e487b7160e01b600052603260045260246000fd5b604051906060820182811067ffffffffffffffff82111761139e57604052602a825260208201604036823782511561145b5760309053815160019081101561145b57607860218401536029905b8082116115125750506114ce5790565b606460405162461bcd60e51b815260206004820152602060248201527f537472696e67733a20686578206c656e67746820696e73756666696369656e746044820152fd5b9091600f8116601081101561156b576f181899199a1a9b1b9c1cb0b131b232b360811b901a611541848661144a565b5360041c9180156115565760001901906114be565b60246000634e487b7160e01b81526011600452fd5b60246000634e487b7160e01b81526032600452fd5b67ffffffffffffffff811161139e5760051b60200190565b6020908181840312610ee15780519067ffffffffffffffff8211610ee157019180601f84011215610ee15782516115ce81611580565b936115dc60405195866113b4565b818552838086019260051b820101928311610ee1578301905b828210611603575050505090565b815181529083019083016115f5565b805182101561145b5760209160051b010190565b600260015414611637576002600155565b60405162461bcd60e51b815260206004820152601f60248201527f5265656e7472616e637947756172643a207265656e7472616e742063616c6c006044820152606490fdfea2646970667358221220230d3b6c5bed86bacb877817907265e61e6f2523827ff97a201d849ea9db5ba364736f6c634300081300332f8788117e7eff1d82e926ec794901d17c78024a50270940304540a733656f0d",
  "linkReferences": {},
  "deployedLinkReferences": {}
}